{
	"lib/allo-v2/contracts/core/libraries/Native.sol": {
		"Native": {
			"abi": [
				{
					"inputs": [],
					"name": "NATIVE",
					"outputs": [
						{
							"internalType": "address",
							"name": "",
							"type": "address"
						}
					],
					"stateMutability": "view",
					"type": "function"
				}
			],
			"devdoc": {
				"author": "@thelostone-mc <aditya@gitcoin.co>, @0xKurt <kurt@gitcoin.co>, @codenamejason <jason@gitcoin.co>, @0xZakk <zakk@gitcoin.co>, @nfrgosselin <nate@gitcoin.co>",
				"kind": "dev",
				"methods": {},
				"title": "Native token information",
				"version": 1
			},
			"evm": {
				"assembly": "    /* \"lib/allo-v2/contracts/core/libraries/Native.sol\":4346:4490  contract Native {... */\n  0x80\n  dup1\n  0x40\n  mstore\n  jumpi(tag_1, callvalue)\n  dataSize(sub_0)\n  swap1\n  dup2\n  dataOffset(sub_0)\n  dup3\n  codecopy\n  return\ntag_1:\n  0x00\n  dup1\n  revert\nstop\n\nsub_0: assembly {\n        /* \"lib/allo-v2/contracts/core/libraries/Native.sol\":4346:4490  contract Native {... */\n      0x80\n      dup1\n      0x40\n      mstore\n      jumpi(tag_1, iszero(lt(calldatasize, 0x04)))\n      0x00\n      dup1\n      revert\n    tag_1:\n      0x00\n      swap1\n      dup2\n      calldataload\n      0xe0\n      shr\n      0xa0cf0aea\n      eq\n      tag_3\n      jumpi\n      0x00\n      dup1\n      revert\n    tag_3:\n      jumpi(tag_7, callvalue)\n      dup2\n      add(calldatasize, not(0x03))\n      slt\n      tag_7\n      jumpi\n      dup1\n        /* \"lib/allo-v2/contracts/core/libraries/Native.sol\":4445:4487  0xEeeeeEeeeEeEeeEeEeEeeEEEeeeeEeeeeeeeEEeE */\n      0xeeeeeeeeeeeeeeeeeeeeeeeeeeeeeeeeeeeeeeee\n        /* \"lib/allo-v2/contracts/core/libraries/Native.sol\":4346:4490  contract Native {... */\n      0x20\n      swap3\n      mstore\n      return\n    tag_7:\n      pop\n      dup1\n      revert\n\n    auxdata: 0xa2646970667358221220eb9add5951ad461207cde1165c1d9595442bbd11f8fb1f8354dfb460e59e826964736f6c63430008130033\n}\n",
				"bytecode": {
					"linkReferences": {},
					"object": "60808060405234601457608c908161001a8239f35b600080fdfe6080806040526004361015601257600080fd5b600090813560e01c63a0cf0aea14602857600080fd5b34605257816003193601126052578073eeeeeeeeeeeeeeeeeeeeeeeeeeeeeeeeeeeeeeee60209252f35b5080fdfea2646970667358221220eb9add5951ad461207cde1165c1d9595442bbd11f8fb1f8354dfb460e59e826964736f6c63430008130033",
					"opcodes": "PUSH1 0x80 DUP1 PUSH1 0x40 MSTORE CALLVALUE PUSH1 0x14 JUMPI PUSH1 0x8C SWAP1 DUP2 PUSH2 0x1A DUP3 CODECOPY RETURN JUMPDEST PUSH1 0x0 DUP1 REVERT INVALID PUSH1 0x80 DUP1 PUSH1 0x40 MSTORE PUSH1 0x4 CALLDATASIZE LT ISZERO PUSH1 0x12 JUMPI PUSH1 0x0 DUP1 REVERT JUMPDEST PUSH1 0x0 SWAP1 DUP2 CALLDATALOAD PUSH1 0xE0 SHR PUSH4 0xA0CF0AEA EQ PUSH1 0x28 JUMPI PUSH1 0x0 DUP1 REVERT JUMPDEST CALLVALUE PUSH1 0x52 JUMPI DUP2 PUSH1 0x3 NOT CALLDATASIZE ADD SLT PUSH1 0x52 JUMPI DUP1 PUSH20 0xEEEEEEEEEEEEEEEEEEEEEEEEEEEEEEEEEEEEEEEE PUSH1 0x20 SWAP3 MSTORE RETURN JUMPDEST POP DUP1 REVERT INVALID LOG2 PUSH5 0x6970667358 0x22 SLT KECCAK256 0xEB SWAP11 0xDD MSIZE MLOAD 0xAD CHAINID SLT SMOD 0xCD 0xE1 AND 0x5C SAR SWAP6 SWAP6 PREVRANDAO 0x2B 0xBD GT 0xF8 0xFB 0x1F DUP4 SLOAD 0xDF 0xB4 PUSH1 0xE5 SWAP15 DUP3 PUSH10 0x64736F6C634300081300 CALLER "
				},
				"gasEstimates": {
					"creation": {
						"codeDepositCost": "28000",
						"executionCost": "87",
						"totalCost": "28087"
					},
					"external": {
						"NATIVE()": "150"
					}
				},
				"methodIdentifiers": {
					"NATIVE()": "a0cf0aea"
				}
			},
			"storageLayout": {
				"storage": [],
				"types": null
			},
			"userdoc": {
				"kind": "user",
				"methods": {
					"NATIVE()": {
						"notice": "Address of the native token"
					}
				},
				"notice": "This is used to define the address of the native token for the protocol",
				"version": 1
			}
		}
	}
}