{
	"lib/allo-v2/contracts/core/libraries/Transfer.sol": {
		"Transfer": {
			"abi": [
				{
					"inputs": [],
					"name": "AMOUNT_MISMATCH",
					"type": "error"
				},
				{
					"inputs": [],
					"name": "NATIVE",
					"outputs": [
						{
							"internalType": "address",
							"name": "",
							"type": "address"
						}
					],
					"stateMutability": "view",
					"type": "function"
				}
			],
			"devdoc": {
				"author": "@thelostone-mc <aditya@gitcoin.co>, @0xKurt <kurt@gitcoin.co>, @codenamejason <jason@gitcoin.co>, @0xZakk <zakk@gitcoin.co>, @nfrgosselin <nate@gitcoin.co>",
				"details": "Handles the transfer of tokens to an address",
				"kind": "dev",
				"methods": {},
				"title": "Transfer contract",
				"version": 1
			},
			"evm": {
				"assembly": "    /* \"lib/allo-v2/contracts/core/libraries/Transfer.sol\":4513:7537  contract Transfer is Native {... */\n  0x80\n  dup1\n  0x40\n  mstore\n  jumpi(tag_1, callvalue)\n  dataSize(sub_0)\n  swap1\n  dup2\n  dataOffset(sub_0)\n  dup3\n  codecopy\n  return\ntag_1:\n  0x00\n  dup1\n  revert\nstop\n\nsub_0: assembly {\n        /* \"lib/allo-v2/contracts/core/libraries/Transfer.sol\":4513:7537  contract Transfer is Native {... */\n      0x80\n      dup1\n      0x40\n      mstore\n      jumpi(tag_1, iszero(lt(calldatasize, 0x04)))\n      0x00\n      dup1\n      revert\n    tag_1:\n      0x00\n      swap1\n      dup2\n      calldataload\n      0xe0\n      shr\n      0xa0cf0aea\n      eq\n      tag_3\n      jumpi\n      0x00\n      dup1\n      revert\n    tag_3:\n      jumpi(tag_7, callvalue)\n      dup2\n      add(calldatasize, not(0x03))\n      slt\n      tag_7\n      jumpi\n      dup1\n        /* \"lib/allo-v2/contracts/core/libraries/Native.sol\":4445:4487  0xEeeeeEeeeEeEeeEeEeEeeEEEeeeeEeeeeeeeEEeE */\n      0xeeeeeeeeeeeeeeeeeeeeeeeeeeeeeeeeeeeeeeee\n        /* \"lib/allo-v2/contracts/core/libraries/Transfer.sol\":4513:7537  contract Transfer is Native {... */\n      0x20\n      swap3\n      mstore\n      return\n    tag_7:\n      pop\n      dup1\n      revert\n\n    auxdata: 0xa2646970667358221220cc22f875fd56462a4d9dbd9a8f1efb295b6614975dbf8005886771deb0f8290c64736f6c63430008130033\n}\n",
				"bytecode": {
					"linkReferences": {},
					"object": "60808060405234601457608c908161001a8239f35b600080fdfe6080806040526004361015601257600080fd5b600090813560e01c63a0cf0aea14602857600080fd5b34605257816003193601126052578073eeeeeeeeeeeeeeeeeeeeeeeeeeeeeeeeeeeeeeee60209252f35b5080fdfea2646970667358221220cc22f875fd56462a4d9dbd9a8f1efb295b6614975dbf8005886771deb0f8290c64736f6c63430008130033",
					"opcodes": "PUSH1 0x80 DUP1 PUSH1 0x40 MSTORE CALLVALUE PUSH1 0x14 JUMPI PUSH1 0x8C SWAP1 DUP2 PUSH2 0x1A DUP3 CODECOPY RETURN JUMPDEST PUSH1 0x0 DUP1 REVERT INVALID PUSH1 0x80 DUP1 PUSH1 0x40 MSTORE PUSH1 0x4 CALLDATASIZE LT ISZERO PUSH1 0x12 JUMPI PUSH1 0x0 DUP1 REVERT JUMPDEST PUSH1 0x0 SWAP1 DUP2 CALLDATALOAD PUSH1 0xE0 SHR PUSH4 0xA0CF0AEA EQ PUSH1 0x28 JUMPI PUSH1 0x0 DUP1 REVERT JUMPDEST CALLVALUE PUSH1 0x52 JUMPI DUP2 PUSH1 0x3 NOT CALLDATASIZE ADD SLT PUSH1 0x52 JUMPI DUP1 PUSH20 0xEEEEEEEEEEEEEEEEEEEEEEEEEEEEEEEEEEEEEEEE PUSH1 0x20 SWAP3 MSTORE RETURN JUMPDEST POP DUP1 REVERT INVALID LOG2 PUSH5 0x6970667358 0x22 SLT KECCAK256 0xCC 0x22 0xF8 PUSH22 0xFD56462A4D9DBD9A8F1EFB295B6614975DBF80058867 PUSH18 0xDEB0F8290C64736F6C634300081300330000 "
				},
				"gasEstimates": {
					"creation": {
						"codeDepositCost": "28000",
						"executionCost": "87",
						"totalCost": "28087"
					},
					"external": {
						"NATIVE()": "150"
					},
					"internal": {
						"_getBalance(address,address)": "infinite",
						"_transferAmount(address,address,uint256)": "infinite",
						"_transferAmountFrom(address,struct Transfer.TransferData memory)": "infinite",
						"_transferAmountsFrom(address,struct Transfer.TransferData memory[] memory)": "infinite"
					}
				},
				"methodIdentifiers": {
					"NATIVE()": "a0cf0aea"
				}
			},
			"storageLayout": {
				"storage": [],
				"types": null
			},
			"userdoc": {
				"errors": {
					"AMOUNT_MISMATCH()": [
						{
							"notice": "Thrown when the amount of tokens sent does not match the amount of tokens expected"
						}
					]
				},
				"kind": "user",
				"methods": {
					"NATIVE()": {
						"notice": "Address of the native token"
					}
				},
				"notice": "A helper contract to transfer tokens within Allo protocol",
				"version": 1
			}
		}
	}
}