{
	"src/SNDRStrategy.sol": {
		"SNDRStrategy": {
			"abi": [
				{
					"inputs": [
						{
							"internalType": "address",
							"name": "_allo",
							"type": "address"
						},
						{
							"internalType": "address",
							"name": "_sndrCore",
							"type": "address"
						},
						{
							"internalType": "address",
							"name": "_token",
							"type": "address"
						}
					],
					"stateMutability": "nonpayable",
					"type": "constructor"
				},
				{
					"inputs": [],
					"name": "ALLOCATION_ACTIVE",
					"type": "error"
				},
				{
					"inputs": [],
					"name": "ALLOCATION_NOT_ACTIVE",
					"type": "error"
				},
				{
					"inputs": [],
					"name": "ALLOCATION_NOT_ENDED",
					"type": "error"
				},
				{
					"inputs": [],
					"name": "ALREADY_INITIALIZED",
					"type": "error"
				},
				{
					"inputs": [],
					"name": "AMOUNT_MISMATCH",
					"type": "error"
				},
				{
					"inputs": [],
					"name": "ANCHOR_ERROR",
					"type": "error"
				},
				{
					"inputs": [],
					"name": "ARRAY_MISMATCH",
					"type": "error"
				},
				{
					"inputs": [],
					"name": "INVALID",
					"type": "error"
				},
				{
					"inputs": [],
					"name": "INVALID_ADDRESS",
					"type": "error"
				},
				{
					"inputs": [],
					"name": "INVALID_FEE",
					"type": "error"
				},
				{
					"inputs": [],
					"name": "INVALID_METADATA",
					"type": "error"
				},
				{
					"inputs": [],
					"name": "INVALID_REGISTRATION",
					"type": "error"
				},
				{
					"inputs": [],
					"name": "IS_APPROVED_STRATEGY",
					"type": "error"
				},
				{
					"inputs": [],
					"name": "MISMATCH",
					"type": "error"
				},
				{
					"inputs": [],
					"name": "NONCE_NOT_AVAILABLE",
					"type": "error"
				},
				{
					"inputs": [],
					"name": "NON_ZERO_VALUE",
					"type": "error"
				},
				{
					"inputs": [],
					"name": "NOT_APPROVED_STRATEGY",
					"type": "error"
				},
				{
					"inputs": [],
					"name": "NOT_ENOUGH_FUNDS",
					"type": "error"
				},
				{
					"inputs": [],
					"name": "NOT_IMPLEMENTED",
					"type": "error"
				},
				{
					"inputs": [],
					"name": "NOT_INITIALIZED",
					"type": "error"
				},
				{
					"inputs": [],
					"name": "NOT_PENDING_OWNER",
					"type": "error"
				},
				{
					"inputs": [],
					"name": "POOL_ACTIVE",
					"type": "error"
				},
				{
					"inputs": [],
					"name": "POOL_INACTIVE",
					"type": "error"
				},
				{
					"inputs": [],
					"name": "RECIPIENT_ALREADY_ACCEPTED",
					"type": "error"
				},
				{
					"inputs": [
						{
							"internalType": "address",
							"name": "recipientId",
							"type": "address"
						}
					],
					"name": "RECIPIENT_ERROR",
					"type": "error"
				},
				{
					"inputs": [],
					"name": "RECIPIENT_NOT_ACCEPTED",
					"type": "error"
				},
				{
					"inputs": [],
					"name": "REGISTRATION_ACTIVE",
					"type": "error"
				},
				{
					"inputs": [],
					"name": "REGISTRATION_NOT_ACTIVE",
					"type": "error"
				},
				{
					"inputs": [],
					"name": "UNAUTHORIZED",
					"type": "error"
				},
				{
					"inputs": [],
					"name": "ZERO_ADDRESS",
					"type": "error"
				},
				{
					"anonymous": false,
					"inputs": [
						{
							"indexed": true,
							"internalType": "address",
							"name": "recipientId",
							"type": "address"
						},
						{
							"indexed": false,
							"internalType": "uint256",
							"name": "amount",
							"type": "uint256"
						},
						{
							"indexed": false,
							"internalType": "address",
							"name": "token",
							"type": "address"
						},
						{
							"indexed": false,
							"internalType": "address",
							"name": "sender",
							"type": "address"
						}
					],
					"name": "Allocated",
					"type": "event"
				},
				{
					"anonymous": false,
					"inputs": [
						{
							"indexed": true,
							"internalType": "address",
							"name": "recipientAddress",
							"type": "address"
						},
						{
							"indexed": false,
							"internalType": "uint256",
							"name": "newAllocation",
							"type": "uint256"
						}
					],
					"name": "AllocationUpdated",
					"type": "event"
				},
				{
					"anonymous": false,
					"inputs": [
						{
							"indexed": false,
							"internalType": "uint256",
							"name": "allocationsCount",
							"type": "uint256"
						},
						{
							"indexed": false,
							"internalType": "uint256",
							"name": "totalAllocated",
							"type": "uint256"
						}
					],
					"name": "BatchAllocationCompleted",
					"type": "event"
				},
				{
					"anonymous": false,
					"inputs": [
						{
							"indexed": true,
							"internalType": "address",
							"name": "recipientId",
							"type": "address"
						},
						{
							"indexed": false,
							"internalType": "address",
							"name": "recipientAddress",
							"type": "address"
						},
						{
							"indexed": false,
							"internalType": "uint256",
							"name": "amount",
							"type": "uint256"
						},
						{
							"indexed": false,
							"internalType": "address",
							"name": "sender",
							"type": "address"
						}
					],
					"name": "Distributed",
					"type": "event"
				},
				{
					"anonymous": false,
					"inputs": [
						{
							"indexed": false,
							"internalType": "address[]",
							"name": "recipientIds",
							"type": "address[]"
						},
						{
							"indexed": false,
							"internalType": "uint256",
							"name": "totalAllocation",
							"type": "uint256"
						}
					],
					"name": "DistributionExecuted",
					"type": "event"
				},
				{
					"anonymous": false,
					"inputs": [
						{
							"indexed": false,
							"internalType": "uint256",
							"name": "poolId",
							"type": "uint256"
						},
						{
							"indexed": false,
							"internalType": "bytes",
							"name": "data",
							"type": "bytes"
						}
					],
					"name": "Initialized",
					"type": "event"
				},
				{
					"anonymous": false,
					"inputs": [
						{
							"indexed": true,
							"internalType": "address",
							"name": "previousOwner",
							"type": "address"
						},
						{
							"indexed": true,
							"internalType": "address",
							"name": "newOwner",
							"type": "address"
						}
					],
					"name": "OwnershipTransferred",
					"type": "event"
				},
				{
					"anonymous": false,
					"inputs": [
						{
							"indexed": false,
							"internalType": "bool",
							"name": "active",
							"type": "bool"
						}
					],
					"name": "PoolActive",
					"type": "event"
				},
				{
					"anonymous": false,
					"inputs": [
						{
							"indexed": true,
							"internalType": "address",
							"name": "recipientAddress",
							"type": "address"
						},
						{
							"indexed": false,
							"internalType": "uint256",
							"name": "initialAllocation",
							"type": "uint256"
						}
					],
					"name": "RecipientRegistered",
					"type": "event"
				},
				{
					"anonymous": false,
					"inputs": [
						{
							"indexed": true,
							"internalType": "address",
							"name": "recipientAddress",
							"type": "address"
						},
						{
							"indexed": false,
							"internalType": "enum IStrategy.Status",
							"name": "status",
							"type": "uint8"
						}
					],
					"name": "RecipientStatusUpdated",
					"type": "event"
				},
				{
					"anonymous": false,
					"inputs": [
						{
							"indexed": true,
							"internalType": "address",
							"name": "recipientId",
							"type": "address"
						},
						{
							"indexed": false,
							"internalType": "bytes",
							"name": "data",
							"type": "bytes"
						},
						{
							"indexed": false,
							"internalType": "address",
							"name": "sender",
							"type": "address"
						}
					],
					"name": "Registered",
					"type": "event"
				},
				{
					"anonymous": false,
					"inputs": [
						{
							"indexed": false,
							"internalType": "uint64",
							"name": "registrationStartTime",
							"type": "uint64"
						},
						{
							"indexed": false,
							"internalType": "uint64",
							"name": "registrationEndTime",
							"type": "uint64"
						},
						{
							"indexed": false,
							"internalType": "uint64",
							"name": "allocationStartTime",
							"type": "uint64"
						},
						{
							"indexed": false,
							"internalType": "uint64",
							"name": "allocationEndTime",
							"type": "uint64"
						}
					],
					"name": "TimestampsUpdated",
					"type": "event"
				},
				{
					"anonymous": false,
					"inputs": [
						{
							"indexed": false,
							"internalType": "address[]",
							"name": "newWhitelistedCollectors",
							"type": "address[]"
						}
					],
					"name": "WhitelistedCollectorsUpdated",
					"type": "event"
				},
				{
					"inputs": [],
					"name": "NATIVE",
					"outputs": [
						{
							"internalType": "address",
							"name": "",
							"type": "address"
						}
					],
					"stateMutability": "view",
					"type": "function"
				},
				{
					"inputs": [
						{
							"internalType": "bytes",
							"name": "_data",
							"type": "bytes"
						},
						{
							"internalType": "address",
							"name": "_sender",
							"type": "address"
						}
					],
					"name": "allocate",
					"outputs": [],
					"stateMutability": "payable",
					"type": "function"
				},
				{
					"inputs": [],
					"name": "allocationEndTime",
					"outputs": [
						{
							"internalType": "uint64",
							"name": "",
							"type": "uint64"
						}
					],
					"stateMutability": "view",
					"type": "function"
				},
				{
					"inputs": [],
					"name": "allocationStartTime",
					"outputs": [
						{
							"internalType": "uint64",
							"name": "",
							"type": "uint64"
						}
					],
					"stateMutability": "view",
					"type": "function"
				},
				{
					"inputs": [
						{
							"internalType": "address[]",
							"name": "_recipientIds",
							"type": "address[]"
						},
						{
							"internalType": "bytes",
							"name": "_data",
							"type": "bytes"
						},
						{
							"internalType": "address",
							"name": "_sender",
							"type": "address"
						}
					],
					"name": "distribute",
					"outputs": [],
					"stateMutability": "nonpayable",
					"type": "function"
				},
				{
					"inputs": [],
					"name": "getAllo",
					"outputs": [
						{
							"internalType": "contract IAllo",
							"name": "",
							"type": "address"
						}
					],
					"stateMutability": "view",
					"type": "function"
				},
				{
					"inputs": [
						{
							"internalType": "address[]",
							"name": "_recipientIds",
							"type": "address[]"
						},
						{
							"internalType": "bytes[]",
							"name": "_data",
							"type": "bytes[]"
						}
					],
					"name": "getPayouts",
					"outputs": [
						{
							"components": [
								{
									"internalType": "address",
									"name": "recipientAddress",
									"type": "address"
								},
								{
									"internalType": "uint256",
									"name": "amount",
									"type": "uint256"
								}
							],
							"internalType": "struct IStrategy.PayoutSummary[]",
							"name": "",
							"type": "tuple[]"
						}
					],
					"stateMutability": "view",
					"type": "function"
				},
				{
					"inputs": [],
					"name": "getPoolAmount",
					"outputs": [
						{
							"internalType": "uint256",
							"name": "",
							"type": "uint256"
						}
					],
					"stateMutability": "view",
					"type": "function"
				},
				{
					"inputs": [],
					"name": "getPoolId",
					"outputs": [
						{
							"internalType": "uint256",
							"name": "",
							"type": "uint256"
						}
					],
					"stateMutability": "view",
					"type": "function"
				},
				{
					"inputs": [
						{
							"internalType": "address",
							"name": "_recipientAddress",
							"type": "address"
						}
					],
					"name": "getRecipientDetails",
					"outputs": [
						{
							"components": [
								{
									"internalType": "address",
									"name": "recipientAddress",
									"type": "address"
								},
								{
									"internalType": "uint256",
									"name": "totalAllocation",
									"type": "uint256"
								},
								{
									"internalType": "enum IStrategy.Status",
									"name": "status",
									"type": "uint8"
								}
							],
							"internalType": "struct SNDRStrategy.Recipient",
							"name": "",
							"type": "tuple"
						}
					],
					"stateMutability": "view",
					"type": "function"
				},
				{
					"inputs": [
						{
							"internalType": "address",
							"name": "_recipientId",
							"type": "address"
						}
					],
					"name": "getRecipientStatus",
					"outputs": [
						{
							"internalType": "enum IStrategy.Status",
							"name": "",
							"type": "uint8"
						}
					],
					"stateMutability": "view",
					"type": "function"
				},
				{
					"inputs": [],
					"name": "getStrategyId",
					"outputs": [
						{
							"internalType": "bytes32",
							"name": "",
							"type": "bytes32"
						}
					],
					"stateMutability": "view",
					"type": "function"
				},
				{
					"inputs": [],
					"name": "getTotalRecipients",
					"outputs": [
						{
							"internalType": "uint256",
							"name": "",
							"type": "uint256"
						}
					],
					"stateMutability": "view",
					"type": "function"
				},
				{
					"inputs": [
						{
							"internalType": "uint256",
							"name": "_amount",
							"type": "uint256"
						}
					],
					"name": "increasePoolAmount",
					"outputs": [],
					"stateMutability": "nonpayable",
					"type": "function"
				},
				{
					"inputs": [
						{
							"internalType": "uint256",
							"name": "_poolId",
							"type": "uint256"
						},
						{
							"internalType": "bytes",
							"name": "_data",
							"type": "bytes"
						}
					],
					"name": "initialize",
					"outputs": [],
					"stateMutability": "nonpayable",
					"type": "function"
				},
				{
					"inputs": [],
					"name": "isPoolActive",
					"outputs": [
						{
							"internalType": "bool",
							"name": "",
							"type": "bool"
						}
					],
					"stateMutability": "view",
					"type": "function"
				},
				{
					"inputs": [
						{
							"internalType": "address",
							"name": "_allocator",
							"type": "address"
						}
					],
					"name": "isValidAllocator",
					"outputs": [
						{
							"internalType": "bool",
							"name": "",
							"type": "bool"
						}
					],
					"stateMutability": "view",
					"type": "function"
				},
				{
					"inputs": [],
					"name": "owner",
					"outputs": [
						{
							"internalType": "address",
							"name": "",
							"type": "address"
						}
					],
					"stateMutability": "view",
					"type": "function"
				},
				{
					"inputs": [
						{
							"internalType": "uint256",
							"name": "",
							"type": "uint256"
						}
					],
					"name": "recipientList",
					"outputs": [
						{
							"internalType": "address",
							"name": "",
							"type": "address"
						}
					],
					"stateMutability": "view",
					"type": "function"
				},
				{
					"inputs": [
						{
							"internalType": "address",
							"name": "",
							"type": "address"
						}
					],
					"name": "recipients",
					"outputs": [
						{
							"internalType": "address",
							"name": "recipientAddress",
							"type": "address"
						},
						{
							"internalType": "uint256",
							"name": "totalAllocation",
							"type": "uint256"
						},
						{
							"internalType": "enum IStrategy.Status",
							"name": "status",
							"type": "uint8"
						}
					],
					"stateMutability": "view",
					"type": "function"
				},
				{
					"inputs": [
						{
							"internalType": "bytes",
							"name": "_data",
							"type": "bytes"
						},
						{
							"internalType": "address",
							"name": "_sender",
							"type": "address"
						}
					],
					"name": "registerRecipient",
					"outputs": [
						{
							"internalType": "address",
							"name": "recipientId",
							"type": "address"
						}
					],
					"stateMutability": "payable",
					"type": "function"
				},
				{
					"inputs": [],
					"name": "registrationEndTime",
					"outputs": [
						{
							"internalType": "uint64",
							"name": "",
							"type": "uint64"
						}
					],
					"stateMutability": "view",
					"type": "function"
				},
				{
					"inputs": [],
					"name": "registrationStartTime",
					"outputs": [
						{
							"internalType": "uint64",
							"name": "",
							"type": "uint64"
						}
					],
					"stateMutability": "view",
					"type": "function"
				},
				{
					"inputs": [],
					"name": "renounceOwnership",
					"outputs": [],
					"stateMutability": "nonpayable",
					"type": "function"
				},
				{
					"inputs": [],
					"name": "sndrCore",
					"outputs": [
						{
							"internalType": "contract ISNDRCore",
							"name": "",
							"type": "address"
						}
					],
					"stateMutability": "view",
					"type": "function"
				},
				{
					"inputs": [],
					"name": "token",
					"outputs": [
						{
							"internalType": "contract IERC20",
							"name": "",
							"type": "address"
						}
					],
					"stateMutability": "view",
					"type": "function"
				},
				{
					"inputs": [
						{
							"internalType": "address",
							"name": "newOwner",
							"type": "address"
						}
					],
					"name": "transferOwnership",
					"outputs": [],
					"stateMutability": "nonpayable",
					"type": "function"
				},
				{
					"inputs": [
						{
							"internalType": "uint64",
							"name": "_registrationStartTime",
							"type": "uint64"
						},
						{
							"internalType": "uint64",
							"name": "_registrationEndTime",
							"type": "uint64"
						},
						{
							"internalType": "uint64",
							"name": "_allocationStartTime",
							"type": "uint64"
						},
						{
							"internalType": "uint64",
							"name": "_allocationEndTime",
							"type": "uint64"
						}
					],
					"name": "updatePoolTimestamps",
					"outputs": [],
					"stateMutability": "nonpayable",
					"type": "function"
				},
				{
					"inputs": [
						{
							"internalType": "address",
							"name": "_recipientAddress",
							"type": "address"
						},
						{
							"internalType": "enum IStrategy.Status",
							"name": "_newStatus",
							"type": "uint8"
						}
					],
					"name": "updateRecipientStatus",
					"outputs": [],
					"stateMutability": "nonpayable",
					"type": "function"
				},
				{
					"inputs": [
						{
							"internalType": "address[]",
							"name": "_newWhitelistedCollectors",
							"type": "address[]"
						}
					],
					"name": "updateWhitelistedCollectors",
					"outputs": [],
					"stateMutability": "nonpayable",
					"type": "function"
				},
				{
					"inputs": [
						{
							"internalType": "uint256",
							"name": "",
							"type": "uint256"
						}
					],
					"name": "whitelistedCollectors",
					"outputs": [
						{
							"internalType": "address",
							"name": "",
							"type": "address"
						}
					],
					"stateMutability": "view",
					"type": "function"
				},
				{
					"inputs": [],
					"name": "withdrawRemainingTokens",
					"outputs": [],
					"stateMutability": "nonpayable",
					"type": "function"
				}
			],
			"devdoc": {
				"details": "Inherits from BaseStrategy, Ownable, and ReentrancyGuard",
				"errors": {
					"ANCHOR_ERROR()": [
						{
							"details": "Thrown if the anchor creation fails"
						}
					],
					"NONCE_NOT_AVAILABLE()": [
						{
							"details": "Thrown when the nonce passed has been used or not available"
						}
					],
					"NOT_PENDING_OWNER()": [
						{
							"details": "Thrown when the 'msg.sender' is not the pending owner on ownership transfer"
						}
					]
				},
				"events": {
					"Allocated(address,uint256,address,address)": {
						"params": {
							"amount": "The amount allocated",
							"recipientId": "The ID of the recipient",
							"token": "The token allocated"
						}
					},
					"Distributed(address,address,uint256,address)": {
						"params": {
							"amount": "The amount distributed",
							"recipientAddress": "The recipient",
							"recipientId": "The ID of the recipient",
							"sender": "The sender"
						}
					},
					"Initialized(uint256,bytes)": {
						"params": {
							"data": "The data passed to the 'initialize' function",
							"poolId": "The ID of the pool"
						}
					},
					"PoolActive(bool)": {
						"params": {
							"active": "The status of the pool"
						}
					},
					"Registered(address,bytes,address)": {
						"params": {
							"data": "The data passed to the 'registerRecipient' function",
							"recipientId": "The ID of the recipient",
							"sender": "The sender"
						}
					}
				},
				"kind": "dev",
				"methods": {
					"allocate(bytes,address)": {
						"details": "The encoded '_data' will be determined by the strategy implementation. Only 'Allo' contract can      call this when it is initialized.",
						"params": {
							"_data": "The data to use to allocate to the recipient",
							"_sender": "The address of the sender"
						}
					},
					"constructor": {
						"params": {
							"_allo": "Address of the Allo contract",
							"_sndrCore": "Address of the SNDR core contract",
							"_token": "Address of the ERC20 token used for distributions"
						}
					},
					"distribute(address[],bytes,address)": {
						"details": "The encoded '_data' will be determined by the strategy implementation. Only 'Allo' contract can      call this when it is initialized.",
						"params": {
							"_data": "The data to use to distribute to the recipients",
							"_recipientIds": "The IDs of the recipients",
							"_sender": "The address of the sender"
						}
					},
					"getAllo()": {
						"returns": {
							"_0": "The Allo contract"
						}
					},
					"getPayouts(address[],bytes[])": {
						"details": "The encoded '_data' will be determined by the strategy implementation.",
						"params": {
							"_data": "The data to use to get the payout summary for the recipients",
							"_recipientIds": "The IDs of the recipients"
						},
						"returns": {
							"_0": "The payout summary for the recipients"
						}
					},
					"getPoolAmount()": {
						"returns": {
							"_0": "The balance of the pool"
						}
					},
					"getPoolId()": {
						"returns": {
							"_0": "The ID of the pool"
						}
					},
					"getRecipientDetails(address)": {
						"params": {
							"_recipientAddress": "Address of the recipient"
						},
						"returns": {
							"_0": "Recipient struct containing recipient details"
						}
					},
					"getRecipientStatus(address)": {
						"params": {
							"_recipientId": "The ID of the recipient"
						},
						"returns": {
							"_0": "The status of the recipient"
						}
					},
					"getStrategyId()": {
						"returns": {
							"_0": "The ID of the strategy"
						}
					},
					"getTotalRecipients()": {
						"returns": {
							"_0": "uint256 Total number of recipients"
						}
					},
					"increasePoolAmount(uint256)": {
						"details": "Increases the 'poolAmount' by '_amount'. Only 'Allo' contract can call this.",
						"params": {
							"_amount": "The amount to increase the pool by"
						}
					},
					"initialize(uint256,bytes)": {
						"details": "Overrides BaseStrategy's initialize function",
						"params": {
							"_data": "Encoded initialization parameters",
							"_poolId": "ID of the pool"
						}
					},
					"isPoolActive()": {
						"returns": {
							"_0": "'true' if the pool is active, otherwise 'false'"
						}
					},
					"isValidAllocator(address)": {
						"details": "How the allocator is determined is up to the strategy implementation.",
						"params": {
							"_allocator": "The address to check if it is a valid allocator for the strategy."
						},
						"returns": {
							"_0": "'true' if the address is a valid allocator, 'false' otherwise"
						}
					},
					"owner()": {
						"details": "Returns the address of the current owner."
					},
					"registerRecipient(bytes,address)": {
						"details": "Registers a recipient and returns the ID of the recipient. The encoded '_data' will be determined by the      strategy implementation. Only 'Allo' contract can call this when it is initialized.",
						"params": {
							"_data": "The data to use to register the recipient",
							"_sender": "The address of the sender"
						},
						"returns": {
							"recipientId": "The recipientId"
						}
					},
					"renounceOwnership()": {
						"details": "Leaves the contract without owner. It will not be possible to call `onlyOwner` functions. Can only be called by the current owner. NOTE: Renouncing ownership will leave the contract without an owner, thereby disabling any functionality that is only available to the owner."
					},
					"transferOwnership(address)": {
						"details": "Transfers ownership of the contract to a new account (`newOwner`). Can only be called by the current owner."
					},
					"updatePoolTimestamps(uint64,uint64,uint64,uint64)": {
						"params": {
							"_allocationEndTime": "New allocation end time",
							"_allocationStartTime": "New allocation start time",
							"_registrationEndTime": "New registration end time",
							"_registrationStartTime": "New registration start time"
						}
					},
					"updateRecipientStatus(address,uint8)": {
						"params": {
							"_newStatus": "New status to set",
							"_recipientAddress": "Address of the recipient"
						}
					},
					"updateWhitelistedCollectors(address[])": {
						"params": {
							"_newWhitelistedCollectors": "Address of the collector"
						}
					},
					"withdrawRemainingTokens()": {
						"details": "Can only be called by the owner"
					}
				},
				"title": "SNDRStrategy Contract",
				"version": 1
			},
			"evm": {
				"assembly": "    /* \"src/SNDRStrategy.sol\":825:13863  contract SNDRStrategy is BaseStrategy, Ownable, ReentrancyGuard {... */\n  0xc0\n  0x40\n  dup2\n  dup2\n  mstore\n  jumpi(tag_6, callvalue)\n  dup2\n  bytecodeSize\n  dup1\n  codesize\n  sub\n  dup1\n  swap2\n  tag_5\n  dup3\n  dup6\n  tag_1\n  jump\t// in\ntag_5:\n  dup4\n  codecopy\n  0x60\n  swap2\n  dup3\n  swap2\n  dup2\n  add\n  sub\n  slt\n  tag_6\n  jumpi\n  tag_8\n  dup4\n  tag_2\n  jump\t// in\ntag_8:\n  swap1\n  0x20\n  tag_9\n  dup5\n  tag_10\n  dup4\n  dup9\n  add\n  tag_2\n  jump\t// in\ntag_10:\n  swap7\n  add\n  tag_2\n  jump\t// in\ntag_9:\n  dup5\n  mload\n  swap1\n  swap3\n  dup2\n  dup7\n  add\n  sub(shl(0x40, 0x01), 0x01)\n  dup2\n  gt\n  dup4\n  dup3\n  lt\n  or\n  tag_11\n  jumpi\n  dup7\n  mstore\n  0x0c\n  dup3\n  mstore\n  shl(0xa0, 0x534e44525374726174656779)\n  dup4\n  dup4\n  add\n  mstore\n  sub(shl(0xa0, 0x01), 0x01)\n  swap5\n  dup6\n  and\n    /* \"lib/allo-v2/contracts/strategies/BaseStrategy.sol\":5268:5287  allo = IAllo(_allo) */\n  0x80\n  mstore\n    /* \"src/SNDRStrategy.sol\":825:13863  contract SNDRStrategy is BaseStrategy, Ownable, ReentrancyGuard {... */\n  dup6\n  mload\n    /* \"lib/allo-v2/contracts/strategies/BaseStrategy.sol\":5320:5337  abi.encode(_name) */\n  dup1\n  dup5\n  add\n    /* \"src/SNDRStrategy.sol\":825:13863  contract SNDRStrategy is BaseStrategy, Ownable, ReentrancyGuard {... */\n  dup5\n  dup2\n  mstore\n  dup4\n  mload\n  dup3\n  dup10\n  add\n  dup2\n  swap1\n  mstore\n    /* \"lib/allo-v2/contracts/strategies/BaseStrategy.sol\":5320:5337  abi.encode(_name) */\n  swap1\n  swap5\n    /* \"src/SNDRStrategy.sol\":825:13863  contract SNDRStrategy is BaseStrategy, Ownable, ReentrancyGuard {... */\n  swap2\n  swap4\n  0x00\n  swap4\n  swap3\n  dup6\n  swap3\n  swap2\ntag_13:\n  dup3\n  dup7\n  lt\n  tag_14\n  jumpi\n  pop\n  pop\n  0x00\n  dup3\n  dup3\n  add\n  dup5\n  add\n  mstore\n  0x1f\n  add\n  not(0x1f)\n  and\n  dup2\n  add\n    /* \"lib/allo-v2/contracts/strategies/BaseStrategy.sol\":5320:5337  abi.encode(_name) */\n  sub\n  dup8\n  dup2\n  add\n  dup5\n  mstore\n  tag_16\n  swap3\n  pop\n  add\n  dup3\n  tag_1\n  jump\t// in\ntag_16:\n    /* \"src/SNDRStrategy.sol\":825:13863  contract SNDRStrategy is BaseStrategy, Ownable, ReentrancyGuard {... */\n  mload\n    /* \"lib/allo-v2/contracts/strategies/BaseStrategy.sol\":5310:5338  keccak256(abi.encode(_name)) */\n  swap1\n  keccak256\n    /* \"src/SNDRStrategy.sol\":825:13863  contract SNDRStrategy is BaseStrategy, Ownable, ReentrancyGuard {... */\n  0xa0\n    /* \"lib/allo-v2/contracts/strategies/BaseStrategy.sol\":5297:5338  strategyId = keccak256(abi.encode(_name)) */\n  mstore\n    /* \"lib/allo-v2/lib/openzeppelin-contracts/contracts/access/Ownable.sol\":2518:2524  _owner */\n  0x03\n    /* \"src/SNDRStrategy.sol\":825:13863  contract SNDRStrategy is BaseStrategy, Ownable, ReentrancyGuard {... */\n  dup1\n  sload\n  not(sub(shl(0xa0, 0x01), 0x01))\n  dup1\n  dup3\n  and\n    /* \"lib/allo-v2/lib/openzeppelin-contracts/contracts/utils/Context.sol\":719:729  msg.sender */\n  caller\n    /* \"src/SNDRStrategy.sol\":825:13863  contract SNDRStrategy is BaseStrategy, Ownable, ReentrancyGuard {... */\n  swap1\n  dup2\n  or\n  swap1\n  swap4\n  sstore\n  swap5\n  mload\n  swap6\n  dup5\n  swap3\n  swap1\n  swap2\n  dup4\n  and\n    /* \"lib/allo-v2/lib/openzeppelin-contracts/contracts/access/Ownable.sol\":2566:2606  OwnershipTransferred(oldOwner, newOwner) */\n  0x8be0079c531659141344cd1fd0a4f28419497f9722a3daafe3b4186f6b6457e0\n  0x00\n  dup1\n  log3\n    /* \"src/SNDRStrategy.sol\":825:13863  contract SNDRStrategy is BaseStrategy, Ownable, ReentrancyGuard {... */\n  0x01\n    /* \"lib/allo-v2/lib/openzeppelin-contracts/contracts/security/ReentrancyGuard.sol\":1821:1843  _status = _NOT_ENTERED */\n  0x04\n    /* \"lib/allo-v2/lib/openzeppelin-contracts/contracts/security/ReentrancyGuard.sol\":1716:1717  1 */\n  sstore\n    /* \"src/SNDRStrategy.sol\":825:13863  contract SNDRStrategy is BaseStrategy, Ownable, ReentrancyGuard {... */\n  and\n  dup4\n    /* \"src/SNDRStrategy.sol\":2624:2655  sndrCore = ISNDRCore(_sndrCore) */\n  0x05\n    /* \"src/SNDRStrategy.sol\":825:13863  contract SNDRStrategy is BaseStrategy, Ownable, ReentrancyGuard {... */\n  sload\n  and\n  or\n    /* \"src/SNDRStrategy.sol\":2624:2655  sndrCore = ISNDRCore(_sndrCore) */\n  0x05\n    /* \"src/SNDRStrategy.sol\":825:13863  contract SNDRStrategy is BaseStrategy, Ownable, ReentrancyGuard {... */\n  sstore\n  and\n  swap1\n    /* \"src/SNDRStrategy.sol\":2665:2687  token = IERC20(_token) */\n  0x06\n    /* \"src/SNDRStrategy.sol\":825:13863  contract SNDRStrategy is BaseStrategy, Ownable, ReentrancyGuard {... */\n  sload\n  and\n  or\n    /* \"src/SNDRStrategy.sol\":2665:2687  token = IERC20(_token) */\n  0x06\n    /* \"src/SNDRStrategy.sol\":825:13863  contract SNDRStrategy is BaseStrategy, Ownable, ReentrancyGuard {... */\n  sstore\n  dataSize(sub_0)\n  swap1\n  dup2\n  dataOffset(sub_0)\n  dup3\n  codecopy\n    /* \"lib/allo-v2/contracts/strategies/BaseStrategy.sol\":5268:5287  allo = IAllo(_allo) */\n  0x80\n    /* \"src/SNDRStrategy.sol\":825:13863  contract SNDRStrategy is BaseStrategy, Ownable, ReentrancyGuard {... */\n  mload\n  dup2\n  assignImmutable(\"0xbd0af7246ac7aa3e59281abc6e001c8d20085f3ebd8f2bcaf145913d94136a44\")\n  mload(0xa0)\n  dup2\n  assignImmutable(\"0x5d41b7f7850dfd9d2127fd7df8bb3dcd76be1dc8040e2470c8576cf5ab9832e3\")\n  return\ntag_14:\n  dup6\n  dup2\n  add\n  dup3\n  add\n  mload\n  dup8\n  dup8\n  add\n  dup7\n  add\n  mstore\n  swap5\n  dup2\n  add\n  swap5\n  dup7\n  swap4\n  pop\n  jump(tag_13)\ntag_11:\n  mstore(0x00, shl(0xe0, 0x4e487b71))\n  mstore(0x04, 0x41)\n  revert(0x00, 0x24)\ntag_6:\n  0x00\n  dup1\n  revert\ntag_1:\n  0x1f\n  swap1\n  swap2\n  add\n  not(0x1f)\n  and\n  dup2\n  add\n  swap1\n  sub(shl(0x40, 0x01), 0x01)\n  dup3\n  gt\n  swap1\n  dup3\n  lt\n  or\n  tag_11\n  jumpi\n  0x40\n  mstore\n  jump\t// out\ntag_2:\n  mload\n  swap1\n  sub(shl(0xa0, 0x01), 0x01)\n  dup3\n  and\n  dup3\n  sub\n  tag_6\n  jumpi\n  jump\t// out\nstop\n\nsub_0: assembly {\n        /* \"src/SNDRStrategy.sol\":825:13863  contract SNDRStrategy is BaseStrategy, Ownable, ReentrancyGuard {... */\n      mstore(0x40, 0x80)\n      jumpi(tag_28, iszero(lt(calldatasize, 0x04)))\n      0x00\n      dup1\n      revert\n    tag_28:\n      0x00\n      dup1\n      calldataload\n      0xe0\n      shr\n      dup1\n      0x912917\n      eq\n      tag_30\n      jumpi\n      dup1\n      0x0a6f0ee9\n      eq\n      tag_32\n      jumpi\n      dup1\n      0x14f20ef9\n      eq\n      tag_34\n      jumpi\n      dup1\n      0x15cc481e\n      eq\n      tag_36\n      jumpi\n      dup1\n      0x19220dbc\n      eq\n      tag_38\n      jumpi\n      dup1\n      0x2143e92f\n      eq\n      tag_40\n      jumpi\n      dup1\n      0x2bbe0cae\n      eq\n      tag_42\n      jumpi\n        /* \"src/SNDRStrategy.sol\":5279:5350  abi.decode(... */\n      dup1\n        /* \"src/SNDRStrategy.sol\":825:13863  contract SNDRStrategy is BaseStrategy, Ownable, ReentrancyGuard {... */\n      0x2cb5b5ed\n        /* \"src/SNDRStrategy.sol\":5279:5350  abi.decode(... */\n      eq\n      tag_44\n      jumpi\n        /* \"src/SNDRStrategy.sol\":825:13863  contract SNDRStrategy is BaseStrategy, Ownable, ReentrancyGuard {... */\n      dup1\n      0x2d30e6bf\n      eq\n      tag_46\n      jumpi\n      dup1\n      0x38fff2d0\n      eq\n      tag_48\n      jumpi\n      dup1\n      0x42fda9c7\n      eq\n      tag_50\n      jumpi\n      dup1\n      0x4533d678\n      eq\n      tag_52\n      jumpi\n      dup1\n      0x4ab4ba42\n      eq\n      tag_54\n      jumpi\n      dup1\n      0x4d31d087\n      eq\n      tag_56\n      jumpi\n      dup1\n      0x6d40f85b\n      eq\n      tag_58\n      jumpi\n      dup1\n      0x715018a6\n      eq\n      tag_60\n      jumpi\n      dup1\n      0x8afbf669\n      eq\n      tag_62\n      jumpi\n      dup1\n      0x8da5cb5b\n      eq\n      tag_64\n      jumpi\n      dup1\n      0x9af5c09d\n      eq\n      tag_66\n      jumpi\n      dup1\n      0xa0cf0aea\n      eq\n      tag_68\n      jumpi\n      dup1\n      0xb2b878d0\n      eq\n      tag_70\n      jumpi\n      dup1\n      0xb9bd12e4\n      eq\n      tag_72\n      jumpi\n      dup1\n      0xd2e17f59\n      eq\n      tag_74\n      jumpi\n      dup1\n      0xdf868ed3\n      eq\n      tag_76\n      jumpi\n      dup1\n      0xdff7d2c7\n      eq\n      tag_78\n      jumpi\n      dup1\n      0xeb11af93\n      eq\n      tag_80\n      jumpi\n      dup1\n      0xeb820312\n      eq\n      tag_82\n      jumpi\n      dup1\n      0xedd146cc\n      eq\n      tag_84\n      jumpi\n      dup1\n      0xef2920fc\n      eq\n      tag_86\n      jumpi\n      dup1\n      0xf2fde38b\n      eq\n      tag_88\n      jumpi\n      dup1\n      0xf5b0dfb7\n      eq\n      tag_90\n      jumpi\n      0xfc0c546a\n      eq\n      tag_92\n      jumpi\n      0x00\n      dup1\n      revert\n    tag_92:\n      jumpi(tag_96, callvalue)\n      dup1\n      add(calldatasize, not(0x03))\n      slt\n      tag_96\n      jumpi\n        /* \"src/SNDRStrategy.sol\":959:978  IERC20 public token */\n      0x06\n        /* \"src/SNDRStrategy.sol\":825:13863  contract SNDRStrategy is BaseStrategy, Ownable, ReentrancyGuard {... */\n      sload\n      mload(0x40)\n      sub(shl(0xa0, 0x01), 0x01)\n      swap1\n      swap2\n      and\n      dup2\n      mstore\n      0x20\n      swap1\n      return\n    tag_96:\n      dup1\n      revert\n    tag_90:\n      pop\n      jumpi(tag_96, callvalue)\n      jumpi(tag_96, slt(add(not(0x03), calldatasize), 0x20))\n        /* \"lib/allo-v2/contracts/strategies/BaseStrategy.sol\":5630:5694  modifier onlyAllo() {... */\n      tag_102\n      tag_14\n      jump\t// in\n    tag_102:\n        /* \"lib/allo-v2/contracts/strategies/BaseStrategy.sol\":8942:8963  poolAmount += _amount */\n      tag_103\n        /* \"src/SNDRStrategy.sol\":825:13863  contract SNDRStrategy is BaseStrategy, Ownable, ReentrancyGuard {... */\n      calldataload(0x04)\n        /* \"lib/allo-v2/contracts/strategies/BaseStrategy.sol\":8942:8963  poolAmount += _amount */\n      0x02\n        /* \"src/SNDRStrategy.sol\":825:13863  contract SNDRStrategy is BaseStrategy, Ownable, ReentrancyGuard {... */\n      sload\n        /* \"lib/allo-v2/contracts/strategies/BaseStrategy.sol\":8942:8963  poolAmount += _amount */\n      tag_12\n      jump\t// in\n    tag_103:\n      0x02\n        /* \"src/SNDRStrategy.sol\":825:13863  contract SNDRStrategy is BaseStrategy, Ownable, ReentrancyGuard {... */\n      sstore\n      dup1\n      return\n    tag_88:\n      pop\n      jumpi(tag_96, callvalue)\n      jumpi(tag_96, slt(add(not(0x03), calldatasize), 0x20))\n      tag_108\n      tag_5\n      jump\t// in\n    tag_108:\n        /* \"lib/allo-v2/lib/openzeppelin-contracts/contracts/access/Ownable.sol\":1063:1125  modifier onlyOwner() {... */\n      tag_109\n      tag_16\n      jump\t// in\n    tag_109:\n      sub(shl(0xa0, 0x01), 0x01)\n        /* \"src/SNDRStrategy.sol\":825:13863  contract SNDRStrategy is BaseStrategy, Ownable, ReentrancyGuard {... */\n      swap1\n      dup2\n      and\n      swap1\n        /* \"lib/allo-v2/lib/openzeppelin-contracts/contracts/access/Ownable.sol\":2162:2184  newOwner != address(0) */\n      dup2\n      iszero\n        /* \"src/SNDRStrategy.sol\":825:13863  contract SNDRStrategy is BaseStrategy, Ownable, ReentrancyGuard {... */\n      tag_110\n      jumpi\n      sload(0x03)\n      dup3\n      shl(0xa0, 0xffffffffffffffffffffffff)\n      dup3\n      and\n      or\n      0x03\n      sstore\n      and\n        /* \"lib/allo-v2/lib/openzeppelin-contracts/contracts/access/Ownable.sol\":2566:2606  OwnershipTransferred(oldOwner, newOwner) */\n      0x8be0079c531659141344cd1fd0a4f28419497f9722a3daafe3b4186f6b6457e0\n        /* \"src/SNDRStrategy.sol\":825:13863  contract SNDRStrategy is BaseStrategy, Ownable, ReentrancyGuard {... */\n      0x00\n        /* \"lib/allo-v2/lib/openzeppelin-contracts/contracts/access/Ownable.sol\":2566:2606  OwnershipTransferred(oldOwner, newOwner) */\n      dup1\n      log3\n        /* \"src/SNDRStrategy.sol\":825:13863  contract SNDRStrategy is BaseStrategy, Ownable, ReentrancyGuard {... */\n      dup1\n      return\n    tag_110:\n      mload(0x40)\n      shl(0xe5, 0x461bcd)\n      dup2\n      mstore\n      0x20\n      0x04\n      dup3\n      add\n      mstore\n      0x26\n      0x24\n      dup3\n      add\n      mstore\n      0x4f776e61626c653a206e6577206f776e657220697320746865207a65726f2061\n      0x44\n      dup3\n      add\n      mstore\n      shl(0xd0, 0x646472657373)\n      0x64\n      dup3\n      add\n      mstore\n      0x84\n      swap1\n      revert\n    tag_86:\n      pop\n      tag_112\n      calldatasize\n      tag_10\n      jump\t// in\n    tag_112:\n        /* \"lib/allo-v2/contracts/strategies/BaseStrategy.sol\":5630:5694  modifier onlyAllo() {... */\n      swap1\n      swap2\n      tag_113\n      tag_14\n      jump\t// in\n    tag_113:\n        /* \"lib/allo-v2/contracts/strategies/BaseStrategy.sol\":6495:6573  modifier onlyInitialized() {... */\n      tag_114\n      tag_15\n      jump\t// in\n    tag_114:\n        /* \"src/SNDRStrategy.sol\":13444:13463  allocationStartTime */\n      0x0a\n        /* \"src/SNDRStrategy.sol\":825:13863  contract SNDRStrategy is BaseStrategy, Ownable, ReentrancyGuard {... */\n      sload\n      swap2\n      sub(shl(0x40, 0x01), 0x01)\n      swap3\n      dup4\n      dup2\n      0x80\n      shr\n      and\n        /* \"src/SNDRStrategy.sol\":13425:13440  block.timestamp */\n      timestamp\n        /* \"src/SNDRStrategy.sol\":13425:13463  block.timestamp >= allocationStartTime */\n      lt\n      iszero\n        /* \"src/SNDRStrategy.sol\":13425:13519  block.timestamp >= allocationStartTime &&... */\n      swap1\n      dup2\n      tag_115\n      jumpi\n        /* \"src/SNDRStrategy.sol\":825:13863  contract SNDRStrategy is BaseStrategy, Ownable, ReentrancyGuard {... */\n    tag_116:\n      pop\n      iszero\n      tag_117\n      jumpi\n        /* \"lib/allo-v2/contracts/strategies/BaseStrategy.sol\":5976:5983  _sender */\n      tag_119\n      swap1\n      tag_24\n      jump\t// in\n    tag_119:\n        /* \"src/SNDRStrategy.sol\":825:13863  contract SNDRStrategy is BaseStrategy, Ownable, ReentrancyGuard {... */\n      dup3\n      mload\n        /* \"src/SNDRStrategy.sol\":6337:6391  abi... */\n      dup4\n      add\n      swap3\n      0x20\n      swap3\n        /* \"src/SNDRStrategy.sol\":825:13863  contract SNDRStrategy is BaseStrategy, Ownable, ReentrancyGuard {... */\n      0x40\n        /* \"src/SNDRStrategy.sol\":6337:6391  abi... */\n      dup3\n      dup6\n      dup8\n      add\n        /* \"src/SNDRStrategy.sol\":825:13863  contract SNDRStrategy is BaseStrategy, Ownable, ReentrancyGuard {... */\n      swap7\n      sub\n      slt\n      tag_135\n      jumpi\n        /* \"src/SNDRStrategy.sol\":6337:6391  abi... */\n      dup4\n      dup3\n      add\n        /* \"src/SNDRStrategy.sol\":825:13863  contract SNDRStrategy is BaseStrategy, Ownable, ReentrancyGuard {... */\n      mload\n      dup2\n      dup2\n      gt\n      tag_133\n      jumpi\n      dup3\n      add\n      swap2\n      dup6\n      0x3f\n      dup5\n      add\n      slt\n      iszero\n      tag_133\n      jumpi\n      dup5\n      dup4\n      add\n      mload\n      swap3\n      tag_126\n      dup5\n      tag_4\n      jump\t// in\n    tag_126:\n      swap4\n      tag_127\n      mload(0x40)\n      swap6\n      dup7\n      tag_3\n      jump\t// in\n    tag_127:\n      dup1\n      dup6\n      mstore\n      0x40\n      dup8\n      dup7\n      add\n      swap2\n      0x05\n      shl\n      dup4\n      add\n      add\n      swap2\n      dup9\n      dup4\n      gt\n      tag_128\n      jumpi\n      0x40\n      add\n      swap1\n    tag_130:\n      dup3\n      dup3\n      lt\n      tag_131\n      jumpi\n      pop\n      pop\n      pop\n      0x40\n      dup2\n      add\n      mload\n      swap2\n      dup3\n      gt\n      tag_133\n      jumpi\n      add\n      swap4\n      dup1\n      0x3f\n      dup7\n      add\n      slt\n      iszero\n      tag_135\n      jumpi\n      dup4\n      dup6\n      add\n      mload\n      tag_137\n      dup2\n      tag_4\n      jump\t// in\n    tag_137:\n      swap6\n      tag_138\n      mload(0x40)\n      swap8\n      dup9\n      tag_3\n      jump\t// in\n    tag_138:\n      dup2\n      dup8\n      mstore\n      0x40\n      dup7\n      dup9\n      add\n      swap3\n      0x05\n      shl\n      dup3\n      add\n      add\n      swap3\n      dup4\n      gt\n      tag_139\n      jumpi\n      0x40\n      dup7\n      swap2\n      add\n      swap2\n    tag_141:\n      dup4\n      dup4\n      lt\n      tag_142\n      jumpi\n      pop\n      pop\n      pop\n      pop\n      dup1\n      mload\n      dup5\n      mload\n        /* \"src/SNDRStrategy.sol\":6422:6465  recipientAddresses.length == amounts.length */\n      sub\n        /* \"src/SNDRStrategy.sol\":825:13863  contract SNDRStrategy is BaseStrategy, Ownable, ReentrancyGuard {... */\n      tag_144\n      jumpi\n        /* \"src/SNDRStrategy.sol\":6572:6585  uint256 i = 0 */\n      dup2\n        /* \"src/SNDRStrategy.sol\":6618:6621  i++ */\n    tag_146:\n        /* \"src/SNDRStrategy.sol\":825:13863  contract SNDRStrategy is BaseStrategy, Ownable, ReentrancyGuard {... */\n      dup2\n      mload\n        /* \"src/SNDRStrategy.sol\":6587:6616  i < recipientAddresses.length */\n      dup2\n      lt\n      iszero\n      tag_147\n      jumpi\n      sub(shl(0xa0, 0x01), 0x01)\n        /* \"src/SNDRStrategy.sol\":825:13863  contract SNDRStrategy is BaseStrategy, Ownable, ReentrancyGuard {... */\n      dup1\n        /* \"src/SNDRStrategy.sol\":6664:6685  recipientAddresses[i] */\n      tag_149\n      dup4\n      dup6\n      tag_13\n      jump\t// in\n    tag_149:\n        /* \"src/SNDRStrategy.sol\":825:13863  contract SNDRStrategy is BaseStrategy, Ownable, ReentrancyGuard {... */\n      mload\n      and\n      dup1\n      dup6\n      mstore\n        /* \"src/SNDRStrategy.sol\":6699:6841  require(... */\n      tag_150\n        /* \"src/SNDRStrategy.sol\":6724:6734  recipients */\n      0x07\n        /* \"src/SNDRStrategy.sol\":825:13863  contract SNDRStrategy is BaseStrategy, Ownable, ReentrancyGuard {... */\n      swap3\n      dup4\n      dup9\n      mstore\n      0x40\n      dup8\n      keccak256\n      sload\n      and\n        /* \"src/SNDRStrategy.sol\":6724:6783  recipients[recipientAddress].recipientAddress != address(0) */\n      iszero\n      iszero\n        /* \"src/SNDRStrategy.sol\":6699:6841  require(... */\n      tag_22\n      jump\t// in\n    tag_150:\n        /* \"src/SNDRStrategy.sol\":825:13863  contract SNDRStrategy is BaseStrategy, Ownable, ReentrancyGuard {... */\n      dup5\n      mstore\n      dup1\n      dup6\n      mstore\n        /* \"src/SNDRStrategy.sol\":6880:6915  recipients[recipientAddress].status */\n      0x02\n        /* \"src/SNDRStrategy.sol\":825:13863  contract SNDRStrategy is BaseStrategy, Ownable, ReentrancyGuard {... */\n      swap1\n      0xff\n      dup3\n      0x40\n      dup8\n      keccak256\n        /* \"src/SNDRStrategy.sol\":6880:6915  recipients[recipientAddress].status */\n      add\n        /* \"src/SNDRStrategy.sol\":825:13863  contract SNDRStrategy is BaseStrategy, Ownable, ReentrancyGuard {... */\n      sload\n      and\n      swap1\n      dup2\n      lt\n      iszero\n      tag_151\n      jumpi\n        /* \"src/SNDRStrategy.sol\":6880:6934  recipients[recipientAddress].status == Status.Accepted */\n      sub\n        /* \"src/SNDRStrategy.sol\":825:13863  contract SNDRStrategy is BaseStrategy, Ownable, ReentrancyGuard {... */\n      tag_153\n      jumpi\n        /* \"src/SNDRStrategy.sol\":6618:6621  i++ */\n      tag_155\n      swap1\n      tag_21\n      jump\t// in\n    tag_155:\n        /* \"src/SNDRStrategy.sol\":6572:6585  uint256 i = 0 */\n      jump(tag_146)\n        /* \"src/SNDRStrategy.sol\":825:13863  contract SNDRStrategy is BaseStrategy, Ownable, ReentrancyGuard {... */\n    tag_153:\n      mload(0x40)\n      shl(0xe5, 0x461bcd)\n      dup2\n      mstore\n      0x04\n      dup2\n      add\n      dup6\n      swap1\n      mstore\n      0x16\n      0x24\n      dup3\n      add\n      mstore\n      shl(0x52, 0x149958da5c1a595b9d081b9bdd081858d8d95c1d1959)\n      0x44\n      dup3\n      add\n      mstore\n      0x64\n      swap1\n      revert\n    tag_151:\n      shl(0xe0, 0x4e487b71)\n      dup6\n      mstore\n      mstore(0x04, 0x21)\n      0x24\n      dup6\n      revert\n        /* \"src/SNDRStrategy.sol\":6587:6616  i < recipientAddresses.length */\n    tag_147:\n      pop\n      dup4\n      dup4\n        /* \"src/SNDRStrategy.sol\":7071:7097  uint256 totalAllocated = 0 */\n      dup4\n        /* \"src/SNDRStrategy.sol\":7112:7125  uint256 i = 0 */\n      dup5\n        /* \"src/SNDRStrategy.sol\":7158:7161  i++ */\n    tag_156:\n        /* \"src/SNDRStrategy.sol\":825:13863  contract SNDRStrategy is BaseStrategy, Ownable, ReentrancyGuard {... */\n      dup5\n      mload\n        /* \"src/SNDRStrategy.sol\":7127:7156  i < recipientAddresses.length */\n      dup2\n      lt\n      iszero\n      tag_157\n      jumpi\n        /* \"src/SNDRStrategy.sol\":7158:7161  i++ */\n      tag_159\n      swap1\n      sub(shl(0xa0, 0x01), 0x01)\n        /* \"src/SNDRStrategy.sol\":7204:7225  recipientAddresses[i] */\n      tag_160\n        /* \"src/SNDRStrategy.sol\":825:13863  contract SNDRStrategy is BaseStrategy, Ownable, ReentrancyGuard {... */\n      dup3\n        /* \"src/SNDRStrategy.sol\":7204:7225  recipientAddresses[i] */\n      dup9\n      tag_13\n      jump\t// in\n    tag_160:\n        /* \"src/SNDRStrategy.sol\":825:13863  contract SNDRStrategy is BaseStrategy, Ownable, ReentrancyGuard {... */\n      mload\n      and\n        /* \"src/SNDRStrategy.sol\":7393:7520  AllocationUpdated(... */\n      0x183f2ce0b749ed46549cb16586af0c501abab8d242cc4b2076aec30d2dd9c4bc\n        /* \"src/SNDRStrategy.sol\":7256:7266  amounts[i] */\n      dup6\n        /* \"src/SNDRStrategy.sol\":825:13863  contract SNDRStrategy is BaseStrategy, Ownable, ReentrancyGuard {... */\n      0x40\n        /* \"src/SNDRStrategy.sol\":7349:7373  totalAllocated += amount */\n      tag_161\n        /* \"src/SNDRStrategy.sol\":7256:7266  amounts[i] */\n      tag_162\n      dup7\n      dup12\n      tag_13\n      jump\t// in\n    tag_162:\n        /* \"src/SNDRStrategy.sol\":825:13863  contract SNDRStrategy is BaseStrategy, Ownable, ReentrancyGuard {... */\n      mload\n      dup6\n      dup14\n      mstore\n        /* \"src/SNDRStrategy.sol\":6724:6734  recipients */\n      0x07\n        /* \"src/SNDRStrategy.sol\":825:13863  contract SNDRStrategy is BaseStrategy, Ownable, ReentrancyGuard {... */\n      swap9\n      dup10\n      dup6\n      mstore\n      dup14\n      0x01\n      swap5\n      dup6\n      swap2\n      keccak256\n        /* \"src/SNDRStrategy.sol\":7281:7325  recipients[recipientAddress].totalAllocation */\n      add\n        /* \"src/SNDRStrategy.sol\":7281:7335  recipients[recipientAddress].totalAllocation += amount */\n      tag_163\n        /* \"src/SNDRStrategy.sol\":825:13863  contract SNDRStrategy is BaseStrategy, Ownable, ReentrancyGuard {... */\n      dup4\n      dup3\n      sload\n        /* \"src/SNDRStrategy.sol\":7281:7335  recipients[recipientAddress].totalAllocation += amount */\n      tag_12\n      jump\t// in\n    tag_163:\n        /* \"src/SNDRStrategy.sol\":825:13863  contract SNDRStrategy is BaseStrategy, Ownable, ReentrancyGuard {... */\n      swap1\n      sstore\n        /* \"src/SNDRStrategy.sol\":7349:7373  totalAllocated += amount */\n      tag_12\n      jump\t// in\n    tag_161:\n        /* \"src/SNDRStrategy.sol\":825:13863  contract SNDRStrategy is BaseStrategy, Ownable, ReentrancyGuard {... */\n      swap7\n      dup5\n      dup13\n      mstore\n      dup3\n      mstore\n      0x40\n      dup12\n      keccak256\n        /* \"src/SNDRStrategy.sol\":7462:7506  recipients[recipientAddress].totalAllocation */\n      add\n        /* \"src/SNDRStrategy.sol\":825:13863  contract SNDRStrategy is BaseStrategy, Ownable, ReentrancyGuard {... */\n      sload\n      mload(0x40)\n      swap1\n      dup2\n      mstore\n        /* \"src/SNDRStrategy.sol\":7393:7520  AllocationUpdated(... */\n      log2\n        /* \"src/SNDRStrategy.sol\":7158:7161  i++ */\n      tag_21\n      jump\t// in\n    tag_159:\n        /* \"src/SNDRStrategy.sol\":7112:7125  uint256 i = 0 */\n      jump(tag_156)\n        /* \"src/SNDRStrategy.sol\":7127:7156  i < recipientAddresses.length */\n    tag_157:\n      pop\n      swap2\n      pop\n      swap2\n        /* \"src/SNDRStrategy.sol\":7549:7567  totalAllocated > 0 */\n      dup2\n      iszero\n        /* \"src/SNDRStrategy.sol\":825:13863  contract SNDRStrategy is BaseStrategy, Ownable, ReentrancyGuard {... */\n      tag_164\n      jumpi\n      swap2\n      0x40\n      swap2\n        /* \"src/SNDRStrategy.sol\":7606:7707  BatchAllocationCompleted(... */\n      0xb41462b4bb729cf768173ceba7cc740624558176f07a40ac23a5f8fcdb6c4abd\n        /* \"src/SNDRStrategy.sol\":825:13863  contract SNDRStrategy is BaseStrategy, Ownable, ReentrancyGuard {... */\n      swap4\n      mload\n      swap2\n      dup4\n      mload\n      swap3\n      dup4\n      mstore\n      dup3\n      add\n      mstore\n        /* \"src/SNDRStrategy.sol\":7606:7707  BatchAllocationCompleted(... */\n      log1\n        /* \"src/SNDRStrategy.sol\":825:13863  contract SNDRStrategy is BaseStrategy, Ownable, ReentrancyGuard {... */\n      dup1\n      return\n    tag_164:\n      mload(0x40)\n      shl(0xe5, 0x461bcd)\n      dup2\n      mstore\n      0x04\n      dup2\n      add\n      dup5\n      swap1\n      mstore\n      0x12\n      0x24\n      dup3\n      add\n      mstore\n      shl(0x72, 0x139bc8199d5b991cc8185b1b1bd8d85d1959)\n      0x44\n      dup3\n      add\n      mstore\n      0x64\n      swap1\n      revert\n    tag_144:\n      mload(0x40)\n      shl(0xe5, 0x461bcd)\n      dup2\n      mstore\n      0x04\n      dup2\n      add\n      dup5\n      swap1\n      mstore\n      0x17\n      0x24\n      dup3\n      add\n      mstore\n      0x4d69736d61746368656420696e70757420617272617973000000000000000000\n      0x44\n      dup3\n      add\n      mstore\n      0x64\n      swap1\n      revert\n    tag_142:\n      dup3\n      mload\n      dup2\n      mstore\n      swap2\n      dup2\n      add\n      swap2\n      dup7\n      swap2\n      add\n      jump(tag_141)\n    tag_139:\n      dup5\n      dup1\n      revert\n    tag_135:\n      dup3\n      dup1\n      revert\n    tag_133:\n      dup4\n      dup1\n      revert\n    tag_131:\n      dup2\n      mload\n      sub(shl(0xa0, 0x01), 0x01)\n      dup2\n      and\n      dup2\n      sub\n      tag_166\n      jumpi\n      dup2\n      mstore\n      swap1\n      dup8\n      add\n      swap1\n      dup8\n      add\n      jump(tag_130)\n    tag_166:\n      dup8\n      dup1\n      revert\n    tag_128:\n      dup7\n      dup1\n      revert\n    tag_117:\n      mload(0x40)\n      shl(0xe5, 0x461bcd)\n      dup2\n      mstore\n      0x20\n      0x04\n      dup3\n      add\n      mstore\n      0x18\n      0x24\n      dup3\n      add\n      mstore\n      0x416c6c6f636174696f6e206973206e6f74206163746976650000000000000000\n      0x44\n      dup3\n      add\n      mstore\n      0x64\n      swap1\n      revert\n        /* \"src/SNDRStrategy.sol\":13425:13519  block.timestamp >= allocationStartTime &&... */\n    tag_115:\n        /* \"src/SNDRStrategy.sol\":825:13863  contract SNDRStrategy is BaseStrategy, Ownable, ReentrancyGuard {... */\n      swap1\n      pop\n      0xc0\n      shr\n        /* \"src/SNDRStrategy.sol\":13425:13440  block.timestamp */\n      timestamp\n        /* \"src/SNDRStrategy.sol\":13483:13519  block.timestamp <= allocationEndTime */\n      gt\n      iszero\n        /* \"src/SNDRStrategy.sol\":13425:13519  block.timestamp >= allocationStartTime &&... */\n      codesize\n      jump(tag_116)\n        /* \"src/SNDRStrategy.sol\":825:13863  contract SNDRStrategy is BaseStrategy, Ownable, ReentrancyGuard {... */\n    tag_84:\n      pop\n      jumpi(tag_96, callvalue)\n      jumpi(tag_96, slt(add(not(0x03), calldatasize), 0x40))\n      calldataload(0x04)\n      calldataload(0x24)\n      sub(shl(0x40, 0x01), 0x01)\n      dup2\n      gt\n      tag_135\n      jumpi\n      tag_174\n      swap1\n      calldatasize\n      swap1\n      0x04\n      add\n      tag_8\n      jump\t// in\n    tag_174:\n        /* \"lib/allo-v2/contracts/strategies/BaseStrategy.sol\":5630:5694  modifier onlyAllo() {... */\n      swap1\n      tag_175\n      tag_14\n      jump\t// in\n    tag_175:\n        /* \"src/SNDRStrategy.sol\":825:13863  contract SNDRStrategy is BaseStrategy, Ownable, ReentrancyGuard {... */\n      sload(0x01)\n        /* \"lib/allo-v2/contracts/strategies/BaseStrategy.sol\":8424:8469  if (poolId != 0) revert ALREADY_INITIALIZED() */\n      tag_176\n      jumpi\n        /* \"lib/allo-v2/contracts/strategies/BaseStrategy.sol\":8556:8568  _poolId == 0 */\n      dup1\n      iszero\n        /* \"lib/allo-v2/contracts/strategies/BaseStrategy.sol\":8552:8586  if (_poolId == 0) revert INVALID() */\n      tag_178\n      jumpi\n        /* \"src/SNDRStrategy.sol\":825:13863  contract SNDRStrategy is BaseStrategy, Ownable, ReentrancyGuard {... */\n      0x01\n      sstore\n      0x80\n      dup2\n      dup1\n      mload\n        /* \"src/SNDRStrategy.sol\":3223:3274  abi.decode(_data, (uint64, uint64, uint64, uint64)) */\n      dup2\n      add\n        /* \"src/SNDRStrategy.sol\":825:13863  contract SNDRStrategy is BaseStrategy, Ownable, ReentrancyGuard {... */\n      sub\n      slt\n      tag_180\n      jumpi\n        /* \"src/SNDRStrategy.sol\":3223:3274  abi.decode(_data, (uint64, uint64, uint64, uint64)) */\n      dup1\n        /* \"src/SNDRStrategy.sol\":825:13863  contract SNDRStrategy is BaseStrategy, Ownable, ReentrancyGuard {... */\n      tag_182\n      0x20\n        /* \"src/SNDRStrategy.sol\":3424:3442  _allocationEndTime */\n      tag_183\n        /* \"src/SNDRStrategy.sol\":3223:3274  abi.decode(_data, (uint64, uint64, uint64, uint64)) */\n      swap4\n      add\n        /* \"src/SNDRStrategy.sol\":825:13863  contract SNDRStrategy is BaseStrategy, Ownable, ReentrancyGuard {... */\n      tag_17\n      jump\t// in\n    tag_182:\n      swap1\n      tag_184\n      0x40\n      dup3\n      add\n      tag_17\n      jump\t// in\n    tag_184:\n      tag_185\n      0x80\n      tag_186\n      0x60\n      dup6\n      add\n      tag_17\n      jump\t// in\n    tag_186:\n      swap4\n      add\n      tag_17\n      jump\t// in\n    tag_185:\n        /* \"src/SNDRStrategy.sol\":3424:3442  _allocationEndTime */\n      swap3\n      tag_18\n      jump\t// in\n    tag_183:\n        /* \"src/SNDRStrategy.sol\":825:13863  contract SNDRStrategy is BaseStrategy, Ownable, ReentrancyGuard {... */\n      dup1\n      return\n    tag_180:\n      pop\n      dup1\n      revert\n        /* \"lib/allo-v2/contracts/strategies/BaseStrategy.sol\":8552:8586  if (_poolId == 0) revert INVALID() */\n    tag_178:\n        /* \"src/SNDRStrategy.sol\":825:13863  contract SNDRStrategy is BaseStrategy, Ownable, ReentrancyGuard {... */\n      mload(0x40)\n      shl(0xe0, 0x7fcce2a9)\n        /* \"lib/allo-v2/contracts/strategies/BaseStrategy.sol\":8577:8586  INVALID() */\n      dup2\n      mstore\n        /* \"src/SNDRStrategy.sol\":825:13863  contract SNDRStrategy is BaseStrategy, Ownable, ReentrancyGuard {... */\n      0x04\n      swap1\n        /* \"lib/allo-v2/contracts/strategies/BaseStrategy.sol\":8577:8586  INVALID() */\n      revert\n        /* \"lib/allo-v2/contracts/strategies/BaseStrategy.sol\":8424:8469  if (poolId != 0) revert ALREADY_INITIALIZED() */\n    tag_176:\n        /* \"src/SNDRStrategy.sol\":825:13863  contract SNDRStrategy is BaseStrategy, Ownable, ReentrancyGuard {... */\n      mload(0x40)\n      shl(0xe0, 0x439a74c9)\n        /* \"lib/allo-v2/contracts/strategies/BaseStrategy.sol\":8448:8469  ALREADY_INITIALIZED() */\n      dup2\n      mstore\n        /* \"src/SNDRStrategy.sol\":825:13863  contract SNDRStrategy is BaseStrategy, Ownable, ReentrancyGuard {... */\n      0x04\n      swap1\n        /* \"lib/allo-v2/contracts/strategies/BaseStrategy.sol\":8448:8469  ALREADY_INITIALIZED() */\n      revert\n        /* \"src/SNDRStrategy.sol\":825:13863  contract SNDRStrategy is BaseStrategy, Ownable, ReentrancyGuard {... */\n    tag_82:\n      pop\n      jumpi(tag_96, callvalue)\n      jumpi(tag_96, slt(add(not(0x03), calldatasize), 0x20))\n      0x60\n      swap1\n      sub(shl(0xa0, 0x01), 0x01)\n      swap1\n      tag_191\n      swap1\n      0x40\n      swap1\n      dup4\n      tag_192\n      tag_5\n      jump\t// in\n    tag_192:\n      and\n      dup2\n      mstore\n        /* \"src/SNDRStrategy.sol\":1105:1152  mapping(address => Recipient) public recipients */\n      0x07\n        /* \"src/SNDRStrategy.sol\":825:13863  contract SNDRStrategy is BaseStrategy, Ownable, ReentrancyGuard {... */\n      0x20\n      mstore\n      keccak256\n      swap2\n      dup3\n      sload\n      and\n        /* \"src/SNDRStrategy.sol\":1105:1152  mapping(address => Recipient) public recipients */\n      swap2\n        /* \"src/SNDRStrategy.sol\":825:13863  contract SNDRStrategy is BaseStrategy, Ownable, ReentrancyGuard {... */\n      0xff\n        /* \"src/SNDRStrategy.sol\":1105:1152  mapping(address => Recipient) public recipients */\n      0x02\n        /* \"src/SNDRStrategy.sol\":825:13863  contract SNDRStrategy is BaseStrategy, Ownable, ReentrancyGuard {... */\n      0x01\n        /* \"src/SNDRStrategy.sol\":1105:1152  mapping(address => Recipient) public recipients */\n      dup4\n      add\n        /* \"src/SNDRStrategy.sol\":825:13863  contract SNDRStrategy is BaseStrategy, Ownable, ReentrancyGuard {... */\n      sload\n        /* \"src/SNDRStrategy.sol\":1105:1152  mapping(address => Recipient) public recipients */\n      swap3\n      add\n        /* \"src/SNDRStrategy.sol\":825:13863  contract SNDRStrategy is BaseStrategy, Ownable, ReentrancyGuard {... */\n      sload\n      and\n      swap1\n      mload(0x40)\n      swap4\n      dup5\n      mstore\n      0x20\n      dup5\n      add\n      mstore\n      0x40\n      dup4\n      add\n      swap1\n      tag_11\n      jump\t// in\n    tag_191:\n      return\n    tag_80:\n      pop\n      jumpi(tag_96, callvalue)\n      jumpi(tag_96, slt(add(not(0x03), calldatasize), 0x20))\n      0x20\n      swap1\n      0xff\n      swap1\n        /* \"src/SNDRStrategy.sol\":10148:10179  recipients[_recipientId].status */\n      0x02\n      swap1\n        /* \"src/SNDRStrategy.sol\":825:13863  contract SNDRStrategy is BaseStrategy, Ownable, ReentrancyGuard {... */\n      0x40\n      swap1\n      sub(shl(0xa0, 0x01), 0x01)\n      tag_197\n      tag_5\n      jump\t// in\n    tag_197:\n      and\n      dup2\n      mstore\n        /* \"src/SNDRStrategy.sol\":10148:10158  recipients */\n      0x07\n        /* \"src/SNDRStrategy.sol\":825:13863  contract SNDRStrategy is BaseStrategy, Ownable, ReentrancyGuard {... */\n      dup6\n      mstore\n      keccak256\n        /* \"src/SNDRStrategy.sol\":10148:10179  recipients[_recipientId].status */\n      add\n        /* \"src/SNDRStrategy.sol\":825:13863  contract SNDRStrategy is BaseStrategy, Ownable, ReentrancyGuard {... */\n      sload\n      and\n      tag_191\n      mload(0x40)\n      dup1\n      swap3\n      tag_11\n      jump\t// in\n    tag_78:\n      pop\n      jumpi(tag_96, callvalue)\n      dup1\n      add(calldatasize, not(0x03))\n      slt\n      tag_96\n      jumpi\n      0x20\n      sub(shl(0x40, 0x01), 0x01)\n        /* \"src/SNDRStrategy.sol\":1308:1341  uint64 public registrationEndTime */\n      0x0a\n        /* \"src/SNDRStrategy.sol\":825:13863  contract SNDRStrategy is BaseStrategy, Ownable, ReentrancyGuard {... */\n      sload\n      0x40\n      shr\n      and\n      mload(0x40)\n      swap1\n      dup2\n      mstore\n      return\n    tag_76:\n      pop\n      jumpi(tag_96, callvalue)\n      dup1\n      add(calldatasize, not(0x03))\n      slt\n      tag_96\n      jumpi\n      0xff\n      0x20\n      swap2\n      sload\n      and\n      mload(0x40)\n      swap1\n      iszero\n      iszero\n      dup2\n      mstore\n      return\n    tag_74:\n      pop\n      jumpi(tag_96, callvalue)\n      dup1\n      add(calldatasize, not(0x03))\n      slt\n      tag_96\n      jumpi\n      0x20\n      sub(shl(0x40, 0x01), 0x01)\n        /* \"src/SNDRStrategy.sol\":1347:1380  uint64 public allocationStartTime */\n      0x0a\n        /* \"src/SNDRStrategy.sol\":825:13863  contract SNDRStrategy is BaseStrategy, Ownable, ReentrancyGuard {... */\n      sload\n      0x80\n      shr\n      and\n      mload(0x40)\n      swap1\n      dup2\n      mstore\n      return\n    tag_72:\n      pop\n      jumpi(tag_96, callvalue)\n      jumpi(tag_96, slt(add(not(0x03), calldatasize), 0x20))\n      0x40\n      tag_215\n      tag_5\n      jump\t// in\n    tag_215:\n      swap2\n      dup1\n      dup3\n      dup1\n      mload\n      tag_216\n      dup2\n      tag_1\n      jump\t// in\n    tag_216:\n      dup3\n      dup2\n      mstore\n      dup3\n      0x20\n      dup3\n      add\n      mstore\n      add\n      mstore\n      0x01\n      dup1\n      0xa0\n      shl\n      sub\n      dup1\n      swap4\n      and\n      dup2\n      mstore\n        /* \"src/SNDRStrategy.sol\":12323:12333  recipients */\n      0x07\n        /* \"src/SNDRStrategy.sol\":825:13863  contract SNDRStrategy is BaseStrategy, Ownable, ReentrancyGuard {... */\n      0x20\n      mstore\n      keccak256\n      mload(0x40)\n      swap1\n      tag_217\n      dup3\n      tag_1\n      jump\t// in\n    tag_217:\n      dup3\n      dup2\n      sload\n      and\n      dup3\n      mstore\n      0xff\n      0x02\n      0x01\n      dup4\n      add\n      sload\n      swap3\n      0x20\n      dup6\n      add\n      swap4\n      dup5\n      mstore\n      add\n      sload\n      and\n      swap1\n      0x40\n      dup4\n      add\n      swap1\n        /* \"src/SNDRStrategy.sol\":12323:12333  recipients */\n      0x07\n        /* \"src/SNDRStrategy.sol\":825:13863  contract SNDRStrategy is BaseStrategy, Ownable, ReentrancyGuard {... */\n      dup4\n      lt\n      iszero\n      tag_218\n      jumpi\n      0x60\n      swap5\n      tag_191\n      swap4\n      dup4\n      mstore\n      mload(0x40)\n      swap5\n      mload\n      and\n      dup5\n      mstore\n      mload\n      0x20\n      dup5\n      add\n      mstore\n      mload\n      0x40\n      dup4\n      add\n      swap1\n      tag_11\n      jump\t// in\n    tag_218:\n      mstore(0x00, shl(0xe0, 0x4e487b71))\n      mstore(0x04, 0x21)\n      revert(0x00, 0x24)\n    tag_70:\n      pop\n      jumpi(tag_96, callvalue)\n      jumpi(tag_96, slt(add(not(0x03), calldatasize), 0x40))\n      sub(shl(0x40, 0x01), 0x01)\n      calldataload(0x04)\n      dup2\n      dup2\n      gt\n      tag_135\n      jumpi\n      tag_227\n      swap1\n      calldatasize\n      swap1\n      0x04\n      add\n      tag_6\n      jump\t// in\n    tag_227:\n      swap2\n      0x24\n      swap2\n      dup3\n      calldataload\n      swap1\n      dup1\n      dup3\n      gt\n      tag_135\n      jumpi\n      calldatasize\n      0x23\n      dup4\n      add\n      slt\n      iszero\n      tag_135\n      jumpi\n      dup2\n      0x04\n      add\n      calldataload\n      tag_232\n      dup2\n      tag_4\n      jump\t// in\n    tag_232:\n      swap3\n      tag_233\n      mload(0x40)\n      swap5\n      dup6\n      tag_3\n      jump\t// in\n    tag_233:\n      dup2\n      dup5\n      mstore\n      0x20\n      swap6\n      dup1\n      dup8\n      dup7\n      add\n      swap4\n      0x05\n      shl\n      dup4\n      add\n      add\n      swap4\n      calldatasize\n      dup6\n      gt\n      tag_128\n      jumpi\n      dup2\n      dup4\n      add\n      swap4\n    tag_236:\n      dup6\n      dup6\n      lt\n      tag_237\n      jumpi\n      pop\n      pop\n      pop\n      pop\n      pop\n      pop\n      dup4\n      mload\n      swap1\n      dup1\n      mload\n        /* \"lib/allo-v2/contracts/strategies/BaseStrategy.sol\":11722:11753  recipientLength != _data.length */\n      dup3\n      sub\n        /* \"lib/allo-v2/contracts/strategies/BaseStrategy.sol\":11718:11778  if (recipientLength != _data.length) revert ARRAY_MISMATCH() */\n      tag_239\n      jumpi\n        /* \"src/SNDRStrategy.sol\":825:13863  contract SNDRStrategy is BaseStrategy, Ownable, ReentrancyGuard {... */\n      tag_241\n      dup3\n      swap6\n      swap4\n      swap6\n      tag_4\n      jump\t// in\n    tag_241:\n      swap3\n      tag_242\n      mload(0x40)\n      swap5\n      dup6\n      tag_3\n      jump\t// in\n    tag_242:\n      dup3\n      dup5\n      mstore\n      not(0x1f)\n      tag_243\n      dup5\n      tag_4\n      jump\t// in\n    tag_243:\n      add\n      dup7\n    tag_244:\n      dup2\n      dup2\n      lt\n      tag_245\n      jumpi\n        /* \"lib/allo-v2/contracts/strategies/BaseStrategy.sol\":11873:11882  uint256 i */\n      pop\n      pop\n      dup6\n        /* \"lib/allo-v2/contracts/strategies/BaseStrategy.sol\":11884:11903  i < recipientLength */\n    tag_247:\n      dup4\n      dup2\n      lt\n      tag_248\n      jumpi\n        /* \"src/SNDRStrategy.sol\":825:13863  contract SNDRStrategy is BaseStrategy, Ownable, ReentrancyGuard {... */\n      pop\n      pop\n      pop\n      pop\n      mload(0x40)\n      swap2\n      dup1\n      dup4\n      add\n      swap1\n      dup1\n      dup5\n      mstore\n      dup3\n      mload\n      dup1\n      swap3\n      mstore\n      dup1\n      0x40\n      dup6\n      add\n      swap4\n      add\n      swap5\n    tag_250:\n      dup3\n      dup2\n      lt\n      tag_251\n      jumpi\n      dup5\n      dup5\n      sub\n      dup6\n      return\n    tag_251:\n      dup6\n      mload\n      dup1\n      mload\n      sub(shl(0xa0, 0x01), 0x01)\n      and\n      dup6\n      mstore\n      dup3\n      add\n      mload\n      dup5\n      dup4\n      add\n      mstore\n      swap5\n      dup2\n      add\n      swap5\n      0x40\n      swap1\n      swap4\n      add\n      swap3\n      0x01\n      add\n      jump(tag_250)\n        /* \"lib/allo-v2/contracts/strategies/BaseStrategy.sol\":11873:11882  uint256 i */\n    tag_248:\n        /* \"src/SNDRStrategy.sol\":825:13863  contract SNDRStrategy is BaseStrategy, Ownable, ReentrancyGuard {... */\n      swap4\n      swap6\n      swap4\n      sub(shl(0xa0, 0x01), 0x01)\n        /* \"lib/allo-v2/contracts/strategies/BaseStrategy.sol\":11944:11960  _recipientIds[i] */\n      tag_253\n      dup3\n      dup5\n      tag_13\n      jump\t// in\n    tag_253:\n        /* \"src/SNDRStrategy.sol\":825:13863  contract SNDRStrategy is BaseStrategy, Ownable, ReentrancyGuard {... */\n      mload\n      and\n        /* \"lib/allo-v2/contracts/strategies/BaseStrategy.sol\":11962:11970  _data[i] */\n      swap1\n      tag_254\n      dup2\n      dup6\n      tag_13\n      jump\t// in\n    tag_254:\n      pop\n        /* \"src/SNDRStrategy.sol\":825:13863  contract SNDRStrategy is BaseStrategy, Ownable, ReentrancyGuard {... */\n      0x00\n      dup8\n      mload(0x40)\n      tag_255\n      dup2\n      tag_2\n      jump\t// in\n    tag_255:\n      dup3\n      dup2\n      mstore\n      add\n      mstore\n      dup2\n      dup7\n      mstore\n        /* \"src/SNDRStrategy.sol\":9748:9758  recipients */\n      0x07\n        /* \"src/SNDRStrategy.sol\":825:13863  contract SNDRStrategy is BaseStrategy, Ownable, ReentrancyGuard {... */\n      dup8\n      mstore\n      0x01\n      swap2\n      dup3\n      0x40\n      dup9\n      keccak256\n        /* \"src/SNDRStrategy.sol\":9748:9788  recipients[_recipientId].totalAllocation */\n      add\n        /* \"src/SNDRStrategy.sol\":825:13863  contract SNDRStrategy is BaseStrategy, Ownable, ReentrancyGuard {... */\n      sload\n      mload(0x40)\n      swap2\n      tag_256\n      dup4\n      tag_2\n      jump\t// in\n    tag_256:\n      dup3\n      mstore\n        /* \"src/SNDRStrategy.sol\":9660:9803  PayoutSummary({... */\n      dup9\n      dup3\n      add\n        /* \"src/SNDRStrategy.sol\":825:13863  contract SNDRStrategy is BaseStrategy, Ownable, ReentrancyGuard {... */\n      mstore\n        /* \"lib/allo-v2/contracts/strategies/BaseStrategy.sol\":11920:11971  payouts[i] = _getPayout(_recipientIds[i], _data[i]) */\n      tag_257\n      dup3\n      dup11\n      tag_13\n      jump\t// in\n    tag_257:\n      mstore\n      tag_258\n      dup2\n      dup10\n      tag_13\n      jump\t// in\n    tag_258:\n      pop\n        /* \"src/SNDRStrategy.sol\":825:13863  contract SNDRStrategy is BaseStrategy, Ownable, ReentrancyGuard {... */\n      add\n        /* \"lib/allo-v2/contracts/strategies/BaseStrategy.sol\":11873:11882  uint256 i */\n      swap6\n      swap4\n      swap6\n      jump(tag_247)\n        /* \"src/SNDRStrategy.sol\":825:13863  contract SNDRStrategy is BaseStrategy, Ownable, ReentrancyGuard {... */\n    tag_245:\n      dup7\n      swap1\n      0x40\n      swap9\n      swap7\n      swap9\n      mload\n      tag_259\n      dup2\n      tag_2\n      jump\t// in\n    tag_259:\n      0x00\n      dup2\n      mstore\n      0x00\n      dup4\n      dup3\n      add\n      mstore\n      dup3\n      dup3\n      dup12\n      add\n      add\n      mstore\n      add\n      swap7\n      swap5\n      swap7\n      jump(tag_244)\n        /* \"lib/allo-v2/contracts/strategies/BaseStrategy.sol\":11718:11778  if (recipientLength != _data.length) revert ARRAY_MISMATCH() */\n    tag_239:\n        /* \"src/SNDRStrategy.sol\":825:13863  contract SNDRStrategy is BaseStrategy, Ownable, ReentrancyGuard {... */\n      mload(0x40)\n      shl(0xe1, 0x3da4c02b)\n        /* \"lib/allo-v2/contracts/strategies/BaseStrategy.sol\":11762:11778  ARRAY_MISMATCH() */\n      dup2\n      mstore\n        /* \"src/SNDRStrategy.sol\":825:13863  contract SNDRStrategy is BaseStrategy, Ownable, ReentrancyGuard {... */\n      0x04\n      swap1\n        /* \"lib/allo-v2/contracts/strategies/BaseStrategy.sol\":11762:11778  ARRAY_MISMATCH() */\n      revert\n        /* \"src/SNDRStrategy.sol\":825:13863  contract SNDRStrategy is BaseStrategy, Ownable, ReentrancyGuard {... */\n    tag_237:\n      dup5\n      calldataload\n      dup3\n      dup2\n      gt\n      tag_260\n      jumpi\n      dup10\n      swap2\n      tag_262\n      dup4\n      swap3\n      dup7\n      calldatasize\n      swap2\n      dup10\n      add\n      add\n      tag_8\n      jump\t// in\n    tag_262:\n      dup2\n      mstore\n      add\n      swap5\n      add\n      swap4\n      jump(tag_236)\n    tag_260:\n      dup9\n      dup1\n      revert\n    tag_68:\n      pop\n      jumpi(tag_96, callvalue)\n      dup1\n      add(calldatasize, not(0x03))\n      slt\n      tag_96\n      jumpi\n      0x20\n      mload(0x40)\n        /* \"lib/allo-v2/contracts/core/libraries/Native.sol\":4445:4487  0xEeeeeEeeeEeEeeEeEeEeeEEEeeeeEeeeeeeeEEeE */\n      0xeeeeeeeeeeeeeeeeeeeeeeeeeeeeeeeeeeeeeeee\n        /* \"src/SNDRStrategy.sol\":825:13863  contract SNDRStrategy is BaseStrategy, Ownable, ReentrancyGuard {... */\n      dup2\n      mstore\n      return\n    tag_66:\n      pop\n      jumpi(tag_96, callvalue)\n      dup1\n      add(calldatasize, not(0x03))\n      slt\n      tag_96\n      jumpi\n      0x20\n      sub(shl(0x40, 0x01), 0x01)\n        /* \"src/SNDRStrategy.sol\":1267:1302  uint64 public registrationStartTime */\n      0x0a\n        /* \"src/SNDRStrategy.sol\":825:13863  contract SNDRStrategy is BaseStrategy, Ownable, ReentrancyGuard {... */\n      sload\n      and\n      mload(0x40)\n      swap1\n      dup2\n      mstore\n      return\n    tag_64:\n      pop\n      jumpi(tag_96, callvalue)\n      dup1\n      add(calldatasize, not(0x03))\n      slt\n      tag_96\n      jumpi\n      sload(0x03)\n      mload(0x40)\n      sub(shl(0xa0, 0x01), 0x01)\n      swap1\n      swap2\n      and\n      dup2\n      mstore\n      0x20\n      swap1\n      return\n    tag_62:\n      pop\n      jumpi(tag_96, callvalue)\n      dup1\n      add(calldatasize, not(0x03))\n      slt\n      tag_96\n      jumpi\n        /* \"lib/allo-v2/lib/openzeppelin-contracts/contracts/access/Ownable.sol\":1063:1125  modifier onlyOwner() {... */\n      tag_279\n      tag_16\n      jump\t// in\n    tag_279:\n        /* \"src/SNDRStrategy.sol\":12566:12571  token */\n      0x06\n        /* \"src/SNDRStrategy.sol\":825:13863  contract SNDRStrategy is BaseStrategy, Ownable, ReentrancyGuard {... */\n      sload\n      mload(0x40)\n      shl(0xe0, 0x70a08231)\n        /* \"src/SNDRStrategy.sol\":12566:12596  token.balanceOf(address(this)) */\n      dup2\n      mstore\n        /* \"src/SNDRStrategy.sol\":12590:12594  this */\n      address\n        /* \"src/SNDRStrategy.sol\":825:13863  contract SNDRStrategy is BaseStrategy, Ownable, ReentrancyGuard {... */\n      0x04\n        /* \"src/SNDRStrategy.sol\":12566:12596  token.balanceOf(address(this)) */\n      dup3\n      add\n        /* \"src/SNDRStrategy.sol\":825:13863  contract SNDRStrategy is BaseStrategy, Ownable, ReentrancyGuard {... */\n      mstore\n      sub(shl(0xa0, 0x01), 0x01)\n      swap2\n      dup3\n      and\n        /* \"src/SNDRStrategy.sol\":12566:12596  token.balanceOf(address(this)) */\n      0x20\n        /* \"src/SNDRStrategy.sol\":825:13863  contract SNDRStrategy is BaseStrategy, Ownable, ReentrancyGuard {... */\n      dup3\n      0x24\n      dup2\n      dup5\n        /* \"src/SNDRStrategy.sol\":12566:12596  token.balanceOf(address(this)) */\n      gas\n      staticcall\n      swap2\n      dup3\n      iszero\n      tag_280\n      jumpi\n      dup5\n      swap3\n      tag_282\n      jumpi\n        /* \"src/SNDRStrategy.sol\":825:13863  contract SNDRStrategy is BaseStrategy, Ownable, ReentrancyGuard {... */\n    tag_283:\n        /* \"src/SNDRStrategy.sol\":12610:12630  remainingBalance > 0 */\n      pop\n      dup2\n        /* \"src/SNDRStrategy.sol\":12606:12702  if (remainingBalance > 0) {... */\n      tag_284\n      jumpi\n        /* \"src/SNDRStrategy.sol\":825:13863  contract SNDRStrategy is BaseStrategy, Ownable, ReentrancyGuard {... */\n      dup4\n      dup1\n      return\n        /* \"src/SNDRStrategy.sol\":12606:12702  if (remainingBalance > 0) {... */\n    tag_284:\n        /* \"src/SNDRStrategy.sol\":12674:12690  remainingBalance */\n      tag_286\n        /* \"src/SNDRStrategy.sol\":825:13863  contract SNDRStrategy is BaseStrategy, Ownable, ReentrancyGuard {... */\n      swap3\n      sload(0x03)\n      and\n        /* \"src/SNDRStrategy.sol\":12674:12690  remainingBalance */\n      swap1\n      tag_26\n      jump\t// in\n    tag_286:\n        /* \"src/SNDRStrategy.sol\":12606:12702  if (remainingBalance > 0) {... */\n      codesize\n      dup1\n      dup1\n        /* \"src/SNDRStrategy.sol\":825:13863  contract SNDRStrategy is BaseStrategy, Ownable, ReentrancyGuard {... */\n      dup4\n      dup1\n      return\n        /* \"src/SNDRStrategy.sol\":12566:12596  token.balanceOf(address(this)) */\n    tag_282:\n      swap1\n      swap2\n      pop\n      0x20\n      dup2\n      returndatasize\n      dup3\n      gt\n      tag_287\n      jumpi\n    tag_288:\n      dup2\n      tag_289\n      0x20\n      swap4\n      dup4\n      tag_3\n      jump\t// in\n    tag_289:\n      dup2\n      add\n        /* \"src/SNDRStrategy.sol\":825:13863  contract SNDRStrategy is BaseStrategy, Ownable, ReentrancyGuard {... */\n      sub\n      slt\n      tag_290\n      jumpi\n      mload\n        /* \"src/SNDRStrategy.sol\":12566:12596  token.balanceOf(address(this)) */\n      swap1\n      codesize\n      jump(tag_283)\n        /* \"src/SNDRStrategy.sol\":825:13863  contract SNDRStrategy is BaseStrategy, Ownable, ReentrancyGuard {... */\n    tag_290:\n      0x00\n      dup1\n      revert\n        /* \"src/SNDRStrategy.sol\":12566:12596  token.balanceOf(address(this)) */\n    tag_287:\n      returndatasize\n      swap2\n      pop\n      jump(tag_288)\n    tag_280:\n        /* \"src/SNDRStrategy.sol\":825:13863  contract SNDRStrategy is BaseStrategy, Ownable, ReentrancyGuard {... */\n      mload(0x40)\n      returndatasize\n      dup7\n      dup3\n      returndatacopy\n      returndatasize\n      swap1\n      revert\n    tag_60:\n      pop\n      jumpi(tag_96, callvalue)\n      dup1\n      add(calldatasize, not(0x03))\n      slt\n      tag_96\n      jumpi\n        /* \"lib/allo-v2/lib/openzeppelin-contracts/contracts/access/Ownable.sol\":1063:1125  modifier onlyOwner() {... */\n      tag_296\n      tag_16\n      jump\t// in\n    tag_296:\n        /* \"src/SNDRStrategy.sol\":825:13863  contract SNDRStrategy is BaseStrategy, Ownable, ReentrancyGuard {... */\n      0x03\n      dup1\n      sload\n      not(sub(shl(0xa0, 0x01), 0x01))\n      dup2\n      and\n      swap1\n      swap2\n      sstore\n      0x00\n      swap1\n      sub(shl(0xa0, 0x01), 0x01)\n      and\n        /* \"lib/allo-v2/lib/openzeppelin-contracts/contracts/access/Ownable.sol\":2566:2606  OwnershipTransferred(oldOwner, newOwner) */\n      0x8be0079c531659141344cd1fd0a4f28419497f9722a3daafe3b4186f6b6457e0\n        /* \"src/SNDRStrategy.sol\":825:13863  contract SNDRStrategy is BaseStrategy, Ownable, ReentrancyGuard {... */\n      dup3\n      dup1\n        /* \"lib/allo-v2/lib/openzeppelin-contracts/contracts/access/Ownable.sol\":2566:2606  OwnershipTransferred(oldOwner, newOwner) */\n      log3\n        /* \"src/SNDRStrategy.sol\":825:13863  contract SNDRStrategy is BaseStrategy, Ownable, ReentrancyGuard {... */\n      dup1\n      return\n    tag_58:\n      pop\n      jumpi(tag_96, callvalue)\n      jumpi(tag_96, slt(add(not(0x03), calldatasize), 0x20))\n      calldataload(0x04)\n      swap1\n        /* \"src/SNDRStrategy.sol\":1158:1188  address[] public recipientList */\n      0x08\n        /* \"src/SNDRStrategy.sol\":825:13863  contract SNDRStrategy is BaseStrategy, Ownable, ReentrancyGuard {... */\n      sload\n        /* \"src/SNDRStrategy.sol\":1158:1188  address[] public recipientList */\n      dup3\n      lt\n      iszero\n      tag_96\n      jumpi\n        /* \"src/SNDRStrategy.sol\":825:13863  contract SNDRStrategy is BaseStrategy, Ownable, ReentrancyGuard {... */\n      0x20\n        /* \"src/SNDRStrategy.sol\":1158:1188  address[] public recipientList */\n      tag_303\n      dup4\n      tag_9\n      jump\t// in\n    tag_303:\n        /* \"src/SNDRStrategy.sol\":825:13863  contract SNDRStrategy is BaseStrategy, Ownable, ReentrancyGuard {... */\n      swap1\n      sload\n      mload(0x40)\n      0x03\n      swap3\n      swap1\n      swap3\n      shl\n      shr\n      sub(shl(0xa0, 0x01), 0x01)\n      and\n      dup2\n      mstore\n      return\n    tag_56:\n      pop\n      jumpi(tag_96, callvalue)\n      jumpi(tag_96, slt(add(not(0x03), calldatasize), 0x20))\n      tag_308\n      tag_5\n      jump\t// in\n    tag_308:\n      pop\n      0x20\n      mload(0x40)\n        /* \"src/SNDRStrategy.sol\":12916:12920  true */\n      0x01\n        /* \"src/SNDRStrategy.sol\":825:13863  contract SNDRStrategy is BaseStrategy, Ownable, ReentrancyGuard {... */\n      dup2\n      mstore\n      return\n    tag_54:\n      pop\n      jumpi(tag_96, callvalue)\n      dup1\n      add(calldatasize, not(0x03))\n      slt\n      tag_96\n      jumpi\n      0x20\n        /* \"lib/allo-v2/contracts/strategies/BaseStrategy.sol\":7417:7427  poolAmount */\n      0x02\n        /* \"src/SNDRStrategy.sol\":825:13863  contract SNDRStrategy is BaseStrategy, Ownable, ReentrancyGuard {... */\n      sload\n      mload(0x40)\n      swap1\n      dup2\n      mstore\n      return\n    tag_52:\n      pop\n      jumpi(tag_96, callvalue)\n      dup1\n      add(calldatasize, not(0x03))\n      slt\n      tag_96\n      jumpi\n      0x20\n        /* \"src/SNDRStrategy.sol\":1386:1417  uint64 public allocationEndTime */\n      0x0a\n        /* \"src/SNDRStrategy.sol\":825:13863  contract SNDRStrategy is BaseStrategy, Ownable, ReentrancyGuard {... */\n      sload\n      0xc0\n      shr\n      mload(0x40)\n      swap1\n      dup2\n      mstore\n      return\n    tag_50:\n      pop\n      jumpi(tag_96, callvalue)\n      dup1\n      add(calldatasize, not(0x03))\n      slt\n      tag_96\n      jumpi\n      0x20\n      mload(0x40)\n        /* \"lib/allo-v2/contracts/strategies/BaseStrategy.sol\":7218:7228  strategyId */\n      immutable(\"0x5d41b7f7850dfd9d2127fd7df8bb3dcd76be1dc8040e2470c8576cf5ab9832e3\")\n        /* \"src/SNDRStrategy.sol\":825:13863  contract SNDRStrategy is BaseStrategy, Ownable, ReentrancyGuard {... */\n      dup2\n      mstore\n      return\n    tag_48:\n      pop\n      jumpi(tag_96, callvalue)\n      dup1\n      add(calldatasize, not(0x03))\n      slt\n      tag_96\n      jumpi\n      0x20\n        /* \"lib/allo-v2/contracts/strategies/BaseStrategy.sol\":7032:7038  poolId */\n      0x01\n        /* \"src/SNDRStrategy.sol\":825:13863  contract SNDRStrategy is BaseStrategy, Ownable, ReentrancyGuard {... */\n      sload\n      mload(0x40)\n      swap1\n      dup2\n      mstore\n      return\n    tag_46:\n      pop\n      jumpi(tag_96, callvalue)\n      dup1\n      add(calldatasize, not(0x03))\n      slt\n      tag_96\n      jumpi\n      0x20\n        /* \"src/SNDRStrategy.sol\":11991:12004  recipientList */\n      0x08\n        /* \"src/SNDRStrategy.sol\":825:13863  contract SNDRStrategy is BaseStrategy, Ownable, ReentrancyGuard {... */\n      sload\n      mload(0x40)\n      swap1\n      dup2\n      mstore\n      return\n    tag_44:\n      pop\n      jumpi(tag_96, callvalue)\n      jumpi(tag_96, slt(add(not(0x03), calldatasize), 0x40))\n      tag_333\n      tag_5\n      jump\t// in\n    tag_333:\n      calldataload(0x24)\n      0x07\n      dup2\n      lt\n      iszero\n      tag_135\n      jumpi\n      0x20\n        /* \"src/SNDRStrategy.sol\":10677:10730  RecipientStatusUpdated(_recipientAddress, _newStatus) */\n      0x256c90eeec0565314afb6bdf67c3a909a88bd142e40d03c91a1f68e2a6bc35db\n        /* \"lib/allo-v2/lib/openzeppelin-contracts/contracts/access/Ownable.sol\":1063:1125  modifier onlyOwner() {... */\n      swap2\n      tag_336\n      tag_16\n      jump\t// in\n    tag_336:\n      sub(shl(0xa0, 0x01), 0x01)\n        /* \"src/SNDRStrategy.sol\":825:13863  contract SNDRStrategy is BaseStrategy, Ownable, ReentrancyGuard {... */\n      swap4\n      dup5\n      and\n      dup1\n      dup7\n      mstore\n      0x07\n      dup4\n      mstore\n      0x40\n      dup7\n      keccak256\n      sload\n      swap1\n      swap5\n        /* \"src/SNDRStrategy.sol\":10472:10603  require(... */\n      tag_337\n      swap2\n        /* \"src/SNDRStrategy.sol\":825:13863  contract SNDRStrategy is BaseStrategy, Ownable, ReentrancyGuard {... */\n      and\n        /* \"src/SNDRStrategy.sol\":10493:10553  recipients[_recipientAddress].recipientAddress != address(0) */\n      iszero\n      iszero\n        /* \"src/SNDRStrategy.sol\":10472:10603  require(... */\n      tag_22\n      jump\t// in\n    tag_337:\n        /* \"src/SNDRStrategy.sol\":825:13863  contract SNDRStrategy is BaseStrategy, Ownable, ReentrancyGuard {... */\n      dup4\n      dup6\n      mstore\n      0x07\n      dup3\n      mstore\n        /* \"src/SNDRStrategy.sol\":10613:10662  recipients[_recipientAddress].status = _newStatus */\n      tag_338\n        /* \"src/SNDRStrategy.sol\":825:13863  contract SNDRStrategy is BaseStrategy, Ownable, ReentrancyGuard {... */\n      dup2\n        /* \"src/SNDRStrategy.sol\":10613:10649  recipients[_recipientAddress].status */\n      0x02\n        /* \"src/SNDRStrategy.sol\":825:13863  contract SNDRStrategy is BaseStrategy, Ownable, ReentrancyGuard {... */\n      0x40\n      dup9\n      keccak256\n        /* \"src/SNDRStrategy.sol\":10613:10649  recipients[_recipientAddress].status */\n      add\n        /* \"src/SNDRStrategy.sol\":10613:10662  recipients[_recipientAddress].status = _newStatus */\n      tag_19\n      jump\t// in\n    tag_338:\n        /* \"src/SNDRStrategy.sol\":825:13863  contract SNDRStrategy is BaseStrategy, Ownable, ReentrancyGuard {... */\n      tag_339\n      mload(0x40)\n      dup1\n      swap3\n      tag_11\n      jump\t// in\n    tag_339:\n        /* \"src/SNDRStrategy.sol\":10677:10730  RecipientStatusUpdated(_recipientAddress, _newStatus) */\n      log2\n        /* \"src/SNDRStrategy.sol\":825:13863  contract SNDRStrategy is BaseStrategy, Ownable, ReentrancyGuard {... */\n      dup1\n      return\n    tag_42:\n      pop\n      tag_340\n      calldatasize\n      tag_10\n      jump\t// in\n    tag_340:\n        /* \"lib/allo-v2/contracts/strategies/BaseStrategy.sol\":5630:5694  modifier onlyAllo() {... */\n      pop\n      tag_341\n      tag_14\n      jump\t// in\n    tag_341:\n        /* \"lib/allo-v2/contracts/strategies/BaseStrategy.sol\":6495:6573  modifier onlyInitialized() {... */\n      tag_342\n      tag_15\n      jump\t// in\n    tag_342:\n        /* \"src/SNDRStrategy.sol\":13113:13134  registrationStartTime */\n      0x0a\n        /* \"src/SNDRStrategy.sol\":825:13863  contract SNDRStrategy is BaseStrategy, Ownable, ReentrancyGuard {... */\n      sload\n      sub(shl(0x40, 0x01), 0x01)\n      dup1\n      dup3\n      and\n        /* \"src/SNDRStrategy.sol\":13094:13109  block.timestamp */\n      timestamp\n        /* \"src/SNDRStrategy.sol\":13094:13134  block.timestamp >= registrationStartTime */\n      lt\n      iszero\n        /* \"src/SNDRStrategy.sol\":13094:13192  block.timestamp >= registrationStartTime &&... */\n      swap2\n      dup3\n      tag_343\n      jumpi\n        /* \"src/SNDRStrategy.sol\":825:13863  contract SNDRStrategy is BaseStrategy, Ownable, ReentrancyGuard {... */\n    tag_344:\n      pop\n      pop\n      iszero\n      tag_345\n      jumpi\n        /* \"lib/allo-v2/lib/openzeppelin-contracts/contracts/security/ReentrancyGuard.sol\":2227:2330  modifier nonReentrant() {... */\n      tag_347\n      tag_20\n      jump\t// in\n    tag_347:\n        /* \"src/SNDRStrategy.sol\":825:13863  contract SNDRStrategy is BaseStrategy, Ownable, ReentrancyGuard {... */\n      0x40\n      dup2\n      dup1\n      mload\n        /* \"src/SNDRStrategy.sol\":5279:5350  abi.decode(... */\n      dup2\n      add\n        /* \"src/SNDRStrategy.sol\":825:13863  contract SNDRStrategy is BaseStrategy, Ownable, ReentrancyGuard {... */\n      sub\n      slt\n      tag_180\n      jumpi\n        /* \"src/SNDRStrategy.sol\":5279:5350  abi.decode(... */\n      0x20\n      swap2\n      dup3\n      dup3\n      add\n        /* \"src/SNDRStrategy.sol\":825:13863  contract SNDRStrategy is BaseStrategy, Ownable, ReentrancyGuard {... */\n      mload\n      swap2\n      0x01\n      dup1\n      0xa0\n      shl\n      sub\n      swap1\n      dup2\n      dup5\n      and\n      dup1\n      swap5\n      sub\n      tag_135\n      jumpi\n      0x40\n      add\n      mload\n      swap2\n      dup4\n      dup2\n      mstore\n        /* \"src/SNDRStrategy.sol\":5382:5392  recipients */\n      0x07\n        /* \"src/SNDRStrategy.sol\":825:13863  contract SNDRStrategy is BaseStrategy, Ownable, ReentrancyGuard {... */\n      dup6\n      mstore\n      dup2\n      0x40\n      dup3\n      keccak256\n      sload\n      and\n      tag_352\n      jumpi\n      mload(0x40)\n      tag_354\n      dup2\n      tag_1\n      jump\t// in\n    tag_354:\n      dup5\n      dup2\n      mstore\n        /* \"src/SNDRStrategy.sol\":5537:5690  Recipient({... */\n      dup6\n      dup2\n      add\n        /* \"src/SNDRStrategy.sol\":825:13863  contract SNDRStrategy is BaseStrategy, Ownable, ReentrancyGuard {... */\n      dup5\n      dup2\n      mstore\n      0x40\n        /* \"src/SNDRStrategy.sol\":5537:5690  Recipient({... */\n      dup3\n      add\n        /* \"src/SNDRStrategy.sol\":825:13863  contract SNDRStrategy is BaseStrategy, Ownable, ReentrancyGuard {... */\n      swap1\n      0x01\n      dup3\n      mstore\n      dup7\n      dup5\n      mstore\n        /* \"src/SNDRStrategy.sol\":5382:5392  recipients */\n      0x07\n        /* \"src/SNDRStrategy.sol\":825:13863  contract SNDRStrategy is BaseStrategy, Ownable, ReentrancyGuard {... */\n      dup9\n      mstore\n      dup5\n      0x40\n      dup6\n      keccak256\n      swap4\n      mload\n      and\n      shl(0xa0, 0xffffffffffffffffffffffff)\n      dup5\n      sload\n      and\n      or\n      dup4\n      sstore\n      mload\n      0x01\n      dup4\n      add\n      sstore\n      mload\n      swap1\n        /* \"src/SNDRStrategy.sol\":5382:5392  recipients */\n      0x07\n        /* \"src/SNDRStrategy.sol\":825:13863  contract SNDRStrategy is BaseStrategy, Ownable, ReentrancyGuard {... */\n      dup3\n      lt\n      iszero\n      tag_355\n      jumpi\n      swap1\n      0x02\n      tag_357\n      swap3\n      add\n      tag_19\n      jump\t// in\n    tag_357:\n        /* \"src/SNDRStrategy.sol\":5700:5713  recipientList */\n      0x08\n        /* \"src/SNDRStrategy.sol\":825:13863  contract SNDRStrategy is BaseStrategy, Ownable, ReentrancyGuard {... */\n      sload\n      swap1\n      shl(0x40, 0x01)\n      dup3\n      lt\n      iszero\n      tag_358\n      jumpi\n      pop\n      dup4\n      swap3\n        /* \"src/SNDRStrategy.sol\":5752:5808  RecipientRegistered(recipientAddress, initialAllocation) */\n      0x0695e999be8100bdb5bee8612337296508d527eae78c65b8f170eacb5a3b439d\n        /* \"src/SNDRStrategy.sol\":825:13863  contract SNDRStrategy is BaseStrategy, Ownable, ReentrancyGuard {... */\n      swap3\n      tag_360\n      dup4\n      0x01\n      dup10\n      swap6\n      add\n        /* \"src/SNDRStrategy.sol\":5700:5713  recipientList */\n      0x08\n        /* \"src/SNDRStrategy.sol\":825:13863  contract SNDRStrategy is BaseStrategy, Ownable, ReentrancyGuard {... */\n      sstore\n      tag_9\n      jump\t// in\n    tag_360:\n      dup2\n      swap3\n      swap2\n      sload\n      swap1\n      0x03\n      shl\n      swap2\n      dup8\n      dup4\n      shl\n      swap3\n      shl\n      not\n      and\n      or\n      swap1\n      sstore\n      mload(0x40)\n      swap1\n      dup2\n      mstore\n        /* \"src/SNDRStrategy.sol\":5752:5808  RecipientRegistered(recipientAddress, initialAllocation) */\n      log2\n        /* \"src/SNDRStrategy.sol\":825:13863  contract SNDRStrategy is BaseStrategy, Ownable, ReentrancyGuard {... */\n      dup1\n        /* \"src/SNDRStrategy.sol\":5823:5879  RecipientStatusUpdated(recipientAddress, Status.Pending) */\n      0x256c90eeec0565314afb6bdf67c3a909a88bd142e40d03c91a1f68e2a6bc35db\n        /* \"src/SNDRStrategy.sol\":825:13863  contract SNDRStrategy is BaseStrategy, Ownable, ReentrancyGuard {... */\n      dup4\n      mload(0x40)\n      0x01\n      dup2\n      mstore\n        /* \"src/SNDRStrategy.sol\":5823:5879  RecipientStatusUpdated(recipientAddress, Status.Pending) */\n      log2\n        /* \"src/SNDRStrategy.sol\":825:13863  contract SNDRStrategy is BaseStrategy, Ownable, ReentrancyGuard {... */\n      sstore(0x04, 0x01)\n      mload(0x40)\n      swap1\n      dup2\n      mstore\n      return\n    tag_358:\n      shl(0xe0, 0x4e487b71)\n      dup2\n      mstore\n      mstore(0x04, 0x41)\n      0x24\n      swap1\n      revert\n    tag_355:\n      shl(0xe0, 0x4e487b71)\n      dup4\n      mstore\n      mstore(0x04, 0x21)\n      0x24\n      dup4\n      revert\n    tag_352:\n      mload(0x40)\n      shl(0xe5, 0x461bcd)\n      dup2\n      mstore\n      0x04\n      dup2\n      add\n      dup7\n      swap1\n      mstore\n      0x1c\n      0x24\n      dup3\n      add\n      mstore\n      0x526563697069656e7420616c7265616479207265676973746572656400000000\n      0x44\n      dup3\n      add\n      mstore\n      0x64\n      swap1\n      revert\n    tag_345:\n      mload(0x40)\n      shl(0xe5, 0x461bcd)\n      dup2\n      mstore\n      0x20\n      0x04\n      dup3\n      add\n      mstore\n      0x1a\n      0x24\n      dup3\n      add\n      mstore\n      0x526567697374726174696f6e206973206e6f7420616374697665000000000000\n      0x44\n      dup3\n      add\n      mstore\n      0x64\n      swap1\n      revert\n        /* \"src/SNDRStrategy.sol\":13094:13192  block.timestamp >= registrationStartTime &&... */\n    tag_343:\n        /* \"src/SNDRStrategy.sol\":825:13863  contract SNDRStrategy is BaseStrategy, Ownable, ReentrancyGuard {... */\n      0x40\n      shr\n      and\n        /* \"src/SNDRStrategy.sol\":13094:13109  block.timestamp */\n      timestamp\n        /* \"src/SNDRStrategy.sol\":13154:13192  block.timestamp <= registrationEndTime */\n      gt\n      iszero\n      swap1\n      pop\n        /* \"src/SNDRStrategy.sol\":13094:13192  block.timestamp >= registrationStartTime &&... */\n      codesize\n      dup1\n      jump(tag_344)\n        /* \"src/SNDRStrategy.sol\":825:13863  contract SNDRStrategy is BaseStrategy, Ownable, ReentrancyGuard {... */\n    tag_40:\n      pop\n      jumpi(tag_96, callvalue)\n      jumpi(tag_96, slt(add(not(0x03), calldatasize), 0x80))\n      calldataload(0x04)\n      sub(shl(0x40, 0x01), 0x01)\n      dup1\n      dup3\n      and\n      dup3\n      sub\n      tag_290\n      jumpi\n      calldataload(0x24)\n      dup2\n      dup2\n      and\n      dup2\n      sub\n      tag_290\n      jumpi\n      calldataload(0x44)\n      swap1\n      dup3\n      dup3\n      and\n      dup3\n      sub\n      tag_290\n      jumpi\n      calldataload(0x64)\n      swap3\n      dup4\n      and\n      dup4\n      sub\n      tag_290\n      jumpi\n        /* \"src/SNDRStrategy.sol\":11754:11772  _allocationEndTime */\n      tag_183\n        /* \"lib/allo-v2/lib/openzeppelin-contracts/contracts/access/Ownable.sol\":1063:1125  modifier onlyOwner() {... */\n      swap4\n      tag_374\n      tag_16\n      jump\t// in\n    tag_374:\n        /* \"src/SNDRStrategy.sol\":11754:11772  _allocationEndTime */\n      tag_18\n      jump\t// in\n        /* \"src/SNDRStrategy.sol\":825:13863  contract SNDRStrategy is BaseStrategy, Ownable, ReentrancyGuard {... */\n    tag_38:\n      pop\n      jumpi(tag_96, callvalue)\n      dup1\n      add(calldatasize, not(0x03))\n      slt\n      tag_96\n      jumpi\n        /* \"src/SNDRStrategy.sol\":928:953  ISNDRCore public sndrCore */\n      0x05\n        /* \"src/SNDRStrategy.sol\":825:13863  contract SNDRStrategy is BaseStrategy, Ownable, ReentrancyGuard {... */\n      sload\n      mload(0x40)\n      sub(shl(0xa0, 0x01), 0x01)\n      swap1\n      swap2\n      and\n      dup2\n      mstore\n      0x20\n      swap1\n      return\n    tag_36:\n      pop\n      jumpi(tag_96, callvalue)\n      dup1\n      add(calldatasize, not(0x03))\n      slt\n      tag_96\n      jumpi\n      mload(0x40)\n        /* \"lib/allo-v2/contracts/strategies/BaseStrategy.sol\":6860:6864  allo */\n      immutable(\"0xbd0af7246ac7aa3e59281abc6e001c8d20085f3ebd8f2bcaf145913d94136a44\")\n      sub(shl(0xa0, 0x01), 0x01)\n        /* \"src/SNDRStrategy.sol\":825:13863  contract SNDRStrategy is BaseStrategy, Ownable, ReentrancyGuard {... */\n      and\n      dup2\n      mstore\n      0x20\n      swap1\n      return\n    tag_34:\n      pop\n      jumpi(tag_96, callvalue)\n      jumpi(tag_96, slt(add(not(0x03), calldatasize), 0x20))\n      calldataload(0x04)\n        /* \"src/SNDRStrategy.sol\":1194:1232  address[] public whitelistedCollectors */\n      0x09\n        /* \"src/SNDRStrategy.sol\":825:13863  contract SNDRStrategy is BaseStrategy, Ownable, ReentrancyGuard {... */\n      sload\n        /* \"src/SNDRStrategy.sol\":1194:1232  address[] public whitelistedCollectors */\n      dup2\n      lt\n      iszero\n      tag_180\n      jumpi\n      0x09\n        /* \"src/SNDRStrategy.sol\":825:13863  contract SNDRStrategy is BaseStrategy, Ownable, ReentrancyGuard {... */\n      0x00\n      mstore\n      0x00\n      dup1\n      mload\n      0x20\n      data_aef723aaf2a9471d0444688035cd22ee9e9408f4d3390ce0a2a80b76aeab390a\n      dup4\n      codecopy\n      dup2\n      mload\n      swap2\n      mstore\n      add\n      sload\n      mload(0x40)\n      sub(shl(0xa0, 0x01), 0x01)\n      swap1\n      swap2\n      and\n      dup2\n      mstore\n      0x20\n      swap1\n      return\n    tag_32:\n      pop\n      jumpi(tag_96, callvalue)\n      jumpi(tag_96, slt(add(not(0x03), calldatasize), 0x60))\n      calldataload(0x04)\n      sub(shl(0x40, 0x01), 0x01)\n      dup2\n      gt\n      tag_180\n      jumpi\n      tag_395\n      swap1\n      calldatasize\n      swap1\n      0x04\n      add\n      tag_6\n      jump\t// in\n    tag_395:\n      calldataload(0x24)\n      sub(shl(0x40, 0x01), 0x01)\n      dup2\n      gt\n      tag_135\n      jumpi\n      tag_398\n      swap1\n      calldatasize\n      swap1\n      0x04\n      add\n      tag_8\n      jump\t// in\n    tag_398:\n      calldataload(0x44)\n      sub(shl(0xa0, 0x01), 0x01)\n      dup2\n      and\n      dup2\n      sub\n      tag_133\n      jumpi\n        /* \"lib/allo-v2/contracts/strategies/BaseStrategy.sol\":5630:5694  modifier onlyAllo() {... */\n      tag_401\n      tag_14\n      jump\t// in\n    tag_401:\n        /* \"lib/allo-v2/contracts/strategies/BaseStrategy.sol\":6495:6573  modifier onlyInitialized() {... */\n      tag_402\n      tag_15\n      jump\t// in\n    tag_402:\n        /* \"src/SNDRStrategy.sol\":13769:13786  allocationEndTime */\n      0x0a\n        /* \"src/SNDRStrategy.sol\":825:13863  contract SNDRStrategy is BaseStrategy, Ownable, ReentrancyGuard {... */\n      sload\n      0xc0\n      shr\n        /* \"src/SNDRStrategy.sol\":13751:13766  block.timestamp */\n      timestamp\n        /* \"src/SNDRStrategy.sol\":13751:13786  block.timestamp > allocationEndTime */\n      gt\n        /* \"src/SNDRStrategy.sol\":825:13863  contract SNDRStrategy is BaseStrategy, Ownable, ReentrancyGuard {... */\n      iszero\n      tag_403\n      jumpi\n        /* \"lib/allo-v2/contracts/strategies/BaseStrategy.sol\":5976:5983  _sender */\n      tag_405\n        /* \"lib/allo-v2/lib/openzeppelin-contracts/contracts/security/ReentrancyGuard.sol\":2227:2330  modifier nonReentrant() {... */\n      swap1\n      tag_406\n      tag_20\n      jump\t// in\n    tag_406:\n        /* \"lib/allo-v2/contracts/strategies/BaseStrategy.sol\":5976:5983  _sender */\n      tag_24\n      jump\t// in\n    tag_405:\n        /* \"src/SNDRStrategy.sol\":825:13863  contract SNDRStrategy is BaseStrategy, Ownable, ReentrancyGuard {... */\n      0x20\n      dup2\n      dup1\n      mload\n        /* \"src/SNDRStrategy.sol\":8321:8349  abi.decode(_data, (uint256)) */\n      dup2\n      add\n        /* \"src/SNDRStrategy.sol\":825:13863  contract SNDRStrategy is BaseStrategy, Ownable, ReentrancyGuard {... */\n      sub\n      slt\n      tag_135\n      jumpi\n      0x20\n        /* \"src/SNDRStrategy.sol\":8321:8349  abi.decode(_data, (uint256)) */\n      add\n        /* \"src/SNDRStrategy.sol\":825:13863  contract SNDRStrategy is BaseStrategy, Ownable, ReentrancyGuard {... */\n      mload\n      swap1\n      dup1\n      mload\n      tag_409\n      dup2\n      tag_4\n      jump\t// in\n    tag_409:\n      swap1\n      tag_410\n      mload(0x40)\n      swap3\n      dup4\n      tag_3\n      jump\t// in\n    tag_410:\n      dup1\n      dup3\n      mstore\n      tag_411\n      not(0x1f)\n      swap2\n      tag_4\n      jump\t// in\n    tag_411:\n      add\n      calldatasize\n      0x20\n      dup4\n      add\n      calldatacopy\n        /* \"src/SNDRStrategy.sol\":8471:8498  uint256 totalAllocation = 0 */\n      dup4\n      swap2\n      dup3\n        /* \"src/SNDRStrategy.sol\":8554:8557  i++ */\n    tag_412:\n        /* \"src/SNDRStrategy.sol\":825:13863  contract SNDRStrategy is BaseStrategy, Ownable, ReentrancyGuard {... */\n      dup2\n      mload\n        /* \"src/SNDRStrategy.sol\":8528:8552  i < _recipientIds.length */\n      dup5\n      lt\n      iszero\n      tag_413\n      jumpi\n        /* \"src/SNDRStrategy.sol\":8554:8557  i++ */\n      tag_416\n      swap1\n        /* \"src/SNDRStrategy.sol\":8648:8681  totalAllocation += allocations[i] */\n      tag_415\n      swap1\n      sub(shl(0xa0, 0x01), 0x01)\n        /* \"src/SNDRStrategy.sol\":8601:8617  _recipientIds[i] */\n      tag_417\n      dup8\n      dup7\n      tag_13\n      jump\t// in\n    tag_417:\n        /* \"src/SNDRStrategy.sol\":825:13863  contract SNDRStrategy is BaseStrategy, Ownable, ReentrancyGuard {... */\n      mload\n      and\n      dup9\n      mstore\n        /* \"src/SNDRStrategy.sol\":8590:8600  recipients */\n      0x07\n        /* \"src/SNDRStrategy.sol\":825:13863  contract SNDRStrategy is BaseStrategy, Ownable, ReentrancyGuard {... */\n      0x20\n      mstore\n      0x01\n      0x40\n      dup10\n      keccak256\n        /* \"src/SNDRStrategy.sol\":8590:8634  recipients[_recipientIds[i]].totalAllocation */\n      add\n        /* \"src/SNDRStrategy.sol\":825:13863  contract SNDRStrategy is BaseStrategy, Ownable, ReentrancyGuard {... */\n      sload\n        /* \"src/SNDRStrategy.sol\":8573:8634  allocations[i] = recipients[_recipientIds[i]].totalAllocation */\n      tag_418\n      dup8\n      dup8\n      tag_13\n      jump\t// in\n    tag_418:\n        /* \"src/SNDRStrategy.sol\":825:13863  contract SNDRStrategy is BaseStrategy, Ownable, ReentrancyGuard {... */\n      mstore\n        /* \"src/SNDRStrategy.sol\":8667:8681  allocations[i] */\n      tag_419\n      dup7\n      dup7\n      tag_13\n      jump\t// in\n    tag_419:\n        /* \"src/SNDRStrategy.sol\":825:13863  contract SNDRStrategy is BaseStrategy, Ownable, ReentrancyGuard {... */\n      mload\n        /* \"src/SNDRStrategy.sol\":8648:8681  totalAllocation += allocations[i] */\n      swap1\n      tag_12\n      jump\t// in\n    tag_415:\n        /* \"src/SNDRStrategy.sol\":8554:8557  i++ */\n      swap4\n      tag_21\n      jump\t// in\n    tag_416:\n        /* \"src/SNDRStrategy.sol\":8513:8526  uint256 i = 0 */\n      swap3\n      jump(tag_412)\n        /* \"src/SNDRStrategy.sol\":8528:8552  i < _recipientIds.length */\n    tag_413:\n      dup5\n      dup7\n      swap4\n        /* \"src/SNDRStrategy.sol\":825:13863  contract SNDRStrategy is BaseStrategy, Ownable, ReentrancyGuard {... */\n      dup3\n        /* \"src/SNDRStrategy.sol\":8709:8719  poolAmount */\n      0x02\n        /* \"src/SNDRStrategy.sol\":825:13863  contract SNDRStrategy is BaseStrategy, Ownable, ReentrancyGuard {... */\n      sload\n        /* \"src/SNDRStrategy.sol\":8709:8738  poolAmount >= totalAllocation */\n      lt\n        /* \"src/SNDRStrategy.sol\":825:13863  contract SNDRStrategy is BaseStrategy, Ownable, ReentrancyGuard {... */\n      tag_420\n      jumpi\n        /* \"src/SNDRStrategy.sol\":8870:8875  token */\n      0x06\n        /* \"src/SNDRStrategy.sol\":825:13863  contract SNDRStrategy is BaseStrategy, Ownable, ReentrancyGuard {... */\n      sload\n        /* \"src/SNDRStrategy.sol\":8897:8905  sndrCore */\n      0x05\n        /* \"src/SNDRStrategy.sol\":825:13863  contract SNDRStrategy is BaseStrategy, Ownable, ReentrancyGuard {... */\n      sload\n        /* \"src/SNDRStrategy.sol\":8908:8923  totalAllocation */\n      tag_422\n      swap2\n        /* \"src/SNDRStrategy.sol\":825:13863  contract SNDRStrategy is BaseStrategy, Ownable, ReentrancyGuard {... */\n      dup6\n      swap2\n      sub(shl(0xa0, 0x01), 0x01)\n      swap1\n      dup2\n      and\n      swap2\n      and\n        /* \"src/SNDRStrategy.sol\":8908:8923  totalAllocation */\n      tag_26\n      jump\t// in\n    tag_422:\n        /* \"src/SNDRStrategy.sol\":8897:8905  sndrCore */\n      0x05\n        /* \"src/SNDRStrategy.sol\":825:13863  contract SNDRStrategy is BaseStrategy, Ownable, ReentrancyGuard {... */\n      sload\n      sload(0x01)\n        /* \"src/SNDRStrategy.sol\":8870:8875  token */\n      0x06\n        /* \"src/SNDRStrategy.sol\":825:13863  contract SNDRStrategy is BaseStrategy, Ownable, ReentrancyGuard {... */\n      sload\n      swap1\n      swap4\n      sub(shl(0xa0, 0x01), 0x01)\n      swap3\n      dup4\n      and\n      swap4\n      swap3\n      swap1\n      swap2\n      and\n        /* \"src/SNDRStrategy.sol\":8982:9167  sndrCore.handleDistribution(... */\n      dup4\n      extcodesize\n      iszero\n      tag_166\n      jumpi\n        /* \"src/SNDRStrategy.sol\":825:13863  contract SNDRStrategy is BaseStrategy, Ownable, ReentrancyGuard {... */\n      mload(0x40)\n      shl(0xe6, 0x8cd625)\n        /* \"src/SNDRStrategy.sol\":8982:9167  sndrCore.handleDistribution(... */\n      dup2\n      mstore\n        /* \"src/SNDRStrategy.sol\":825:13863  contract SNDRStrategy is BaseStrategy, Ownable, ReentrancyGuard {... */\n      0x04\n        /* \"src/SNDRStrategy.sol\":8982:9167  sndrCore.handleDistribution(... */\n      dup2\n      add\n        /* \"src/SNDRStrategy.sol\":825:13863  contract SNDRStrategy is BaseStrategy, Ownable, ReentrancyGuard {... */\n      swap6\n      swap1\n      swap6\n      mstore\n      0x24\n      dup6\n      add\n      mstore\n      0xc0\n      0x44\n      dup6\n      add\n      mstore\n      dup7\n      swap3\n      dup5\n      swap3\n      swap1\n      swap2\n      tag_425\n      0xc4\n      dup6\n      add\n      dup10\n      tag_25\n      jump\t// in\n    tag_425:\n      not(0x03)\n      dup6\n      dup3\n      sub\n      add\n      0x64\n      dup7\n      add\n      mstore\n      0x20\n      dup1\n      dup5\n      mload\n      swap3\n      dup4\n      dup2\n      mstore\n      add\n      swap4\n      add\n      swap1\n      dup7\n    tag_426:\n      dup2\n      dup2\n      lt\n      tag_427\n      jumpi\n      pop\n      pop\n      pop\n      0x84\n      dup5\n      add\n      mstore\n      not(0x03)\n      dup4\n      dup3\n      sub\n      add\n      0xa4\n      dup5\n      add\n      mstore\n      0x20\n        /* \"src/SNDRStrategy.sol\":9136:9157  whitelistedCollectors */\n      0x09\n        /* \"src/SNDRStrategy.sol\":825:13863  contract SNDRStrategy is BaseStrategy, Ownable, ReentrancyGuard {... */\n      sload\n      swap2\n      dup3\n      dup2\n      mstore\n      add\n      swap1\n        /* \"src/SNDRStrategy.sol\":9136:9157  whitelistedCollectors */\n      0x09\n        /* \"src/SNDRStrategy.sol\":825:13863  contract SNDRStrategy is BaseStrategy, Ownable, ReentrancyGuard {... */\n      dup6\n      mstore\n      0x00\n      dup1\n      mload\n      0x20\n      data_aef723aaf2a9471d0444688035cd22ee9e9408f4d3390ce0a2a80b76aeab390a\n      dup4\n      codecopy\n      dup2\n      mload\n      swap2\n      mstore\n      swap1\n      dup6\n    tag_429:\n      dup2\n      dup2\n      lt\n      tag_430\n      jumpi\n        /* \"src/SNDRStrategy.sol\":8982:9167  sndrCore.handleDistribution(... */\n      pop\n      pop\n      pop\n      dup4\n      dup4\n      dup1\n      swap3\n      sub\n      swap3\n      gas\n      call\n      dup1\n      iszero\n      tag_280\n      jumpi\n      tag_434\n      jumpi\n        /* \"src/SNDRStrategy.sol\":825:13863  contract SNDRStrategy is BaseStrategy, Ownable, ReentrancyGuard {... */\n    tag_435:\n      pop\n        /* \"src/SNDRStrategy.sol\":9183:9235  DistributionExecuted(_recipientIds, totalAllocation) */\n      0x6215df0421b8b71ffbc92898b478b5ad9520ec5034d7c686bbdc7afdfad068e8\n        /* \"src/SNDRStrategy.sol\":825:13863  contract SNDRStrategy is BaseStrategy, Ownable, ReentrancyGuard {... */\n      swap2\n      tag_436\n      swap2\n      mload(0x40)\n      swap3\n      dup4\n      swap3\n      0x40\n      dup5\n      mstore\n      0x40\n      dup5\n      add\n      swap1\n      tag_25\n      jump\t// in\n    tag_436:\n      swap1\n      0x20\n      dup4\n      add\n      mstore\n        /* \"src/SNDRStrategy.sol\":9183:9235  DistributionExecuted(_recipientIds, totalAllocation) */\n      sub\n      swap1\n      log1\n        /* \"src/SNDRStrategy.sol\":825:13863  contract SNDRStrategy is BaseStrategy, Ownable, ReentrancyGuard {... */\n      sstore(0x04, 0x01)\n      dup1\n      return\n        /* \"src/SNDRStrategy.sol\":8982:9167  sndrCore.handleDistribution(... */\n    tag_434:\n      sub(shl(0x40, 0x01), 0x01)\n        /* \"src/SNDRStrategy.sol\":825:13863  contract SNDRStrategy is BaseStrategy, Ownable, ReentrancyGuard {... */\n      dup2\n      swap5\n      swap3\n      swap5\n      gt\n      tag_437\n      jumpi\n      0x40\n      mstore\n      swap2\n        /* \"src/SNDRStrategy.sol\":9183:9235  DistributionExecuted(_recipientIds, totalAllocation) */\n      0x6215df0421b8b71ffbc92898b478b5ad9520ec5034d7c686bbdc7afdfad068e8\n        /* \"src/SNDRStrategy.sol\":8982:9167  sndrCore.handleDistribution(... */\n      jump(tag_435)\n        /* \"src/SNDRStrategy.sol\":825:13863  contract SNDRStrategy is BaseStrategy, Ownable, ReentrancyGuard {... */\n    tag_437:\n      shl(0xe0, 0x4e487b71)\n      dup3\n      mstore\n      mstore(0x04, 0x41)\n      0x24\n      dup3\n      revert\n    tag_430:\n      dup3\n      sload\n      sub(shl(0xa0, 0x01), 0x01)\n      and\n      dup5\n      mstore\n      dup11\n      swap7\n      pop\n      dup8\n      swap6\n      pop\n      0x20\n      swap1\n      swap4\n      add\n      swap3\n      0x01\n      swap3\n      dup4\n      add\n      swap3\n      add\n      jump(tag_429)\n    tag_427:\n      dup3\n      mload\n      dup6\n      mstore\n      dup12\n      swap8\n      pop\n      dup9\n      swap7\n      pop\n      0x20\n      swap5\n      dup6\n      add\n      swap5\n      swap1\n      swap3\n      add\n      swap2\n      0x01\n      add\n      jump(tag_426)\n    tag_420:\n      mload(0x40)\n      shl(0xe5, 0x461bcd)\n      dup2\n      mstore\n      0x20\n      0x04\n      dup3\n      add\n      mstore\n      0x1d\n      0x24\n      dup3\n      add\n      mstore\n      0x506f6f6c20616c6c6f636174696f6e2066756e647320746f6f206c6f77000000\n      0x44\n      dup3\n      add\n      mstore\n      0x64\n      swap1\n      revert\n    tag_403:\n      mload(0x40)\n      shl(0xe5, 0x461bcd)\n      dup2\n      mstore\n      0x20\n      0x04\n      dup3\n      add\n      mstore\n      0x1f\n      0x24\n      dup3\n      add\n      mstore\n      0x416c6c6f636174696f6e20706572696f6420686173206e6f7420656e64656400\n      0x44\n      dup3\n      add\n      mstore\n      0x64\n      swap1\n      revert\n    tag_30:\n      pop\n      jumpi(tag_96, callvalue)\n      0x20\n      swap1\n      dup2\n      add(calldatasize, not(0x03))\n      slt\n      tag_96\n      jumpi\n      sub(shl(0x40, 0x01), 0x01)\n      calldataload(0x04)\n      dup2\n      dup2\n      gt\n      tag_135\n      jumpi\n      tag_445\n      swap1\n      calldatasize\n      swap1\n      0x04\n      add\n      tag_6\n      jump\t// in\n    tag_445:\n        /* \"lib/allo-v2/lib/openzeppelin-contracts/contracts/access/Ownable.sol\":1063:1125  modifier onlyOwner() {... */\n      swap1\n      tag_446\n      tag_16\n      jump\t// in\n    tag_446:\n        /* \"src/SNDRStrategy.sol\":825:13863  contract SNDRStrategy is BaseStrategy, Ownable, ReentrancyGuard {... */\n      dup2\n      mload\n      swap1\n      dup2\n      gt\n      tag_449\n      jumpi\n      shl(0x40, 0x01)\n      dup2\n      gt\n      tag_449\n      jumpi\n        /* \"src/SNDRStrategy.sol\":10980:11029  whitelistedCollectors = _newWhitelistedCollectors */\n      0x09\n        /* \"src/SNDRStrategy.sol\":825:13863  contract SNDRStrategy is BaseStrategy, Ownable, ReentrancyGuard {... */\n      sload\n      dup2\n        /* \"src/SNDRStrategy.sol\":10980:11029  whitelistedCollectors = _newWhitelistedCollectors */\n      0x09\n        /* \"src/SNDRStrategy.sol\":825:13863  contract SNDRStrategy is BaseStrategy, Ownable, ReentrancyGuard {... */\n      sstore\n      dup1\n      dup3\n      lt\n      tag_451\n      jumpi\n    tag_452:\n      pop\n      dup4\n      dup3\n      add\n        /* \"src/SNDRStrategy.sol\":10980:11029  whitelistedCollectors = _newWhitelistedCollectors */\n      0x09\n        /* \"src/SNDRStrategy.sol\":825:13863  contract SNDRStrategy is BaseStrategy, Ownable, ReentrancyGuard {... */\n      dup5\n      mstore\n      dup4\n    tag_453:\n      dup3\n      dup2\n      lt\n      tag_454\n      jumpi\n      mload(0x40)\n      dup7\n      dup2\n      mstore\n      dup6\n      swap1\n        /* \"src/SNDRStrategy.sol\":11044:11099  WhitelistedCollectorsUpdated(_newWhitelistedCollectors) */\n      0x0ba55fca14ca25313d8196abbee269381ad67be27729f5073609a3eb9318391a\n      swap1\n        /* \"src/SNDRStrategy.sol\":825:13863  contract SNDRStrategy is BaseStrategy, Ownable, ReentrancyGuard {... */\n      dup1\n      tag_456\n      dup2\n      dup12\n      add\n      dup10\n      tag_25\n      jump\t// in\n    tag_456:\n        /* \"src/SNDRStrategy.sol\":11044:11099  WhitelistedCollectorsUpdated(_newWhitelistedCollectors) */\n      sub\n      swap1\n      log1\n        /* \"src/SNDRStrategy.sol\":825:13863  contract SNDRStrategy is BaseStrategy, Ownable, ReentrancyGuard {... */\n      dup1\n      return\n    tag_454:\n      dup2\n      mload\n      sub(shl(0xa0, 0x01), 0x01)\n      and\n      0x00\n      dup1\n      mload\n      0x20\n      data_aef723aaf2a9471d0444688035cd22ee9e9408f4d3390ce0a2a80b76aeab390a\n      dup4\n      codecopy\n      dup2\n      mload\n      swap2\n      mstore\n      dup3\n      add\n      sstore\n      swap1\n      dup6\n      add\n      swap1\n      0x01\n      add\n      jump(tag_453)\n    tag_451:\n      dup2\n      0x00\n      dup1\n      mload\n      0x20\n      data_aef723aaf2a9471d0444688035cd22ee9e9408f4d3390ce0a2a80b76aeab390a\n      dup4\n      codecopy\n      dup2\n      mload\n      swap2\n      mstore\n      swap2\n      dup3\n      add\n      swap2\n      add\n    tag_457:\n      dup2\n      dup2\n      lt\n      tag_458\n      jumpi\n      pop\n      jump(tag_452)\n    tag_458:\n      dup5\n      dup2\n      sstore\n      0x01\n      add\n      jump(tag_457)\n    tag_449:\n      shl(0xe0, 0x4e487b71)\n      dup4\n      mstore\n      mstore(0x04, 0x41)\n      0x24\n      dup4\n      revert\n    tag_1:\n      0x60\n      dup2\n      add\n      swap1\n      dup2\n      lt\n      sub(shl(0x40, 0x01), 0x01)\n      dup3\n      gt\n      or\n      tag_460\n      jumpi\n      0x40\n      mstore\n      jump\t// out\n    tag_460:\n      mstore(0x00, shl(0xe0, 0x4e487b71))\n      mstore(0x04, 0x41)\n      revert(0x00, 0x24)\n    tag_2:\n      0x40\n      dup2\n      add\n      swap1\n      dup2\n      lt\n      sub(shl(0x40, 0x01), 0x01)\n      dup3\n      gt\n      or\n      tag_460\n      jumpi\n      0x40\n      mstore\n      jump\t// out\n    tag_3:\n      swap1\n      0x1f\n      dup1\n      not\n      swap2\n      add\n      and\n      dup2\n      add\n      swap1\n      dup2\n      lt\n      sub(shl(0x40, 0x01), 0x01)\n      dup3\n      gt\n      or\n      tag_460\n      jumpi\n      0x40\n      mstore\n      jump\t// out\n    tag_4:\n      sub(shl(0x40, 0x01), 0x01)\n      dup2\n      gt\n      tag_460\n      jumpi\n      0x05\n      shl\n      0x20\n      add\n      swap1\n      jump\t// out\n    tag_5:\n      calldataload(0x04)\n      swap1\n      sub(shl(0xa0, 0x01), 0x01)\n      dup3\n      and\n      dup3\n      sub\n      tag_290\n      jumpi\n      jump\t// out\n    tag_6:\n      dup2\n      0x1f\n      dup3\n      add\n      slt\n      iszero\n      tag_290\n      jumpi\n      dup1\n      calldataload\n      swap2\n      tag_472\n      dup4\n      tag_4\n      jump\t// in\n    tag_472:\n      swap3\n      tag_473\n      mload(0x40)\n      swap5\n      dup6\n      tag_3\n      jump\t// in\n    tag_473:\n      dup1\n      dup5\n      mstore\n      0x20\n      swap3\n      dup4\n      dup1\n      dup7\n      add\n      swap3\n      0x05\n      shl\n      dup3\n      add\n      add\n      swap3\n      dup4\n      gt\n      tag_290\n      jumpi\n      dup4\n      add\n      swap1\n    tag_476:\n      dup3\n      dup3\n      lt\n      tag_477\n      jumpi\n      pop\n      pop\n      pop\n      pop\n      swap1\n      jump\t// out\n    tag_477:\n      dup2\n      calldataload\n      sub(shl(0xa0, 0x01), 0x01)\n      dup2\n      and\n      dup2\n      sub\n      tag_290\n      jumpi\n      dup2\n      mstore\n      swap1\n      dup4\n      add\n      swap1\n      dup4\n      add\n      jump(tag_476)\n    tag_7:\n      sub(shl(0x40, 0x01), 0x01)\n      dup2\n      gt\n      tag_460\n      jumpi\n      0x1f\n      add\n      not(0x1f)\n      and\n      0x20\n      add\n      swap1\n      jump\t// out\n    tag_8:\n      dup2\n      0x1f\n      dup3\n      add\n      slt\n      iszero\n      tag_290\n      jumpi\n      dup1\n      calldataload\n      swap1\n      tag_485\n      dup3\n      tag_7\n      jump\t// in\n    tag_485:\n      swap3\n      tag_486\n      mload(0x40)\n      swap5\n      dup6\n      tag_3\n      jump\t// in\n    tag_486:\n      dup3\n      dup5\n      mstore\n      0x20\n      dup4\n      dup4\n      add\n      add\n      gt\n      tag_290\n      jumpi\n      dup2\n      0x00\n      swap3\n      0x20\n      dup1\n      swap4\n      add\n      dup4\n      dup7\n      add\n      calldatacopy\n      dup4\n      add\n      add\n      mstore\n      swap1\n      jump\t// out\n    tag_9:\n        /* \"src/SNDRStrategy.sol\":5700:5713  recipientList */\n      0x08\n        /* \"src/SNDRStrategy.sol\":825:13863  contract SNDRStrategy is BaseStrategy, Ownable, ReentrancyGuard {... */\n      sload\n      dup2\n      lt\n      iszero\n      tag_489\n      jumpi\n        /* \"src/SNDRStrategy.sol\":5700:5713  recipientList */\n      0x08\n      0x00\n        /* \"src/SNDRStrategy.sol\":825:13863  contract SNDRStrategy is BaseStrategy, Ownable, ReentrancyGuard {... */\n      mstore\n      0xf3f7a9fe364faab93b216da50a3214154f22a0a2b415b23a84c8169e8b636ee3\n      add\n      swap1\n      0x00\n      swap1\n      jump\t// out\n    tag_489:\n      mstore(0x00, shl(0xe0, 0x4e487b71))\n      mstore(0x04, 0x32)\n      revert(0x00, 0x24)\n    tag_10:\n      0x40\n      not(0x03)\n      dup3\n      add\n      slt\n      tag_290\n      jumpi\n      calldataload(0x04)\n      swap1\n      sub(shl(0x40, 0x01), 0x01)\n      dup3\n      gt\n      tag_290\n      jumpi\n      tag_495\n      swap2\n      0x04\n      add\n      tag_8\n      jump\t// in\n    tag_495:\n      swap1\n      calldataload(0x24)\n      sub(shl(0xa0, 0x01), 0x01)\n      dup2\n      and\n      dup2\n      sub\n      tag_290\n      jumpi\n      swap1\n      jump\t// out\n    tag_11:\n      swap1\n      0x07\n      dup3\n      lt\n      iszero\n      tag_218\n      jumpi\n      mstore\n      jump\t// out\n    tag_12:\n      swap2\n      swap1\n      dup3\n      add\n      dup1\n      swap3\n      gt\n      tag_500\n      jumpi\n      jump\t// out\n    tag_500:\n      mstore(0x00, shl(0xe0, 0x4e487b71))\n      mstore(0x04, 0x11)\n      revert(0x00, 0x24)\n    tag_13:\n      dup1\n      mload\n      dup3\n      lt\n      iszero\n      tag_489\n      jumpi\n      0x20\n      swap2\n      0x05\n      shl\n      add\n      add\n      swap1\n      jump\t// out\n        /* \"lib/allo-v2/contracts/strategies/BaseStrategy.sol\":12814:12925  function _checkOnlyAllo() internal view {... */\n    tag_14:\n        /* \"lib/allo-v2/contracts/strategies/BaseStrategy.sol\":12890:12894  allo */\n      immutable(\"0xbd0af7246ac7aa3e59281abc6e001c8d20085f3ebd8f2bcaf145913d94136a44\")\n      sub(shl(0xa0, 0x01), 0x01)\n        /* \"src/SNDRStrategy.sol\":825:13863  contract SNDRStrategy is BaseStrategy, Ownable, ReentrancyGuard {... */\n      and\n        /* \"lib/allo-v2/contracts/strategies/BaseStrategy.sol\":12868:12878  msg.sender */\n      caller\n        /* \"lib/allo-v2/contracts/strategies/BaseStrategy.sol\":12868:12895  msg.sender != address(allo) */\n      sub\n        /* \"lib/allo-v2/contracts/strategies/BaseStrategy.sol\":12864:12918  if (msg.sender != address(allo)) revert UNAUTHORIZED() */\n      tag_504\n      jumpi\n        /* \"lib/allo-v2/contracts/strategies/BaseStrategy.sol\":12814:12925  function _checkOnlyAllo() internal view {... */\n      jump\t// out\n        /* \"lib/allo-v2/contracts/strategies/BaseStrategy.sol\":12864:12918  if (msg.sender != address(allo)) revert UNAUTHORIZED() */\n    tag_504:\n        /* \"src/SNDRStrategy.sol\":825:13863  contract SNDRStrategy is BaseStrategy, Ownable, ReentrancyGuard {... */\n      mload(0x40)\n      shl(0xe0, 0x075fd2b1)\n        /* \"lib/allo-v2/contracts/strategies/BaseStrategy.sol\":12904:12918  UNAUTHORIZED() */\n      dup2\n      mstore\n      0x04\n      swap1\n      revert\n        /* \"lib/allo-v2/contracts/strategies/BaseStrategy.sol\":13771:13876  function _checkOnlyInitialized() internal view {... */\n    tag_15:\n        /* \"lib/allo-v2/contracts/strategies/BaseStrategy.sol\":13832:13838  poolId */\n      0x01\n        /* \"src/SNDRStrategy.sol\":825:13863  contract SNDRStrategy is BaseStrategy, Ownable, ReentrancyGuard {... */\n      sload\n        /* \"lib/allo-v2/contracts/strategies/BaseStrategy.sol\":13832:13843  poolId == 0 */\n      iszero\n        /* \"lib/allo-v2/contracts/strategies/BaseStrategy.sol\":13828:13869  if (poolId == 0) revert NOT_INITIALIZED() */\n      tag_506\n      jumpi\n        /* \"lib/allo-v2/contracts/strategies/BaseStrategy.sol\":13771:13876  function _checkOnlyInitialized() internal view {... */\n      jump\t// out\n        /* \"lib/allo-v2/contracts/strategies/BaseStrategy.sol\":13828:13869  if (poolId == 0) revert NOT_INITIALIZED() */\n    tag_506:\n        /* \"src/SNDRStrategy.sol\":825:13863  contract SNDRStrategy is BaseStrategy, Ownable, ReentrancyGuard {... */\n      mload(0x40)\n      shl(0xe2, 0x0f68fe63)\n        /* \"lib/allo-v2/contracts/strategies/BaseStrategy.sol\":13852:13869  NOT_INITIALIZED() */\n      dup2\n      mstore\n      0x04\n      swap1\n      revert\n        /* \"lib/allo-v2/lib/openzeppelin-contracts/contracts/access/Ownable.sol\":1359:1489  function _checkOwner() internal view virtual {... */\n    tag_16:\n        /* \"lib/allo-v2/lib/openzeppelin-contracts/contracts/access/Ownable.sol\":1273:1279  _owner */\n      0x03\n        /* \"src/SNDRStrategy.sol\":825:13863  contract SNDRStrategy is BaseStrategy, Ownable, ReentrancyGuard {... */\n      sload\n      sub(shl(0xa0, 0x01), 0x01)\n      and\n        /* \"lib/allo-v2/lib/openzeppelin-contracts/contracts/utils/Context.sol\":719:729  msg.sender */\n      caller\n        /* \"lib/allo-v2/lib/openzeppelin-contracts/contracts/access/Ownable.sol\":1422:1445  owner() == _msgSender() */\n      sub\n        /* \"src/SNDRStrategy.sol\":825:13863  contract SNDRStrategy is BaseStrategy, Ownable, ReentrancyGuard {... */\n      tag_508\n      jumpi\n        /* \"lib/allo-v2/lib/openzeppelin-contracts/contracts/access/Ownable.sol\":1359:1489  function _checkOwner() internal view virtual {... */\n      jump\t// out\n        /* \"src/SNDRStrategy.sol\":825:13863  contract SNDRStrategy is BaseStrategy, Ownable, ReentrancyGuard {... */\n    tag_508:\n      0x64\n      mload(0x40)\n      shl(0xe5, 0x461bcd)\n      dup2\n      mstore\n      0x20\n      0x04\n      dup3\n      add\n      mstore\n      0x20\n      0x24\n      dup3\n      add\n      mstore\n      0x4f776e61626c653a2063616c6c6572206973206e6f7420746865206f776e6572\n      0x44\n      dup3\n      add\n      mstore\n      revert\n    tag_17:\n      mload\n      swap1\n      sub(shl(0x40, 0x01), 0x01)\n      dup3\n      and\n      dup3\n      sub\n      tag_290\n      jumpi\n      jump\t// out\n        /* \"src/SNDRStrategy.sol\":3757:4739  function _updatePoolTimestamps(... */\n    tag_18:\n      swap2\n      swap3\n      swap2\n      sub(shl(0x40, 0x01), 0x01)\n        /* \"src/SNDRStrategy.sol\":825:13863  contract SNDRStrategy is BaseStrategy, Ownable, ReentrancyGuard {... */\n      swap1\n      dup2\n      and\n      swap2\n      dup2\n      dup2\n      and\n        /* \"src/SNDRStrategy.sol\":3982:4027  _registrationStartTime < _registrationEndTime */\n      dup1\n      dup5\n      lt\n        /* \"src/SNDRStrategy.sol\":825:13863  contract SNDRStrategy is BaseStrategy, Ownable, ReentrancyGuard {... */\n      iszero\n      tag_512\n      jumpi\n      dup3\n      dup7\n      and\n      swap1\n      dup4\n      dup7\n      and\n        /* \"src/SNDRStrategy.sol\":4110:4151  _allocationStartTime < _allocationEndTime */\n      dup3\n      lt\n        /* \"src/SNDRStrategy.sol\":825:13863  contract SNDRStrategy is BaseStrategy, Ownable, ReentrancyGuard {... */\n      iszero\n      tag_514\n      jumpi\n        /* \"src/SNDRStrategy.sol\":4232:4276  _registrationEndTime <= _allocationStartTime */\n      gt\n        /* \"src/SNDRStrategy.sol\":825:13863  contract SNDRStrategy is BaseStrategy, Ownable, ReentrancyGuard {... */\n      tag_516\n      jumpi\n        /* \"src/SNDRStrategy.sol\":4573:4732  TimestampsUpdated(... */\n      0x5be4d64080f489b6fef34a2d8ac3084c5735e83b3789aabc4e6aeab193e7967f\n        /* \"src/SNDRStrategy.sol\":825:13863  contract SNDRStrategy is BaseStrategy, Ownable, ReentrancyGuard {... */\n      swap5\n      dup4\n      0xffffffffffffffff0000000000000000\n      0x80\n      swap7\n      shl(0xc0, sub(shl(0x40, 0x01), 0x01))\n      swap1\n      0xc0\n      shl\n      and\n      swap4\n      0x40\n      shl\n      and\n      or\n      swap1\n      sub(shl(0x40, 0x01), 0x01)\n      dup7\n      shl\n      swap1\n      dup7\n      shl\n      and\n      or\n      or\n      swap1\n      dup2\n        /* \"src/SNDRStrategy.sol\":4359:4405  registrationStartTime = _registrationStartTime */\n      0x0a\n        /* \"src/SNDRStrategy.sol\":825:13863  contract SNDRStrategy is BaseStrategy, Ownable, ReentrancyGuard {... */\n      sstore\n      mload(0x40)\n      swap3\n      dup4\n      mstore\n      dup1\n      dup3\n      0x40\n      shr\n      and\n      0x20\n      dup5\n      add\n      mstore\n      dup2\n      dup5\n      shr\n      and\n      0x40\n      dup4\n      add\n      mstore\n      0xc0\n      shr\n      0x60\n      dup3\n      add\n      mstore\n        /* \"src/SNDRStrategy.sol\":4573:4732  TimestampsUpdated(... */\n      log1\n        /* \"src/SNDRStrategy.sol\":3757:4739  function _updatePoolTimestamps(... */\n      jump\t// out\n        /* \"src/SNDRStrategy.sol\":825:13863  contract SNDRStrategy is BaseStrategy, Ownable, ReentrancyGuard {... */\n    tag_516:\n      mload(0x40)\n      shl(0xe5, 0x461bcd)\n      dup2\n      mstore\n      0x20\n      0x04\n      dup3\n      add\n      mstore\n      0x2e\n      0x24\n      dup3\n      add\n      mstore\n      0x526567697374726174696f6e206d75737420656e64206265666f726520616c6c\n      0x44\n      dup3\n      add\n      mstore\n      shl(0x90, 0x6f636174696f6e20737461727473)\n      0x64\n      dup3\n      add\n      mstore\n      0x84\n      swap1\n      revert\n    tag_514:\n      mload(0x40)\n      shl(0xe5, 0x461bcd)\n      dup2\n      mstore\n      0x20\n      0x04\n      dup3\n      add\n      mstore\n      0x18\n      0x24\n      dup3\n      add\n      mstore\n      0x496e76616c696420616c6c6f636174696f6e2074696d65730000000000000000\n      0x44\n      dup3\n      add\n      mstore\n      0x64\n      swap1\n      revert\n    tag_512:\n      mload(0x40)\n      shl(0xe5, 0x461bcd)\n      dup2\n      mstore\n      0x20\n      0x04\n      dup3\n      add\n      mstore\n      0x1a\n      0x24\n      dup3\n      add\n      mstore\n      0x496e76616c696420726567697374726174696f6e2074696d6573000000000000\n      0x44\n      dup3\n      add\n      mstore\n      0x64\n      swap1\n      revert\n    tag_19:\n      swap1\n      0x07\n      dup2\n      lt\n      iszero\n      tag_218\n      jumpi\n      0xff\n      dup1\n      not\n      dup4\n      sload\n      and\n      swap2\n      and\n      or\n      swap1\n      sstore\n      jump\t// out\n        /* \"lib/allo-v2/lib/openzeppelin-contracts/contracts/security/ReentrancyGuard.sol\":2336:2623  function _nonReentrantBefore() private {... */\n    tag_20:\n        /* \"lib/allo-v2/lib/openzeppelin-contracts/contracts/security/ReentrancyGuard.sol\":1759:1760  2 */\n      0x02\n        /* \"lib/allo-v2/lib/openzeppelin-contracts/contracts/security/ReentrancyGuard.sol\":2468:2475  _status */\n      0x04\n        /* \"src/SNDRStrategy.sol\":825:13863  contract SNDRStrategy is BaseStrategy, Ownable, ReentrancyGuard {... */\n      sload\n        /* \"lib/allo-v2/lib/openzeppelin-contracts/contracts/security/ReentrancyGuard.sol\":2468:2487  _status != _ENTERED */\n      eq\n        /* \"lib/allo-v2/lib/openzeppelin-contracts/contracts/security/ReentrancyGuard.sol\":1759:1760  2 */\n      tag_520\n      jumpi\n      0x02\n        /* \"lib/allo-v2/lib/openzeppelin-contracts/contracts/security/ReentrancyGuard.sol\":2468:2475  _status */\n      0x04\n        /* \"src/SNDRStrategy.sol\":825:13863  contract SNDRStrategy is BaseStrategy, Ownable, ReentrancyGuard {... */\n      sstore\n        /* \"lib/allo-v2/lib/openzeppelin-contracts/contracts/security/ReentrancyGuard.sol\":2336:2623  function _nonReentrantBefore() private {... */\n      jump\t// out\n        /* \"lib/allo-v2/lib/openzeppelin-contracts/contracts/security/ReentrancyGuard.sol\":1759:1760  2 */\n    tag_520:\n        /* \"src/SNDRStrategy.sol\":825:13863  contract SNDRStrategy is BaseStrategy, Ownable, ReentrancyGuard {... */\n      mload(0x40)\n      shl(0xe5, 0x461bcd)\n        /* \"lib/allo-v2/lib/openzeppelin-contracts/contracts/security/ReentrancyGuard.sol\":1759:1760  2 */\n      dup2\n      mstore\n      0x20\n        /* \"lib/allo-v2/lib/openzeppelin-contracts/contracts/security/ReentrancyGuard.sol\":2468:2475  _status */\n      0x04\n        /* \"lib/allo-v2/lib/openzeppelin-contracts/contracts/security/ReentrancyGuard.sol\":1759:1760  2 */\n      dup3\n      add\n      mstore\n      0x1f\n      0x24\n      dup3\n      add\n        /* \"src/SNDRStrategy.sol\":825:13863  contract SNDRStrategy is BaseStrategy, Ownable, ReentrancyGuard {... */\n      mstore\n        /* \"lib/allo-v2/lib/openzeppelin-contracts/contracts/security/ReentrancyGuard.sol\":1759:1760  2 */\n      0x5265656e7472616e637947756172643a207265656e7472616e742063616c6c00\n        /* \"src/SNDRStrategy.sol\":825:13863  contract SNDRStrategy is BaseStrategy, Ownable, ReentrancyGuard {... */\n      0x44\n      dup3\n      add\n        /* \"lib/allo-v2/lib/openzeppelin-contracts/contracts/security/ReentrancyGuard.sol\":1759:1760  2 */\n      mstore\n      0x64\n      swap1\n      revert\n        /* \"src/SNDRStrategy.sol\":825:13863  contract SNDRStrategy is BaseStrategy, Ownable, ReentrancyGuard {... */\n    tag_21:\n      not(0x00)\n      dup2\n      eq\n      tag_500\n      jumpi\n      0x01\n      add\n      swap1\n      jump\t// out\n    tag_22:\n      iszero\n      tag_524\n      jumpi\n      jump\t// out\n    tag_524:\n      mload(0x40)\n      shl(0xe5, 0x461bcd)\n      dup2\n      mstore\n      0x20\n      0x04\n      dup3\n      add\n      mstore\n      0x18\n      0x24\n      dup3\n      add\n      mstore\n      0x526563697069656e74206e6f7420726567697374657265640000000000000000\n      0x44\n      dup3\n      add\n      mstore\n      0x64\n      swap1\n      revert\n    tag_23:\n      swap1\n      dup2\n      0x20\n      swap2\n      sub\n      slt\n      tag_290\n      jumpi\n      mload\n      dup1\n      iszero\n      iszero\n      dup2\n      sub\n      tag_290\n      jumpi\n      swap1\n      jump\t// out\n        /* \"lib/allo-v2/contracts/strategies/BaseStrategy.sol\":13122:13264  function _checkOnlyPoolManager(address _sender) internal view {... */\n    tag_24:\n        /* \"lib/allo-v2/contracts/strategies/BaseStrategy.sol\":13199:13234  allo.isPoolManager(poolId, _sender) */\n      0x20\n        /* \"src/SNDRStrategy.sol\":825:13863  contract SNDRStrategy is BaseStrategy, Ownable, ReentrancyGuard {... */\n      sload(0x01)\n      0x44\n      mload(0x40)\n      dup1\n      swap5\n      dup2\n      swap4\n      shl(0xe0, 0x29e40d4b)\n        /* \"lib/allo-v2/contracts/strategies/BaseStrategy.sol\":13199:13234  allo.isPoolManager(poolId, _sender) */\n      dup4\n      mstore\n      0x04\n      dup4\n      add\n        /* \"src/SNDRStrategy.sol\":825:13863  contract SNDRStrategy is BaseStrategy, Ownable, ReentrancyGuard {... */\n      mstore\n      0x01\n      dup1\n      0xa0\n      shl\n      sub\n      dup1\n      swap2\n      and\n      0x24\n      dup4\n      add\n      mstore\n        /* \"lib/allo-v2/contracts/strategies/BaseStrategy.sol\":13199:13203  allo */\n      immutable(\"0xbd0af7246ac7aa3e59281abc6e001c8d20085f3ebd8f2bcaf145913d94136a44\")\n        /* \"src/SNDRStrategy.sol\":825:13863  contract SNDRStrategy is BaseStrategy, Ownable, ReentrancyGuard {... */\n      and\n        /* \"lib/allo-v2/contracts/strategies/BaseStrategy.sol\":13199:13234  allo.isPoolManager(poolId, _sender) */\n      gas\n      staticcall\n      swap1\n      dup2\n      iszero\n      tag_530\n      jumpi\n      0x00\n      swap2\n      tag_532\n      jumpi\n        /* \"lib/allo-v2/contracts/strategies/BaseStrategy.sol\":13122:13264  function _checkOnlyPoolManager(address _sender) internal view {... */\n    tag_533:\n        /* \"lib/allo-v2/contracts/strategies/BaseStrategy.sol\":13198:13234  !allo.isPoolManager(poolId, _sender) */\n      pop\n      iszero\n        /* \"lib/allo-v2/contracts/strategies/BaseStrategy.sol\":13194:13257  if (!allo.isPoolManager(poolId, _sender)) revert UNAUTHORIZED() */\n      tag_504\n      jumpi\n        /* \"lib/allo-v2/contracts/strategies/BaseStrategy.sol\":13122:13264  function _checkOnlyPoolManager(address _sender) internal view {... */\n      jump\t// out\n        /* \"lib/allo-v2/contracts/strategies/BaseStrategy.sol\":13199:13234  allo.isPoolManager(poolId, _sender) */\n    tag_532:\n      tag_536\n      swap2\n      pop\n      0x20\n      returndatasize\n      dup2\n      gt\n      tag_537\n      jumpi\n    tag_538:\n      tag_539\n      dup2\n      dup4\n      tag_3\n      jump\t// in\n    tag_539:\n      dup2\n      add\n      swap1\n      tag_23\n      jump\t// in\n    tag_536:\n      codesize\n      jump(tag_533)\n    tag_537:\n      pop\n      returndatasize\n      jump(tag_538)\n    tag_530:\n        /* \"src/SNDRStrategy.sol\":825:13863  contract SNDRStrategy is BaseStrategy, Ownable, ReentrancyGuard {... */\n      mload(0x40)\n      returndatasize\n      0x00\n      dup3\n      returndatacopy\n      returndatasize\n      swap1\n      revert\n    tag_25:\n      swap1\n      dup2\n      mload\n      dup1\n      dup3\n      mstore\n      0x20\n      dup1\n      dup1\n      swap4\n      add\n      swap4\n      add\n      swap2\n      0x00\n    tag_540:\n      dup3\n      dup2\n      lt\n      tag_541\n      jumpi\n      pop\n      pop\n      pop\n      pop\n      swap1\n      jump\t// out\n    tag_541:\n      dup4\n      mload\n      sub(shl(0xa0, 0x01), 0x01)\n      and\n      dup6\n      mstore\n      swap4\n      dup2\n      add\n      swap4\n      swap3\n      dup2\n      add\n      swap3\n      0x01\n      add\n      jump(tag_540)\n        /* \"lib/allo-v2/lib/openzeppelin-contracts/contracts/token/ERC20/utils/SafeERC20.sol\":941:1116  function safeTransfer(IERC20 token, address to, uint256 value) internal {... */\n    tag_26:\n        /* \"src/SNDRStrategy.sol\":825:13863  contract SNDRStrategy is BaseStrategy, Ownable, ReentrancyGuard {... */\n      mload(0x40)\n      shl(0xe0, 0xa9059cbb)\n        /* \"lib/allo-v2/lib/openzeppelin-contracts/contracts/token/ERC20/utils/SafeERC20.sol\":1050:1108  abi.encodeWithSelector(token.transfer.selector, to, value) */\n      0x20\n      dup1\n      dup4\n      add\n      swap2\n      dup3\n      mstore\n      sub(shl(0xa0, 0x01), 0x01)\n        /* \"src/SNDRStrategy.sol\":825:13863  contract SNDRStrategy is BaseStrategy, Ownable, ReentrancyGuard {... */\n      swap5\n      dup6\n      and\n        /* \"lib/allo-v2/lib/openzeppelin-contracts/contracts/token/ERC20/utils/SafeERC20.sol\":1050:1108  abi.encodeWithSelector(token.transfer.selector, to, value) */\n      0x24\n      dup5\n      add\n        /* \"src/SNDRStrategy.sol\":825:13863  contract SNDRStrategy is BaseStrategy, Ownable, ReentrancyGuard {... */\n      mstore\n      0x44\n      dup1\n      dup5\n      add\n      swap7\n      swap1\n      swap7\n      mstore\n        /* \"lib/allo-v2/lib/openzeppelin-contracts/contracts/token/ERC20/utils/SafeERC20.sol\":1050:1108  abi.encodeWithSelector(token.transfer.selector, to, value) */\n      swap5\n      dup3\n      mstore\n      swap3\n        /* \"src/SNDRStrategy.sol\":825:13863  contract SNDRStrategy is BaseStrategy, Ownable, ReentrancyGuard {... */\n      0x80\n      dup3\n      add\n      swap3\n      sub(shl(0x40, 0x01), 0x01)\n      dup5\n      gt\n      dup4\n      dup6\n      lt\n      or\n      tag_460\n      jumpi\n        /* \"lib/allo-v2/lib/openzeppelin-contracts/contracts/utils/Address.sol\":5535:5604  verifyCallResultFromTarget(target, success, returndata, errorMessage) */\n      tag_545\n        /* \"src/SNDRStrategy.sol\":825:13863  contract SNDRStrategy is BaseStrategy, Ownable, ReentrancyGuard {... */\n      swap5\n      0x00\n      swap3\n      dup4\n      swap3\n      dup7\n      0x40\n      mstore\n      and\n      swap4\n      tag_546\n      dup7\n      tag_2\n      jump\t// in\n    tag_546:\n      dup8\n      dup7\n      mstore\n      0x5361666545524332303a206c6f772d6c6576656c2063616c6c206661696c6564\n      0xa0\n      dup3\n      add\n      mstore\n        /* \"lib/allo-v2/lib/openzeppelin-contracts/contracts/utils/Address.sol\":5487:5518  target.call{value: value}(data) */\n      mload\n      swap1\n      dup3\n      dup6\n      gas\n      call\n        /* \"src/SNDRStrategy.sol\":825:13863  contract SNDRStrategy is BaseStrategy, Ownable, ReentrancyGuard {... */\n      jumpi(tag_547, iszero(returndatasize))\n      returndatasize\n      swap2\n      tag_549\n      dup4\n      tag_7\n      jump\t// in\n    tag_549:\n      swap3\n      tag_550\n      mload(0x40)\n      swap5\n      dup6\n      tag_3\n      jump\t// in\n    tag_550:\n      dup4\n      mstore\n      returndatasize\n      0x00\n      dup8\n      dup6\n      add\n      returndatacopy\n        /* \"lib/allo-v2/lib/openzeppelin-contracts/contracts/utils/Address.sol\":5535:5604  verifyCallResultFromTarget(target, success, returndata, errorMessage) */\n      tag_27\n      jump\t// in\n    tag_545:\n        /* \"src/SNDRStrategy.sol\":825:13863  contract SNDRStrategy is BaseStrategy, Ownable, ReentrancyGuard {... */\n      dup1\n      mload\n        /* \"lib/allo-v2/lib/openzeppelin-contracts/contracts/token/ERC20/utils/SafeERC20.sol\":5728:5750  returndata.length == 0 */\n      swap1\n      dup3\n      dup3\n      iszero\n        /* \"lib/allo-v2/lib/openzeppelin-contracts/contracts/token/ERC20/utils/SafeERC20.sol\":5728:5784  returndata.length == 0 || abi.decode(returndata, (bool)) */\n      swap3\n      dup4\n      iszero\n      tag_552\n      jumpi\n        /* \"src/SNDRStrategy.sol\":825:13863  contract SNDRStrategy is BaseStrategy, Ownable, ReentrancyGuard {... */\n    tag_553:\n      pop\n      pop\n      pop\n      iszero\n      tag_554\n      jumpi\n        /* \"lib/allo-v2/lib/openzeppelin-contracts/contracts/token/ERC20/utils/SafeERC20.sol\":941:1116  function safeTransfer(IERC20 token, address to, uint256 value) internal {... */\n      pop\n      jump\t// out\n        /* \"src/SNDRStrategy.sol\":825:13863  contract SNDRStrategy is BaseStrategy, Ownable, ReentrancyGuard {... */\n    tag_554:\n      0x84\n      swap1\n      mload(0x40)\n      swap1\n      shl(0xe5, 0x461bcd)\n      dup3\n      mstore\n      0x04\n      dup3\n      add\n      mstore\n      0x2a\n        /* \"lib/allo-v2/lib/openzeppelin-contracts/contracts/token/ERC20/utils/SafeERC20.sol\":1050:1108  abi.encodeWithSelector(token.transfer.selector, to, value) */\n      0x24\n        /* \"src/SNDRStrategy.sol\":825:13863  contract SNDRStrategy is BaseStrategy, Ownable, ReentrancyGuard {... */\n      dup3\n      add\n      mstore\n      0x5361666545524332303a204552433230206f7065726174696f6e20646964206e\n      0x44\n      dup3\n      add\n      mstore\n      shl(0xb2, 0x1bdd081cdd58d8d95959)\n      0x64\n      dup3\n      add\n      mstore\n      revert\n        /* \"lib/allo-v2/lib/openzeppelin-contracts/contracts/token/ERC20/utils/SafeERC20.sol\":5728:5784  returndata.length == 0 || abi.decode(returndata, (bool)) */\n    tag_552:\n        /* \"lib/allo-v2/lib/openzeppelin-contracts/contracts/token/ERC20/utils/SafeERC20.sol\":5754:5784  abi.decode(returndata, (bool)) */\n      tag_556\n      swap4\n      pop\n      dup3\n      add\n      dup2\n      add\n      swap2\n      add\n      tag_23\n      jump\t// in\n    tag_556:\n        /* \"lib/allo-v2/lib/openzeppelin-contracts/contracts/token/ERC20/utils/SafeERC20.sol\":5728:5784  returndata.length == 0 || abi.decode(returndata, (bool)) */\n      codesize\n      dup3\n      dup2\n      jump(tag_553)\n        /* \"src/SNDRStrategy.sol\":825:13863  contract SNDRStrategy is BaseStrategy, Ownable, ReentrancyGuard {... */\n    tag_547:\n      0x60\n      swap2\n        /* \"lib/allo-v2/lib/openzeppelin-contracts/contracts/utils/Address.sol\":7671:8299  function verifyCallResultFromTarget(... */\n    tag_27:\n      swap2\n      swap3\n      swap1\n        /* \"lib/allo-v2/lib/openzeppelin-contracts/contracts/utils/Address.sol\":7875:8293  if (success) {... */\n      iszero\n      tag_557\n      jumpi\n        /* \"src/SNDRStrategy.sol\":825:13863  contract SNDRStrategy is BaseStrategy, Ownable, ReentrancyGuard {... */\n      pop\n      dup2\n      mload\n        /* \"lib/allo-v2/lib/openzeppelin-contracts/contracts/utils/Address.sol\":7906:7928  returndata.length == 0 */\n      iszero\n        /* \"lib/allo-v2/lib/openzeppelin-contracts/contracts/utils/Address.sol\":7902:8188  if (returndata.length == 0) {... */\n      tag_559\n      jumpi\n        /* \"lib/allo-v2/lib/openzeppelin-contracts/contracts/utils/Address.sol\":8201:8218  return returndata */\n      pop\n      swap1\n      jump\t// out\n        /* \"lib/allo-v2/lib/openzeppelin-contracts/contracts/utils/Address.sol\":7902:8188  if (returndata.length == 0) {... */\n    tag_559:\n        /* \"lib/allo-v2/lib/openzeppelin-contracts/contracts/utils/Address.sol\":1702:1721  account.code.length */\n      extcodesize\n        /* \"lib/allo-v2/lib/openzeppelin-contracts/contracts/utils/Address.sol\":1702:1725  account.code.length > 0 */\n      iszero\n        /* \"src/SNDRStrategy.sol\":825:13863  contract SNDRStrategy is BaseStrategy, Ownable, ReentrancyGuard {... */\n      tag_561\n      jumpi\n        /* \"lib/allo-v2/lib/openzeppelin-contracts/contracts/utils/Address.sol\":8201:8218  return returndata */\n      swap1\n      jump\t// out\n        /* \"src/SNDRStrategy.sol\":825:13863  contract SNDRStrategy is BaseStrategy, Ownable, ReentrancyGuard {... */\n    tag_561:\n      mload(0x40)\n      shl(0xe5, 0x461bcd)\n      dup2\n      mstore\n      0x20\n      0x04\n      dup3\n      add\n      mstore\n      0x1d\n      0x24\n      dup3\n      add\n      mstore\n      0x416464726573733a2063616c6c20746f206e6f6e2d636f6e7472616374000000\n      0x44\n      dup3\n      add\n      mstore\n      0x64\n      swap1\n      revert\n        /* \"lib/allo-v2/lib/openzeppelin-contracts/contracts/utils/Address.sol\":7875:8293  if (success) {... */\n    tag_557:\n        /* \"src/SNDRStrategy.sol\":825:13863  contract SNDRStrategy is BaseStrategy, Ownable, ReentrancyGuard {... */\n      dup3\n      mload\n      swap1\n      swap2\n      pop\n        /* \"lib/allo-v2/lib/openzeppelin-contracts/contracts/utils/Address.sol\":8980:9001  returndata.length > 0 */\n      iszero\n        /* \"lib/allo-v2/lib/openzeppelin-contracts/contracts/utils/Address.sol\":8980:8997  returndata.length */\n      tag_563\n      jumpi\n        /* \"lib/allo-v2/lib/openzeppelin-contracts/contracts/utils/Address.sol\":9152:9294  assembly {... */\n      pop\n      dup1\n      mload\n      swap1\n      0x20\n      add\n      revert\n        /* \"lib/allo-v2/lib/openzeppelin-contracts/contracts/utils/Address.sol\":8976:9355  if (returndata.length > 0) {... */\n    tag_563:\n        /* \"src/SNDRStrategy.sol\":825:13863  contract SNDRStrategy is BaseStrategy, Ownable, ReentrancyGuard {... */\n      mload(0x40)\n      swap1\n      shl(0xe5, 0x461bcd)\n        /* \"lib/allo-v2/lib/openzeppelin-contracts/contracts/utils/Address.sol\":9324:9344  revert(errorMessage) */\n      dup3\n      mstore\n        /* \"src/SNDRStrategy.sol\":825:13863  contract SNDRStrategy is BaseStrategy, Ownable, ReentrancyGuard {... */\n      dup2\n      0x20\n        /* \"lib/allo-v2/lib/openzeppelin-contracts/contracts/utils/Address.sol\":9324:9344  revert(errorMessage) */\n      dup1\n      0x04\n      dup4\n      add\n        /* \"src/SNDRStrategy.sol\":825:13863  contract SNDRStrategy is BaseStrategy, Ownable, ReentrancyGuard {... */\n      mstore\n      dup3\n      mload\n      swap1\n      dup2\n      0x24\n      dup5\n      add\n      mstore\n        /* \"lib/allo-v2/lib/openzeppelin-contracts/contracts/utils/Address.sol\":9000:9001  0 */\n      0x00\n        /* \"src/SNDRStrategy.sol\":825:13863  contract SNDRStrategy is BaseStrategy, Ownable, ReentrancyGuard {... */\n      swap4\n    tag_565:\n      dup3\n      dup6\n      lt\n      tag_566\n      jumpi\n      pop\n      pop\n      0x44\n      swap3\n      pop\n        /* \"lib/allo-v2/lib/openzeppelin-contracts/contracts/utils/Address.sol\":9000:9001  0 */\n      0x00\n        /* \"src/SNDRStrategy.sol\":825:13863  contract SNDRStrategy is BaseStrategy, Ownable, ReentrancyGuard {... */\n      dup4\n      dup3\n      dup5\n      add\n      add\n      mstore\n      0x1f\n      dup1\n      not\n      swap2\n      add\n      and\n      dup2\n      add\n        /* \"lib/allo-v2/lib/openzeppelin-contracts/contracts/utils/Address.sol\":9324:9344  revert(errorMessage) */\n      sub\n      add\n      swap1\n      revert\n        /* \"src/SNDRStrategy.sol\":825:13863  contract SNDRStrategy is BaseStrategy, Ownable, ReentrancyGuard {... */\n    tag_566:\n      dup5\n      dup2\n      add\n      dup3\n      add\n      mload\n      dup7\n      dup7\n      add\n      0x44\n      add\n      mstore\n      swap4\n      dup2\n      add\n      swap4\n      dup6\n      swap4\n      pop\n      jump(tag_565)\n    stop\n    data_aef723aaf2a9471d0444688035cd22ee9e9408f4d3390ce0a2a80b76aeab390a 6e1540171b6c0c960b71a7020d9f60077f6af931a8bbf590da0223dacf75c7af\n\n    auxdata: 0xa264697066735822122090d57829fe22720b659ebc0ff14ec39fbe61326eb258525353f5844a3cf18c8b64736f6c63430008130033\n}\n",
				"bytecode": {
					"linkReferences": {},
					"object": "60c0604081815234620001a75781620020fb8038038091620000228285620001ac565b8339606091829181010312620001a7576200003d83620001d0565b9060206200005a8462000052838801620001d0565b9601620001d0565b845190928186016001600160401b0381118382101762000191578652600c82526b534e4452537472617465677960a01b838301526001600160a01b039485166080528551808401848152835182890181905290949193600093928592915b828610620001785750506000828201840152601f01601f19168101038781018452620000e792500182620001ac565b51902060a052600380546001600160a01b0319808216339081179093559451958492909183167f8be0079c531659141344cd1fd0a4f28419497f9722a3daafe3b4186f6b6457e0600080a360016004551683600554161760055516906006541617600655611f159081620001e68239608051818181611125015281816118800152611bf4015260a05181610d510152f35b85810182015187870186015294810194869350620000b8565b634e487b7160e01b600052604160045260246000fd5b600080fd5b601f909101601f19168101906001600160401b038211908210176200019157604052565b51906001600160a01b0382168203620001a75756fe6080604052600436101561001257600080fd5b6000803560e01c8062912917146115295780630a6f0ee91461119e57806314f20ef91461115457806315cc481e1461110f57806319220dbc146110e65780632143e92f1461108a5780632bbe0cae14610e4f5780632cb5b5ed14610db05780632d30e6bf14610d9257806338fff2d014610d7457806342fda9c714610d395780634533d67814610d185780634ab4ba4214610cfa5780634d31d08714610cd45780636d40f85b14610c90578063715018a614610c325780638afbf66914610b7f5780638da5cb5b14610b565780639af5c09d14610b2f578063a0cf0aea14610b00578063b2b878d0146108f3578063b9bd12e41461083e578063d2e17f5914610814578063df868ed3146107f2578063dff7d2c7146107c8578063eb11af9314610782578063eb82031214610721578063edd146cc14610661578063ef2920fc146102a0578063f2fde38b146101d5578063f5b0dfb7146101a75763fc0c546a1461017c57600080fd5b346101a457806003193601126101a4576006546040516001600160a01b039091168152602090f35b80fd5b50346101a45760203660031901126101a4576101c161187e565b6101cf600435600254611847565b60025580f35b50346101a45760203660031901126101a4576101ef6116c6565b6101f76118de565b6001600160a01b0390811690811561024c57600354826bffffffffffffffffffffffff60a01b821617600355167f8be0079c531659141344cd1fd0a4f28419497f9722a3daafe3b4186f6b6457e0600080a380f35b60405162461bcd60e51b815260206004820152602660248201527f4f776e61626c653a206e6577206f776e657220697320746865207a65726f206160448201526564647265737360d01b6064820152608490fd5b506102aa366117f9565b90916102b461187e565b6102bc6118c2565b600a54916001600160401b0392838160801c164210159081610653575b501561060e576102e890611bc6565b82518301926020926040828587019603126105df57838201518181116105e35782019185603f840112156105e3578483015192610324846116af565b93610332604051958661168e565b80855260408786019160051b8301019188831161060a57604001905b8282106105e75750505060408101519182116105e357019380603f860112156105df578385015161037e816116af565b9561038c604051978861168e565b81875260408688019260051b8201019283116105db576040869101915b8383106105cb5750505050805184510361058657815b8151811015610475576001600160a01b03806103db838561186a565b51168085526103f66007928388526040872054161515611b62565b845280855260029060ff82604087200154169081101561046157036104235761041e90611b53565b6103bf565b60405162461bcd60e51b8152600481018590526016602482015275149958da5c1a595b9d081b9bdd081858d8d95c1d195960521b6044820152606490fd5b634e487b7160e01b85526021600452602485fd5b50838383845b845181101561050e57610509906001600160a01b0361049a828861186a565b51167f183f2ce0b749ed46549cb16586af0c501abab8d242cc4b2076aec30d2dd9c4bc8560406104f16104cd868b61186a565b51858d526007988985528d600194859120016104ea838254611847565b9055611847565b96848c52825260408b200154604051908152a2611b53565b61047b565b50915091811561054c57916040917fb41462b4bb729cf768173ceba7cc740624558176f07a40ac23a5f8fcdb6c4abd9351918351928352820152a180f35b60405162461bcd60e51b8152600481018490526012602482015271139bc8199d5b991cc8185b1b1bd8d85d195960721b6044820152606490fd5b60405162461bcd60e51b815260048101849052601760248201527f4d69736d61746368656420696e707574206172726179730000000000000000006044820152606490fd5b82518152918101918691016103a9565b8480fd5b8280fd5b8380fd5b81516001600160a01b038116810361060657815290870190870161034e565b8780fd5b8680fd5b60405162461bcd60e51b815260206004820152601860248201527f416c6c6f636174696f6e206973206e6f742061637469766500000000000000006044820152606490fd5b905060c01c421115386102d9565b50346101a45760403660031901126101a4576004356024356001600160401b0381116105df57610695903690600401611765565b9061069e61187e565b60015461070f5780156106fd576001556080818051810103126106f957806106cb60206106f69301611936565b906106d860408201611936565b6106f060806106e960608501611936565b9301611936565b9261194a565b80f35b5080fd5b604051637fcce2a960e01b8152600490fd5b60405163439a74c960e01b8152600490fd5b50346101a45760203660031901126101a4576060906001600160a01b0390610780906040908361074f6116c6565b168152600760205220918254169160ff6002600183015492015416906040519384526020840152604083019061183a565bf35b50346101a45760203660031901126101a45760209060ff906002906040906001600160a01b036107b06116c6565b1681526007855220015416610780604051809261183a565b50346101a457806003193601126101a45760206001600160401b03600a5460401c16604051908152f35b50346101a457806003193601126101a45760ff60209154166040519015158152f35b50346101a457806003193601126101a45760206001600160401b03600a5460801c16604051908152f35b50346101a45760203660031901126101a457604061085a6116c6565b918082805161086881611642565b828152826020820152015260018060a01b0380931681526007602052206040519061089282611642565b82815416825260ff60026001830154926020850193845201541690604083019060078310156108dd57606094610780938352604051945116845251602084015251604083019061183a565b634e487b7160e01b600052602160045260246000fd5b50346101a45760403660031901126101a4576001600160401b036004358181116105df576109259036906004016116dc565b916024918235908082116105df57366023830112156105df57816004013561094c816116af565b9261095a604051948561168e565b818452602095808786019360051b8301019336851161060a57818301935b858510610ad65750505050505083519080518203610ac45761099c829593956116af565b926109aa604051948561168e565b828452601f196109b9846116af565b01865b818110610a9a575050855b838110610a2057505050506040519180830190808452825180925280604085019301945b8281106109f85784840385f35b855180516001600160a01b0316855282015184830152948101946040909301926001016109eb565b9395936001600160a01b03610a35828461186a565b511690610a42818561186a565b50600087604051610a5281611673565b8281520152818652600787526001918260408820015460405191610a7583611673565b825288820152610a85828a61186a565b52610a90818961186a565b50019593956109c7565b8690604098969851610aab81611673565b6000815260008382015282828b010152019694966109bc565b604051633da4c02b60e11b8152600490fd5b8435828111610afc578991610af18392863691890101611765565b815201940193610978565b8880fd5b50346101a457806003193601126101a457602060405173eeeeeeeeeeeeeeeeeeeeeeeeeeeeeeeeeeeeeeee8152f35b50346101a457806003193601126101a45760206001600160401b03600a5416604051908152f35b50346101a457806003193601126101a4576003546040516001600160a01b039091168152602090f35b50346101a457806003193601126101a457610b986118de565b6006546040516370a0823160e01b81523060048201526001600160a01b03918216602082602481845afa918215610c27578492610bef575b5081610bda578380f35b610be8926003541690611ca4565b3880808380f35b9091506020813d8211610c1f575b81610c0a6020938361168e565b81010312610c1a57519038610bd0565b600080fd5b3d9150610bfd565b6040513d86823e3d90fd5b50346101a457806003193601126101a457610c4b6118de565b600380546001600160a01b031981169091556000906001600160a01b03167f8be0079c531659141344cd1fd0a4f28419497f9722a3daafe3b4186f6b6457e08280a380f35b50346101a45760203660031901126101a457600435906008548210156101a4576020610cbb836117ac565b905460405160039290921b1c6001600160a01b03168152f35b50346101a45760203660031901126101a457610cee6116c6565b50602060405160018152f35b50346101a457806003193601126101a4576020600254604051908152f35b50346101a457806003193601126101a4576020600a5460c01c604051908152f35b50346101a457806003193601126101a45760206040517f00000000000000000000000000000000000000000000000000000000000000008152f35b50346101a457806003193601126101a4576020600154604051908152f35b50346101a457806003193601126101a4576020600854604051908152f35b50346101a45760403660031901126101a457610dca6116c6565b60243560078110156105df5760207f256c90eeec0565314afb6bdf67c3a909a88bd142e40d03c91a1f68e2a6bc35db91610e026118de565b6001600160a01b039384168086526007835260408620549094610e2791161515611b62565b83855260078252610e3e8160026040882001611ae5565b610e4b604051809261183a565ba280f35b50610e59366117f9565b50610e6261187e565b610e6a6118c2565b600a546001600160401b03808216421015918261107a575b50501561103557610e91611afd565b6040818051810103126106f957602091828201519160018060a01b03908184168094036105df5760400151918381526007855281604082205416610ff057604051610edb81611642565b8481528581018481526040820190600182528684526007885284604085209351166bffffffffffffffffffffffff60a01b84541617835551600183015551906007821015610fdc57906002610f309201611ae5565b60085490600160401b821015610fc8575083927f0695e999be8100bdb5bee8612337296508d527eae78c65b8f170eacb5a3b439d92610f768360018995016008556117ac565b819291549060031b9187831b921b1916179055604051908152a2807f256c90eeec0565314afb6bdf67c3a909a88bd142e40d03c91a1f68e2a6bc35db8360405160018152a26001600455604051908152f35b634e487b7160e01b81526041600452602490fd5b634e487b7160e01b83526021600452602483fd5b60405162461bcd60e51b815260048101869052601c60248201527f526563697069656e7420616c72656164792072656769737465726564000000006044820152606490fd5b60405162461bcd60e51b815260206004820152601a60248201527f526567697374726174696f6e206973206e6f74206163746976650000000000006044820152606490fd5b60401c1642111590503880610e82565b50346101a45760803660031901126101a4576004356001600160401b038082168203610c1a576024358181168103610c1a57604435908282168203610c1a576064359283168303610c1a576106f6936110e16118de565b61194a565b50346101a457806003193601126101a4576005546040516001600160a01b039091168152602090f35b50346101a457806003193601126101a4576040517f00000000000000000000000000000000000000000000000000000000000000006001600160a01b03168152602090f35b50346101a45760203660031901126101a4576004356009548110156106f9576009600052600080516020611ec083398151915201546040516001600160a01b039091168152602090f35b50346101a45760603660031901126101a4576004356001600160401b0381116106f9576111cf9036906004016116dc565b6024356001600160401b0381116105df576111ee903690600401611765565b6044356001600160a01b03811681036105e35761120961187e565b6112116118c2565b600a5460c01c4211156114e45761122f9061122a611afd565b611bc6565b6020818051810103126105df576020015190805161124c816116af565b9061125a604051928361168e565b808252611269601f19916116af565b013660208301378391825b81518410156112d0576112ca906112c4906001600160a01b03611297878661186a565b51168852600760205260016040892001546112b2878761186a565b526112bd868661186a565b5190611847565b93611b53565b92611274565b848693826002541061149f576006546005546112fa9185916001600160a01b039081169116611ca4565b60055460015460065490936001600160a01b039283169392909116833b1561060657604051628cd62560e61b81526004810195909552602485015260c0604485015286928492909161134f60c4850189611c67565b60031985820301606486015260208084519283815201930190865b8181106114835750505060848401526003198382030160a4840152602060095491828152019060098552600080516020611ec083398151915290855b81811061145e575050508383809203925af18015610c275761140f575b507f6215df0421b8b71ffbc92898b478b5ad9520ec5034d7c686bbdc7afdfad068e8916113fe91604051928392604084526040840190611c67565b9060208301520390a1600160045580f35b6001600160401b03819492941161144a57604052917f6215df0421b8b71ffbc92898b478b5ad9520ec5034d7c686bbdc7afdfad068e86113c3565b634e487b7160e01b82526041600452602482fd5b82546001600160a01b031684528a9650879550602090930192600192830192016113a6565b825185528b97508896506020948501949092019160010161136a565b60405162461bcd60e51b815260206004820152601d60248201527f506f6f6c20616c6c6f636174696f6e2066756e647320746f6f206c6f770000006044820152606490fd5b60405162461bcd60e51b815260206004820152601f60248201527f416c6c6f636174696f6e20706572696f6420686173206e6f7420656e646564006044820152606490fd5b50346101a457602090816003193601126101a4576001600160401b036004358181116105df5761155d9036906004016116dc565b906115666118de565b815190811161162e57600160401b811161162e5760095481600955808210611600575b5083820160098452835b8281106115d75760405186815285907f0ba55fca14ca25313d8196abbee269381ad67be27729f5073609a3eb9318391a90806115d1818b0189611c67565b0390a180f35b81516001600160a01b0316600080516020611ec083398151915282015590850190600101611593565b81600080516020611ec083398151915291820191015b8181106116235750611589565b848155600101611616565b634e487b7160e01b83526041600452602483fd5b606081019081106001600160401b0382111761165d57604052565b634e487b7160e01b600052604160045260246000fd5b604081019081106001600160401b0382111761165d57604052565b90601f801991011681019081106001600160401b0382111761165d57604052565b6001600160401b03811161165d5760051b60200190565b600435906001600160a01b0382168203610c1a57565b81601f82011215610c1a578035916116f3836116af565b92611701604051948561168e565b808452602092838086019260051b820101928311610c1a578301905b82821061172b575050505090565b81356001600160a01b0381168103610c1a57815290830190830161171d565b6001600160401b03811161165d57601f01601f191660200190565b81601f82011215610c1a5780359061177c8261174a565b9261178a604051948561168e565b82845260208383010111610c1a57816000926020809301838601378301015290565b6008548110156117e35760086000527ff3f7a9fe364faab93b216da50a3214154f22a0a2b415b23a84c8169e8b636ee30190600090565b634e487b7160e01b600052603260045260246000fd5b6040600319820112610c1a57600435906001600160401b038211610c1a5761182391600401611765565b906024356001600160a01b0381168103610c1a5790565b9060078210156108dd5752565b9190820180921161185457565b634e487b7160e01b600052601160045260246000fd5b80518210156117e35760209160051b010190565b7f00000000000000000000000000000000000000000000000000000000000000006001600160a01b031633036118b057565b60405163075fd2b160e01b8152600490fd5b600154156118cc57565b604051630f68fe6360e21b8152600490fd5b6003546001600160a01b031633036118f257565b606460405162461bcd60e51b815260206004820152602060248201527f4f776e61626c653a2063616c6c6572206973206e6f7420746865206f776e65726044820152fd5b51906001600160401b0382168203610c1a57565b9192916001600160401b039081169181811680841015611aa05782861690838616821015611a5b57116119ff577f5be4d64080f489b6fef34a2d8ac3084c5735e83b3789aabc4e6aeab193e7967f94836fffffffffffffffff00000000000000006080966001600160401b0360c01b9060c01b169360401b1617906001600160401b03861b90861b1617179081600a55604051928352808260401c16602084015281841c16604083015260c01c6060820152a1565b60405162461bcd60e51b815260206004820152602e60248201527f526567697374726174696f6e206d75737420656e64206265666f726520616c6c60448201526d6f636174696f6e2073746172747360901b6064820152608490fd5b60405162461bcd60e51b815260206004820152601860248201527f496e76616c696420616c6c6f636174696f6e2074696d657300000000000000006044820152606490fd5b60405162461bcd60e51b815260206004820152601a60248201527f496e76616c696420726567697374726174696f6e2074696d65730000000000006044820152606490fd5b9060078110156108dd5760ff80198354169116179055565b600260045414611b0e576002600455565b60405162461bcd60e51b815260206004820152601f60248201527f5265656e7472616e637947756172643a207265656e7472616e742063616c6c006044820152606490fd5b60001981146118545760010190565b15611b6957565b60405162461bcd60e51b815260206004820152601860248201527f526563697069656e74206e6f74207265676973746572656400000000000000006044820152606490fd5b90816020910312610c1a57518015158103610c1a5790565b60206001546044604051809481936329e40d4b60e01b8352600483015260018060a01b0380911660248301527f0000000000000000000000000000000000000000000000000000000000000000165afa908115611c5b57600091611c2d575b50156118b057565b611c4e915060203d8111611c54575b611c46818361168e565b810190611bae565b38611c25565b503d611c3c565b6040513d6000823e3d90fd5b90815180825260208080930193019160005b828110611c87575050505090565b83516001600160a01b031685529381019392810192600101611c79565b60405163a9059cbb60e01b60208083019182526001600160a01b0394851660248401526044808401969096529482529260808201926001600160401b0384118385101761165d57611d5f946000928392866040521693611d0386611673565b8786527f5361666545524332303a206c6f772d6c6576656c2063616c6c206661696c656460a0820152519082855af13d15611de7573d91611d438361174a565b92611d51604051948561168e565b83523d60008785013e611deb565b805190828215928315611dcf575b50505015611d785750565b6084906040519062461bcd60e51b82526004820152602a60248201527f5361666545524332303a204552433230206f7065726174696f6e20646964206e6044820152691bdd081cdd58d8d9595960b21b6064820152fd5b611ddf9350820181019101611bae565b388281611d6d565b6060915b91929015611e4d5750815115611dff575090565b3b15611e085790565b60405162461bcd60e51b815260206004820152601d60248201527f416464726573733a2063616c6c20746f206e6f6e2d636f6e74726163740000006044820152606490fd5b825190915015611e605750805190602001fd5b6040519062461bcd60e51b82528160208060048301528251908160248401526000935b828510611ea6575050604492506000838284010152601f80199101168101030190fd5b8481018201518686016044015293810193859350611e8356fe6e1540171b6c0c960b71a7020d9f60077f6af931a8bbf590da0223dacf75c7afa264697066735822122090d57829fe22720b659ebc0ff14ec39fbe61326eb258525353f5844a3cf18c8b64736f6c63430008130033",
					"opcodes": "PUSH1 0xC0 PUSH1 0x40 DUP2 DUP2 MSTORE CALLVALUE PUSH3 0x1A7 JUMPI DUP2 PUSH3 0x20FB DUP1 CODESIZE SUB DUP1 SWAP2 PUSH3 0x22 DUP3 DUP6 PUSH3 0x1AC JUMP JUMPDEST DUP4 CODECOPY PUSH1 0x60 SWAP2 DUP3 SWAP2 DUP2 ADD SUB SLT PUSH3 0x1A7 JUMPI PUSH3 0x3D DUP4 PUSH3 0x1D0 JUMP JUMPDEST SWAP1 PUSH1 0x20 PUSH3 0x5A DUP5 PUSH3 0x52 DUP4 DUP9 ADD PUSH3 0x1D0 JUMP JUMPDEST SWAP7 ADD PUSH3 0x1D0 JUMP JUMPDEST DUP5 MLOAD SWAP1 SWAP3 DUP2 DUP7 ADD PUSH1 0x1 PUSH1 0x1 PUSH1 0x40 SHL SUB DUP2 GT DUP4 DUP3 LT OR PUSH3 0x191 JUMPI DUP7 MSTORE PUSH1 0xC DUP3 MSTORE PUSH12 0x534E44525374726174656779 PUSH1 0xA0 SHL DUP4 DUP4 ADD MSTORE PUSH1 0x1 PUSH1 0x1 PUSH1 0xA0 SHL SUB SWAP5 DUP6 AND PUSH1 0x80 MSTORE DUP6 MLOAD DUP1 DUP5 ADD DUP5 DUP2 MSTORE DUP4 MLOAD DUP3 DUP10 ADD DUP2 SWAP1 MSTORE SWAP1 SWAP5 SWAP2 SWAP4 PUSH1 0x0 SWAP4 SWAP3 DUP6 SWAP3 SWAP2 JUMPDEST DUP3 DUP7 LT PUSH3 0x178 JUMPI POP POP PUSH1 0x0 DUP3 DUP3 ADD DUP5 ADD MSTORE PUSH1 0x1F ADD PUSH1 0x1F NOT AND DUP2 ADD SUB DUP8 DUP2 ADD DUP5 MSTORE PUSH3 0xE7 SWAP3 POP ADD DUP3 PUSH3 0x1AC JUMP JUMPDEST MLOAD SWAP1 KECCAK256 PUSH1 0xA0 MSTORE PUSH1 0x3 DUP1 SLOAD PUSH1 0x1 PUSH1 0x1 PUSH1 0xA0 SHL SUB NOT DUP1 DUP3 AND CALLER SWAP1 DUP2 OR SWAP1 SWAP4 SSTORE SWAP5 MLOAD SWAP6 DUP5 SWAP3 SWAP1 SWAP2 DUP4 AND PUSH32 0x8BE0079C531659141344CD1FD0A4F28419497F9722A3DAAFE3B4186F6B6457E0 PUSH1 0x0 DUP1 LOG3 PUSH1 0x1 PUSH1 0x4 SSTORE AND DUP4 PUSH1 0x5 SLOAD AND OR PUSH1 0x5 SSTORE AND SWAP1 PUSH1 0x6 SLOAD AND OR PUSH1 0x6 SSTORE PUSH2 0x1F15 SWAP1 DUP2 PUSH3 0x1E6 DUP3 CODECOPY PUSH1 0x80 MLOAD DUP2 DUP2 DUP2 PUSH2 0x1125 ADD MSTORE DUP2 DUP2 PUSH2 0x1880 ADD MSTORE PUSH2 0x1BF4 ADD MSTORE PUSH1 0xA0 MLOAD DUP2 PUSH2 0xD51 ADD MSTORE RETURN JUMPDEST DUP6 DUP2 ADD DUP3 ADD MLOAD DUP8 DUP8 ADD DUP7 ADD MSTORE SWAP5 DUP2 ADD SWAP5 DUP7 SWAP4 POP PUSH3 0xB8 JUMP JUMPDEST PUSH4 0x4E487B71 PUSH1 0xE0 SHL PUSH1 0x0 MSTORE PUSH1 0x41 PUSH1 0x4 MSTORE PUSH1 0x24 PUSH1 0x0 REVERT JUMPDEST PUSH1 0x0 DUP1 REVERT JUMPDEST PUSH1 0x1F SWAP1 SWAP2 ADD PUSH1 0x1F NOT AND DUP2 ADD SWAP1 PUSH1 0x1 PUSH1 0x1 PUSH1 0x40 SHL SUB DUP3 GT SWAP1 DUP3 LT OR PUSH3 0x191 JUMPI PUSH1 0x40 MSTORE JUMP JUMPDEST MLOAD SWAP1 PUSH1 0x1 PUSH1 0x1 PUSH1 0xA0 SHL SUB DUP3 AND DUP3 SUB PUSH3 0x1A7 JUMPI JUMP INVALID PUSH1 0x80 PUSH1 0x40 MSTORE PUSH1 0x4 CALLDATASIZE LT ISZERO PUSH2 0x12 JUMPI PUSH1 0x0 DUP1 REVERT JUMPDEST PUSH1 0x0 DUP1 CALLDATALOAD PUSH1 0xE0 SHR DUP1 PUSH3 0x912917 EQ PUSH2 0x1529 JUMPI DUP1 PUSH4 0xA6F0EE9 EQ PUSH2 0x119E JUMPI DUP1 PUSH4 0x14F20EF9 EQ PUSH2 0x1154 JUMPI DUP1 PUSH4 0x15CC481E EQ PUSH2 0x110F JUMPI DUP1 PUSH4 0x19220DBC EQ PUSH2 0x10E6 JUMPI DUP1 PUSH4 0x2143E92F EQ PUSH2 0x108A JUMPI DUP1 PUSH4 0x2BBE0CAE EQ PUSH2 0xE4F JUMPI DUP1 PUSH4 0x2CB5B5ED EQ PUSH2 0xDB0 JUMPI DUP1 PUSH4 0x2D30E6BF EQ PUSH2 0xD92 JUMPI DUP1 PUSH4 0x38FFF2D0 EQ PUSH2 0xD74 JUMPI DUP1 PUSH4 0x42FDA9C7 EQ PUSH2 0xD39 JUMPI DUP1 PUSH4 0x4533D678 EQ PUSH2 0xD18 JUMPI DUP1 PUSH4 0x4AB4BA42 EQ PUSH2 0xCFA JUMPI DUP1 PUSH4 0x4D31D087 EQ PUSH2 0xCD4 JUMPI DUP1 PUSH4 0x6D40F85B EQ PUSH2 0xC90 JUMPI DUP1 PUSH4 0x715018A6 EQ PUSH2 0xC32 JUMPI DUP1 PUSH4 0x8AFBF669 EQ PUSH2 0xB7F JUMPI DUP1 PUSH4 0x8DA5CB5B EQ PUSH2 0xB56 JUMPI DUP1 PUSH4 0x9AF5C09D EQ PUSH2 0xB2F JUMPI DUP1 PUSH4 0xA0CF0AEA EQ PUSH2 0xB00 JUMPI DUP1 PUSH4 0xB2B878D0 EQ PUSH2 0x8F3 JUMPI DUP1 PUSH4 0xB9BD12E4 EQ PUSH2 0x83E JUMPI DUP1 PUSH4 0xD2E17F59 EQ PUSH2 0x814 JUMPI DUP1 PUSH4 0xDF868ED3 EQ PUSH2 0x7F2 JUMPI DUP1 PUSH4 0xDFF7D2C7 EQ PUSH2 0x7C8 JUMPI DUP1 PUSH4 0xEB11AF93 EQ PUSH2 0x782 JUMPI DUP1 PUSH4 0xEB820312 EQ PUSH2 0x721 JUMPI DUP1 PUSH4 0xEDD146CC EQ PUSH2 0x661 JUMPI DUP1 PUSH4 0xEF2920FC EQ PUSH2 0x2A0 JUMPI DUP1 PUSH4 0xF2FDE38B EQ PUSH2 0x1D5 JUMPI DUP1 PUSH4 0xF5B0DFB7 EQ PUSH2 0x1A7 JUMPI PUSH4 0xFC0C546A EQ PUSH2 0x17C JUMPI PUSH1 0x0 DUP1 REVERT JUMPDEST CALLVALUE PUSH2 0x1A4 JUMPI DUP1 PUSH1 0x3 NOT CALLDATASIZE ADD SLT PUSH2 0x1A4 JUMPI PUSH1 0x6 SLOAD PUSH1 0x40 MLOAD PUSH1 0x1 PUSH1 0x1 PUSH1 0xA0 SHL SUB SWAP1 SWAP2 AND DUP2 MSTORE PUSH1 0x20 SWAP1 RETURN JUMPDEST DUP1 REVERT JUMPDEST POP CALLVALUE PUSH2 0x1A4 JUMPI PUSH1 0x20 CALLDATASIZE PUSH1 0x3 NOT ADD SLT PUSH2 0x1A4 JUMPI PUSH2 0x1C1 PUSH2 0x187E JUMP JUMPDEST PUSH2 0x1CF PUSH1 0x4 CALLDATALOAD PUSH1 0x2 SLOAD PUSH2 0x1847 JUMP JUMPDEST PUSH1 0x2 SSTORE DUP1 RETURN JUMPDEST POP CALLVALUE PUSH2 0x1A4 JUMPI PUSH1 0x20 CALLDATASIZE PUSH1 0x3 NOT ADD SLT PUSH2 0x1A4 JUMPI PUSH2 0x1EF PUSH2 0x16C6 JUMP JUMPDEST PUSH2 0x1F7 PUSH2 0x18DE JUMP JUMPDEST PUSH1 0x1 PUSH1 0x1 PUSH1 0xA0 SHL SUB SWAP1 DUP2 AND SWAP1 DUP2 ISZERO PUSH2 0x24C JUMPI PUSH1 0x3 SLOAD DUP3 PUSH12 0xFFFFFFFFFFFFFFFFFFFFFFFF PUSH1 0xA0 SHL DUP3 AND OR PUSH1 0x3 SSTORE AND PUSH32 0x8BE0079C531659141344CD1FD0A4F28419497F9722A3DAAFE3B4186F6B6457E0 PUSH1 0x0 DUP1 LOG3 DUP1 RETURN JUMPDEST PUSH1 0x40 MLOAD PUSH3 0x461BCD PUSH1 0xE5 SHL DUP2 MSTORE PUSH1 0x20 PUSH1 0x4 DUP3 ADD MSTORE PUSH1 0x26 PUSH1 0x24 DUP3 ADD MSTORE PUSH32 0x4F776E61626C653A206E6577206F776E657220697320746865207A65726F2061 PUSH1 0x44 DUP3 ADD MSTORE PUSH6 0x646472657373 PUSH1 0xD0 SHL PUSH1 0x64 DUP3 ADD MSTORE PUSH1 0x84 SWAP1 REVERT JUMPDEST POP PUSH2 0x2AA CALLDATASIZE PUSH2 0x17F9 JUMP JUMPDEST SWAP1 SWAP2 PUSH2 0x2B4 PUSH2 0x187E JUMP JUMPDEST PUSH2 0x2BC PUSH2 0x18C2 JUMP JUMPDEST PUSH1 0xA SLOAD SWAP2 PUSH1 0x1 PUSH1 0x1 PUSH1 0x40 SHL SUB SWAP3 DUP4 DUP2 PUSH1 0x80 SHR AND TIMESTAMP LT ISZERO SWAP1 DUP2 PUSH2 0x653 JUMPI JUMPDEST POP ISZERO PUSH2 0x60E JUMPI PUSH2 0x2E8 SWAP1 PUSH2 0x1BC6 JUMP JUMPDEST DUP3 MLOAD DUP4 ADD SWAP3 PUSH1 0x20 SWAP3 PUSH1 0x40 DUP3 DUP6 DUP8 ADD SWAP7 SUB SLT PUSH2 0x5DF JUMPI DUP4 DUP3 ADD MLOAD DUP2 DUP2 GT PUSH2 0x5E3 JUMPI DUP3 ADD SWAP2 DUP6 PUSH1 0x3F DUP5 ADD SLT ISZERO PUSH2 0x5E3 JUMPI DUP5 DUP4 ADD MLOAD SWAP3 PUSH2 0x324 DUP5 PUSH2 0x16AF JUMP JUMPDEST SWAP4 PUSH2 0x332 PUSH1 0x40 MLOAD SWAP6 DUP7 PUSH2 0x168E JUMP JUMPDEST DUP1 DUP6 MSTORE PUSH1 0x40 DUP8 DUP7 ADD SWAP2 PUSH1 0x5 SHL DUP4 ADD ADD SWAP2 DUP9 DUP4 GT PUSH2 0x60A JUMPI PUSH1 0x40 ADD SWAP1 JUMPDEST DUP3 DUP3 LT PUSH2 0x5E7 JUMPI POP POP POP PUSH1 0x40 DUP2 ADD MLOAD SWAP2 DUP3 GT PUSH2 0x5E3 JUMPI ADD SWAP4 DUP1 PUSH1 0x3F DUP7 ADD SLT ISZERO PUSH2 0x5DF JUMPI DUP4 DUP6 ADD MLOAD PUSH2 0x37E DUP2 PUSH2 0x16AF JUMP JUMPDEST SWAP6 PUSH2 0x38C PUSH1 0x40 MLOAD SWAP8 DUP9 PUSH2 0x168E JUMP JUMPDEST DUP2 DUP8 MSTORE PUSH1 0x40 DUP7 DUP9 ADD SWAP3 PUSH1 0x5 SHL DUP3 ADD ADD SWAP3 DUP4 GT PUSH2 0x5DB JUMPI PUSH1 0x40 DUP7 SWAP2 ADD SWAP2 JUMPDEST DUP4 DUP4 LT PUSH2 0x5CB JUMPI POP POP POP POP DUP1 MLOAD DUP5 MLOAD SUB PUSH2 0x586 JUMPI DUP2 JUMPDEST DUP2 MLOAD DUP2 LT ISZERO PUSH2 0x475 JUMPI PUSH1 0x1 PUSH1 0x1 PUSH1 0xA0 SHL SUB DUP1 PUSH2 0x3DB DUP4 DUP6 PUSH2 0x186A JUMP JUMPDEST MLOAD AND DUP1 DUP6 MSTORE PUSH2 0x3F6 PUSH1 0x7 SWAP3 DUP4 DUP9 MSTORE PUSH1 0x40 DUP8 KECCAK256 SLOAD AND ISZERO ISZERO PUSH2 0x1B62 JUMP JUMPDEST DUP5 MSTORE DUP1 DUP6 MSTORE PUSH1 0x2 SWAP1 PUSH1 0xFF DUP3 PUSH1 0x40 DUP8 KECCAK256 ADD SLOAD AND SWAP1 DUP2 LT ISZERO PUSH2 0x461 JUMPI SUB PUSH2 0x423 JUMPI PUSH2 0x41E SWAP1 PUSH2 0x1B53 JUMP JUMPDEST PUSH2 0x3BF JUMP JUMPDEST PUSH1 0x40 MLOAD PUSH3 0x461BCD PUSH1 0xE5 SHL DUP2 MSTORE PUSH1 0x4 DUP2 ADD DUP6 SWAP1 MSTORE PUSH1 0x16 PUSH1 0x24 DUP3 ADD MSTORE PUSH22 0x149958DA5C1A595B9D081B9BDD081858D8D95C1D1959 PUSH1 0x52 SHL PUSH1 0x44 DUP3 ADD MSTORE PUSH1 0x64 SWAP1 REVERT JUMPDEST PUSH4 0x4E487B71 PUSH1 0xE0 SHL DUP6 MSTORE PUSH1 0x21 PUSH1 0x4 MSTORE PUSH1 0x24 DUP6 REVERT JUMPDEST POP DUP4 DUP4 DUP4 DUP5 JUMPDEST DUP5 MLOAD DUP2 LT ISZERO PUSH2 0x50E JUMPI PUSH2 0x509 SWAP1 PUSH1 0x1 PUSH1 0x1 PUSH1 0xA0 SHL SUB PUSH2 0x49A DUP3 DUP9 PUSH2 0x186A JUMP JUMPDEST MLOAD AND PUSH32 0x183F2CE0B749ED46549CB16586AF0C501ABAB8D242CC4B2076AEC30D2DD9C4BC DUP6 PUSH1 0x40 PUSH2 0x4F1 PUSH2 0x4CD DUP7 DUP12 PUSH2 0x186A JUMP JUMPDEST MLOAD DUP6 DUP14 MSTORE PUSH1 0x7 SWAP9 DUP10 DUP6 MSTORE DUP14 PUSH1 0x1 SWAP5 DUP6 SWAP2 KECCAK256 ADD PUSH2 0x4EA DUP4 DUP3 SLOAD PUSH2 0x1847 JUMP JUMPDEST SWAP1 SSTORE PUSH2 0x1847 JUMP JUMPDEST SWAP7 DUP5 DUP13 MSTORE DUP3 MSTORE PUSH1 0x40 DUP12 KECCAK256 ADD SLOAD PUSH1 0x40 MLOAD SWAP1 DUP2 MSTORE LOG2 PUSH2 0x1B53 JUMP JUMPDEST PUSH2 0x47B JUMP JUMPDEST POP SWAP2 POP SWAP2 DUP2 ISZERO PUSH2 0x54C JUMPI SWAP2 PUSH1 0x40 SWAP2 PUSH32 0xB41462B4BB729CF768173CEBA7CC740624558176F07A40AC23A5F8FCDB6C4ABD SWAP4 MLOAD SWAP2 DUP4 MLOAD SWAP3 DUP4 MSTORE DUP3 ADD MSTORE LOG1 DUP1 RETURN JUMPDEST PUSH1 0x40 MLOAD PUSH3 0x461BCD PUSH1 0xE5 SHL DUP2 MSTORE PUSH1 0x4 DUP2 ADD DUP5 SWAP1 MSTORE PUSH1 0x12 PUSH1 0x24 DUP3 ADD MSTORE PUSH18 0x139BC8199D5B991CC8185B1B1BD8D85D1959 PUSH1 0x72 SHL PUSH1 0x44 DUP3 ADD MSTORE PUSH1 0x64 SWAP1 REVERT JUMPDEST PUSH1 0x40 MLOAD PUSH3 0x461BCD PUSH1 0xE5 SHL DUP2 MSTORE PUSH1 0x4 DUP2 ADD DUP5 SWAP1 MSTORE PUSH1 0x17 PUSH1 0x24 DUP3 ADD MSTORE PUSH32 0x4D69736D61746368656420696E70757420617272617973000000000000000000 PUSH1 0x44 DUP3 ADD MSTORE PUSH1 0x64 SWAP1 REVERT JUMPDEST DUP3 MLOAD DUP2 MSTORE SWAP2 DUP2 ADD SWAP2 DUP7 SWAP2 ADD PUSH2 0x3A9 JUMP JUMPDEST DUP5 DUP1 REVERT JUMPDEST DUP3 DUP1 REVERT JUMPDEST DUP4 DUP1 REVERT JUMPDEST DUP2 MLOAD PUSH1 0x1 PUSH1 0x1 PUSH1 0xA0 SHL SUB DUP2 AND DUP2 SUB PUSH2 0x606 JUMPI DUP2 MSTORE SWAP1 DUP8 ADD SWAP1 DUP8 ADD PUSH2 0x34E JUMP JUMPDEST DUP8 DUP1 REVERT JUMPDEST DUP7 DUP1 REVERT JUMPDEST PUSH1 0x40 MLOAD PUSH3 0x461BCD PUSH1 0xE5 SHL DUP2 MSTORE PUSH1 0x20 PUSH1 0x4 DUP3 ADD MSTORE PUSH1 0x18 PUSH1 0x24 DUP3 ADD MSTORE PUSH32 0x416C6C6F636174696F6E206973206E6F74206163746976650000000000000000 PUSH1 0x44 DUP3 ADD MSTORE PUSH1 0x64 SWAP1 REVERT JUMPDEST SWAP1 POP PUSH1 0xC0 SHR TIMESTAMP GT ISZERO CODESIZE PUSH2 0x2D9 JUMP JUMPDEST POP CALLVALUE PUSH2 0x1A4 JUMPI PUSH1 0x40 CALLDATASIZE PUSH1 0x3 NOT ADD SLT PUSH2 0x1A4 JUMPI PUSH1 0x4 CALLDATALOAD PUSH1 0x24 CALLDATALOAD PUSH1 0x1 PUSH1 0x1 PUSH1 0x40 SHL SUB DUP2 GT PUSH2 0x5DF JUMPI PUSH2 0x695 SWAP1 CALLDATASIZE SWAP1 PUSH1 0x4 ADD PUSH2 0x1765 JUMP JUMPDEST SWAP1 PUSH2 0x69E PUSH2 0x187E JUMP JUMPDEST PUSH1 0x1 SLOAD PUSH2 0x70F JUMPI DUP1 ISZERO PUSH2 0x6FD JUMPI PUSH1 0x1 SSTORE PUSH1 0x80 DUP2 DUP1 MLOAD DUP2 ADD SUB SLT PUSH2 0x6F9 JUMPI DUP1 PUSH2 0x6CB PUSH1 0x20 PUSH2 0x6F6 SWAP4 ADD PUSH2 0x1936 JUMP JUMPDEST SWAP1 PUSH2 0x6D8 PUSH1 0x40 DUP3 ADD PUSH2 0x1936 JUMP JUMPDEST PUSH2 0x6F0 PUSH1 0x80 PUSH2 0x6E9 PUSH1 0x60 DUP6 ADD PUSH2 0x1936 JUMP JUMPDEST SWAP4 ADD PUSH2 0x1936 JUMP JUMPDEST SWAP3 PUSH2 0x194A JUMP JUMPDEST DUP1 RETURN JUMPDEST POP DUP1 REVERT JUMPDEST PUSH1 0x40 MLOAD PUSH4 0x7FCCE2A9 PUSH1 0xE0 SHL DUP2 MSTORE PUSH1 0x4 SWAP1 REVERT JUMPDEST PUSH1 0x40 MLOAD PUSH4 0x439A74C9 PUSH1 0xE0 SHL DUP2 MSTORE PUSH1 0x4 SWAP1 REVERT JUMPDEST POP CALLVALUE PUSH2 0x1A4 JUMPI PUSH1 0x20 CALLDATASIZE PUSH1 0x3 NOT ADD SLT PUSH2 0x1A4 JUMPI PUSH1 0x60 SWAP1 PUSH1 0x1 PUSH1 0x1 PUSH1 0xA0 SHL SUB SWAP1 PUSH2 0x780 SWAP1 PUSH1 0x40 SWAP1 DUP4 PUSH2 0x74F PUSH2 0x16C6 JUMP JUMPDEST AND DUP2 MSTORE PUSH1 0x7 PUSH1 0x20 MSTORE KECCAK256 SWAP2 DUP3 SLOAD AND SWAP2 PUSH1 0xFF PUSH1 0x2 PUSH1 0x1 DUP4 ADD SLOAD SWAP3 ADD SLOAD AND SWAP1 PUSH1 0x40 MLOAD SWAP4 DUP5 MSTORE PUSH1 0x20 DUP5 ADD MSTORE PUSH1 0x40 DUP4 ADD SWAP1 PUSH2 0x183A JUMP JUMPDEST RETURN JUMPDEST POP CALLVALUE PUSH2 0x1A4 JUMPI PUSH1 0x20 CALLDATASIZE PUSH1 0x3 NOT ADD SLT PUSH2 0x1A4 JUMPI PUSH1 0x20 SWAP1 PUSH1 0xFF SWAP1 PUSH1 0x2 SWAP1 PUSH1 0x40 SWAP1 PUSH1 0x1 PUSH1 0x1 PUSH1 0xA0 SHL SUB PUSH2 0x7B0 PUSH2 0x16C6 JUMP JUMPDEST AND DUP2 MSTORE PUSH1 0x7 DUP6 MSTORE KECCAK256 ADD SLOAD AND PUSH2 0x780 PUSH1 0x40 MLOAD DUP1 SWAP3 PUSH2 0x183A JUMP JUMPDEST POP CALLVALUE PUSH2 0x1A4 JUMPI DUP1 PUSH1 0x3 NOT CALLDATASIZE ADD SLT PUSH2 0x1A4 JUMPI PUSH1 0x20 PUSH1 0x1 PUSH1 0x1 PUSH1 0x40 SHL SUB PUSH1 0xA SLOAD PUSH1 0x40 SHR AND PUSH1 0x40 MLOAD SWAP1 DUP2 MSTORE RETURN JUMPDEST POP CALLVALUE PUSH2 0x1A4 JUMPI DUP1 PUSH1 0x3 NOT CALLDATASIZE ADD SLT PUSH2 0x1A4 JUMPI PUSH1 0xFF PUSH1 0x20 SWAP2 SLOAD AND PUSH1 0x40 MLOAD SWAP1 ISZERO ISZERO DUP2 MSTORE RETURN JUMPDEST POP CALLVALUE PUSH2 0x1A4 JUMPI DUP1 PUSH1 0x3 NOT CALLDATASIZE ADD SLT PUSH2 0x1A4 JUMPI PUSH1 0x20 PUSH1 0x1 PUSH1 0x1 PUSH1 0x40 SHL SUB PUSH1 0xA SLOAD PUSH1 0x80 SHR AND PUSH1 0x40 MLOAD SWAP1 DUP2 MSTORE RETURN JUMPDEST POP CALLVALUE PUSH2 0x1A4 JUMPI PUSH1 0x20 CALLDATASIZE PUSH1 0x3 NOT ADD SLT PUSH2 0x1A4 JUMPI PUSH1 0x40 PUSH2 0x85A PUSH2 0x16C6 JUMP JUMPDEST SWAP2 DUP1 DUP3 DUP1 MLOAD PUSH2 0x868 DUP2 PUSH2 0x1642 JUMP JUMPDEST DUP3 DUP2 MSTORE DUP3 PUSH1 0x20 DUP3 ADD MSTORE ADD MSTORE PUSH1 0x1 DUP1 PUSH1 0xA0 SHL SUB DUP1 SWAP4 AND DUP2 MSTORE PUSH1 0x7 PUSH1 0x20 MSTORE KECCAK256 PUSH1 0x40 MLOAD SWAP1 PUSH2 0x892 DUP3 PUSH2 0x1642 JUMP JUMPDEST DUP3 DUP2 SLOAD AND DUP3 MSTORE PUSH1 0xFF PUSH1 0x2 PUSH1 0x1 DUP4 ADD SLOAD SWAP3 PUSH1 0x20 DUP6 ADD SWAP4 DUP5 MSTORE ADD SLOAD AND SWAP1 PUSH1 0x40 DUP4 ADD SWAP1 PUSH1 0x7 DUP4 LT ISZERO PUSH2 0x8DD JUMPI PUSH1 0x60 SWAP5 PUSH2 0x780 SWAP4 DUP4 MSTORE PUSH1 0x40 MLOAD SWAP5 MLOAD AND DUP5 MSTORE MLOAD PUSH1 0x20 DUP5 ADD MSTORE MLOAD PUSH1 0x40 DUP4 ADD SWAP1 PUSH2 0x183A JUMP JUMPDEST PUSH4 0x4E487B71 PUSH1 0xE0 SHL PUSH1 0x0 MSTORE PUSH1 0x21 PUSH1 0x4 MSTORE PUSH1 0x24 PUSH1 0x0 REVERT JUMPDEST POP CALLVALUE PUSH2 0x1A4 JUMPI PUSH1 0x40 CALLDATASIZE PUSH1 0x3 NOT ADD SLT PUSH2 0x1A4 JUMPI PUSH1 0x1 PUSH1 0x1 PUSH1 0x40 SHL SUB PUSH1 0x4 CALLDATALOAD DUP2 DUP2 GT PUSH2 0x5DF JUMPI PUSH2 0x925 SWAP1 CALLDATASIZE SWAP1 PUSH1 0x4 ADD PUSH2 0x16DC JUMP JUMPDEST SWAP2 PUSH1 0x24 SWAP2 DUP3 CALLDATALOAD SWAP1 DUP1 DUP3 GT PUSH2 0x5DF JUMPI CALLDATASIZE PUSH1 0x23 DUP4 ADD SLT ISZERO PUSH2 0x5DF JUMPI DUP2 PUSH1 0x4 ADD CALLDATALOAD PUSH2 0x94C DUP2 PUSH2 0x16AF JUMP JUMPDEST SWAP3 PUSH2 0x95A PUSH1 0x40 MLOAD SWAP5 DUP6 PUSH2 0x168E JUMP JUMPDEST DUP2 DUP5 MSTORE PUSH1 0x20 SWAP6 DUP1 DUP8 DUP7 ADD SWAP4 PUSH1 0x5 SHL DUP4 ADD ADD SWAP4 CALLDATASIZE DUP6 GT PUSH2 0x60A JUMPI DUP2 DUP4 ADD SWAP4 JUMPDEST DUP6 DUP6 LT PUSH2 0xAD6 JUMPI POP POP POP POP POP POP DUP4 MLOAD SWAP1 DUP1 MLOAD DUP3 SUB PUSH2 0xAC4 JUMPI PUSH2 0x99C DUP3 SWAP6 SWAP4 SWAP6 PUSH2 0x16AF JUMP JUMPDEST SWAP3 PUSH2 0x9AA PUSH1 0x40 MLOAD SWAP5 DUP6 PUSH2 0x168E JUMP JUMPDEST DUP3 DUP5 MSTORE PUSH1 0x1F NOT PUSH2 0x9B9 DUP5 PUSH2 0x16AF JUMP JUMPDEST ADD DUP7 JUMPDEST DUP2 DUP2 LT PUSH2 0xA9A JUMPI POP POP DUP6 JUMPDEST DUP4 DUP2 LT PUSH2 0xA20 JUMPI POP POP POP POP PUSH1 0x40 MLOAD SWAP2 DUP1 DUP4 ADD SWAP1 DUP1 DUP5 MSTORE DUP3 MLOAD DUP1 SWAP3 MSTORE DUP1 PUSH1 0x40 DUP6 ADD SWAP4 ADD SWAP5 JUMPDEST DUP3 DUP2 LT PUSH2 0x9F8 JUMPI DUP5 DUP5 SUB DUP6 RETURN JUMPDEST DUP6 MLOAD DUP1 MLOAD PUSH1 0x1 PUSH1 0x1 PUSH1 0xA0 SHL SUB AND DUP6 MSTORE DUP3 ADD MLOAD DUP5 DUP4 ADD MSTORE SWAP5 DUP2 ADD SWAP5 PUSH1 0x40 SWAP1 SWAP4 ADD SWAP3 PUSH1 0x1 ADD PUSH2 0x9EB JUMP JUMPDEST SWAP4 SWAP6 SWAP4 PUSH1 0x1 PUSH1 0x1 PUSH1 0xA0 SHL SUB PUSH2 0xA35 DUP3 DUP5 PUSH2 0x186A JUMP JUMPDEST MLOAD AND SWAP1 PUSH2 0xA42 DUP2 DUP6 PUSH2 0x186A JUMP JUMPDEST POP PUSH1 0x0 DUP8 PUSH1 0x40 MLOAD PUSH2 0xA52 DUP2 PUSH2 0x1673 JUMP JUMPDEST DUP3 DUP2 MSTORE ADD MSTORE DUP2 DUP7 MSTORE PUSH1 0x7 DUP8 MSTORE PUSH1 0x1 SWAP2 DUP3 PUSH1 0x40 DUP9 KECCAK256 ADD SLOAD PUSH1 0x40 MLOAD SWAP2 PUSH2 0xA75 DUP4 PUSH2 0x1673 JUMP JUMPDEST DUP3 MSTORE DUP9 DUP3 ADD MSTORE PUSH2 0xA85 DUP3 DUP11 PUSH2 0x186A JUMP JUMPDEST MSTORE PUSH2 0xA90 DUP2 DUP10 PUSH2 0x186A JUMP JUMPDEST POP ADD SWAP6 SWAP4 SWAP6 PUSH2 0x9C7 JUMP JUMPDEST DUP7 SWAP1 PUSH1 0x40 SWAP9 SWAP7 SWAP9 MLOAD PUSH2 0xAAB DUP2 PUSH2 0x1673 JUMP JUMPDEST PUSH1 0x0 DUP2 MSTORE PUSH1 0x0 DUP4 DUP3 ADD MSTORE DUP3 DUP3 DUP12 ADD ADD MSTORE ADD SWAP7 SWAP5 SWAP7 PUSH2 0x9BC JUMP JUMPDEST PUSH1 0x40 MLOAD PUSH4 0x3DA4C02B PUSH1 0xE1 SHL DUP2 MSTORE PUSH1 0x4 SWAP1 REVERT JUMPDEST DUP5 CALLDATALOAD DUP3 DUP2 GT PUSH2 0xAFC JUMPI DUP10 SWAP2 PUSH2 0xAF1 DUP4 SWAP3 DUP7 CALLDATASIZE SWAP2 DUP10 ADD ADD PUSH2 0x1765 JUMP JUMPDEST DUP2 MSTORE ADD SWAP5 ADD SWAP4 PUSH2 0x978 JUMP JUMPDEST DUP9 DUP1 REVERT JUMPDEST POP CALLVALUE PUSH2 0x1A4 JUMPI DUP1 PUSH1 0x3 NOT CALLDATASIZE ADD SLT PUSH2 0x1A4 JUMPI PUSH1 0x20 PUSH1 0x40 MLOAD PUSH20 0xEEEEEEEEEEEEEEEEEEEEEEEEEEEEEEEEEEEEEEEE DUP2 MSTORE RETURN JUMPDEST POP CALLVALUE PUSH2 0x1A4 JUMPI DUP1 PUSH1 0x3 NOT CALLDATASIZE ADD SLT PUSH2 0x1A4 JUMPI PUSH1 0x20 PUSH1 0x1 PUSH1 0x1 PUSH1 0x40 SHL SUB PUSH1 0xA SLOAD AND PUSH1 0x40 MLOAD SWAP1 DUP2 MSTORE RETURN JUMPDEST POP CALLVALUE PUSH2 0x1A4 JUMPI DUP1 PUSH1 0x3 NOT CALLDATASIZE ADD SLT PUSH2 0x1A4 JUMPI PUSH1 0x3 SLOAD PUSH1 0x40 MLOAD PUSH1 0x1 PUSH1 0x1 PUSH1 0xA0 SHL SUB SWAP1 SWAP2 AND DUP2 MSTORE PUSH1 0x20 SWAP1 RETURN JUMPDEST POP CALLVALUE PUSH2 0x1A4 JUMPI DUP1 PUSH1 0x3 NOT CALLDATASIZE ADD SLT PUSH2 0x1A4 JUMPI PUSH2 0xB98 PUSH2 0x18DE JUMP JUMPDEST PUSH1 0x6 SLOAD PUSH1 0x40 MLOAD PUSH4 0x70A08231 PUSH1 0xE0 SHL DUP2 MSTORE ADDRESS PUSH1 0x4 DUP3 ADD MSTORE PUSH1 0x1 PUSH1 0x1 PUSH1 0xA0 SHL SUB SWAP2 DUP3 AND PUSH1 0x20 DUP3 PUSH1 0x24 DUP2 DUP5 GAS STATICCALL SWAP2 DUP3 ISZERO PUSH2 0xC27 JUMPI DUP5 SWAP3 PUSH2 0xBEF JUMPI JUMPDEST POP DUP2 PUSH2 0xBDA JUMPI DUP4 DUP1 RETURN JUMPDEST PUSH2 0xBE8 SWAP3 PUSH1 0x3 SLOAD AND SWAP1 PUSH2 0x1CA4 JUMP JUMPDEST CODESIZE DUP1 DUP1 DUP4 DUP1 RETURN JUMPDEST SWAP1 SWAP2 POP PUSH1 0x20 DUP2 RETURNDATASIZE DUP3 GT PUSH2 0xC1F JUMPI JUMPDEST DUP2 PUSH2 0xC0A PUSH1 0x20 SWAP4 DUP4 PUSH2 0x168E JUMP JUMPDEST DUP2 ADD SUB SLT PUSH2 0xC1A JUMPI MLOAD SWAP1 CODESIZE PUSH2 0xBD0 JUMP JUMPDEST PUSH1 0x0 DUP1 REVERT JUMPDEST RETURNDATASIZE SWAP2 POP PUSH2 0xBFD JUMP JUMPDEST PUSH1 0x40 MLOAD RETURNDATASIZE DUP7 DUP3 RETURNDATACOPY RETURNDATASIZE SWAP1 REVERT JUMPDEST POP CALLVALUE PUSH2 0x1A4 JUMPI DUP1 PUSH1 0x3 NOT CALLDATASIZE ADD SLT PUSH2 0x1A4 JUMPI PUSH2 0xC4B PUSH2 0x18DE JUMP JUMPDEST PUSH1 0x3 DUP1 SLOAD PUSH1 0x1 PUSH1 0x1 PUSH1 0xA0 SHL SUB NOT DUP2 AND SWAP1 SWAP2 SSTORE PUSH1 0x0 SWAP1 PUSH1 0x1 PUSH1 0x1 PUSH1 0xA0 SHL SUB AND PUSH32 0x8BE0079C531659141344CD1FD0A4F28419497F9722A3DAAFE3B4186F6B6457E0 DUP3 DUP1 LOG3 DUP1 RETURN JUMPDEST POP CALLVALUE PUSH2 0x1A4 JUMPI PUSH1 0x20 CALLDATASIZE PUSH1 0x3 NOT ADD SLT PUSH2 0x1A4 JUMPI PUSH1 0x4 CALLDATALOAD SWAP1 PUSH1 0x8 SLOAD DUP3 LT ISZERO PUSH2 0x1A4 JUMPI PUSH1 0x20 PUSH2 0xCBB DUP4 PUSH2 0x17AC JUMP JUMPDEST SWAP1 SLOAD PUSH1 0x40 MLOAD PUSH1 0x3 SWAP3 SWAP1 SWAP3 SHL SHR PUSH1 0x1 PUSH1 0x1 PUSH1 0xA0 SHL SUB AND DUP2 MSTORE RETURN JUMPDEST POP CALLVALUE PUSH2 0x1A4 JUMPI PUSH1 0x20 CALLDATASIZE PUSH1 0x3 NOT ADD SLT PUSH2 0x1A4 JUMPI PUSH2 0xCEE PUSH2 0x16C6 JUMP JUMPDEST POP PUSH1 0x20 PUSH1 0x40 MLOAD PUSH1 0x1 DUP2 MSTORE RETURN JUMPDEST POP CALLVALUE PUSH2 0x1A4 JUMPI DUP1 PUSH1 0x3 NOT CALLDATASIZE ADD SLT PUSH2 0x1A4 JUMPI PUSH1 0x20 PUSH1 0x2 SLOAD PUSH1 0x40 MLOAD SWAP1 DUP2 MSTORE RETURN JUMPDEST POP CALLVALUE PUSH2 0x1A4 JUMPI DUP1 PUSH1 0x3 NOT CALLDATASIZE ADD SLT PUSH2 0x1A4 JUMPI PUSH1 0x20 PUSH1 0xA SLOAD PUSH1 0xC0 SHR PUSH1 0x40 MLOAD SWAP1 DUP2 MSTORE RETURN JUMPDEST POP CALLVALUE PUSH2 0x1A4 JUMPI DUP1 PUSH1 0x3 NOT CALLDATASIZE ADD SLT PUSH2 0x1A4 JUMPI PUSH1 0x20 PUSH1 0x40 MLOAD PUSH32 0x0 DUP2 MSTORE RETURN JUMPDEST POP CALLVALUE PUSH2 0x1A4 JUMPI DUP1 PUSH1 0x3 NOT CALLDATASIZE ADD SLT PUSH2 0x1A4 JUMPI PUSH1 0x20 PUSH1 0x1 SLOAD PUSH1 0x40 MLOAD SWAP1 DUP2 MSTORE RETURN JUMPDEST POP CALLVALUE PUSH2 0x1A4 JUMPI DUP1 PUSH1 0x3 NOT CALLDATASIZE ADD SLT PUSH2 0x1A4 JUMPI PUSH1 0x20 PUSH1 0x8 SLOAD PUSH1 0x40 MLOAD SWAP1 DUP2 MSTORE RETURN JUMPDEST POP CALLVALUE PUSH2 0x1A4 JUMPI PUSH1 0x40 CALLDATASIZE PUSH1 0x3 NOT ADD SLT PUSH2 0x1A4 JUMPI PUSH2 0xDCA PUSH2 0x16C6 JUMP JUMPDEST PUSH1 0x24 CALLDATALOAD PUSH1 0x7 DUP2 LT ISZERO PUSH2 0x5DF JUMPI PUSH1 0x20 PUSH32 0x256C90EEEC0565314AFB6BDF67C3A909A88BD142E40D03C91A1F68E2A6BC35DB SWAP2 PUSH2 0xE02 PUSH2 0x18DE JUMP JUMPDEST PUSH1 0x1 PUSH1 0x1 PUSH1 0xA0 SHL SUB SWAP4 DUP5 AND DUP1 DUP7 MSTORE PUSH1 0x7 DUP4 MSTORE PUSH1 0x40 DUP7 KECCAK256 SLOAD SWAP1 SWAP5 PUSH2 0xE27 SWAP2 AND ISZERO ISZERO PUSH2 0x1B62 JUMP JUMPDEST DUP4 DUP6 MSTORE PUSH1 0x7 DUP3 MSTORE PUSH2 0xE3E DUP2 PUSH1 0x2 PUSH1 0x40 DUP9 KECCAK256 ADD PUSH2 0x1AE5 JUMP JUMPDEST PUSH2 0xE4B PUSH1 0x40 MLOAD DUP1 SWAP3 PUSH2 0x183A JUMP JUMPDEST LOG2 DUP1 RETURN JUMPDEST POP PUSH2 0xE59 CALLDATASIZE PUSH2 0x17F9 JUMP JUMPDEST POP PUSH2 0xE62 PUSH2 0x187E JUMP JUMPDEST PUSH2 0xE6A PUSH2 0x18C2 JUMP JUMPDEST PUSH1 0xA SLOAD PUSH1 0x1 PUSH1 0x1 PUSH1 0x40 SHL SUB DUP1 DUP3 AND TIMESTAMP LT ISZERO SWAP2 DUP3 PUSH2 0x107A JUMPI JUMPDEST POP POP ISZERO PUSH2 0x1035 JUMPI PUSH2 0xE91 PUSH2 0x1AFD JUMP JUMPDEST PUSH1 0x40 DUP2 DUP1 MLOAD DUP2 ADD SUB SLT PUSH2 0x6F9 JUMPI PUSH1 0x20 SWAP2 DUP3 DUP3 ADD MLOAD SWAP2 PUSH1 0x1 DUP1 PUSH1 0xA0 SHL SUB SWAP1 DUP2 DUP5 AND DUP1 SWAP5 SUB PUSH2 0x5DF JUMPI PUSH1 0x40 ADD MLOAD SWAP2 DUP4 DUP2 MSTORE PUSH1 0x7 DUP6 MSTORE DUP2 PUSH1 0x40 DUP3 KECCAK256 SLOAD AND PUSH2 0xFF0 JUMPI PUSH1 0x40 MLOAD PUSH2 0xEDB DUP2 PUSH2 0x1642 JUMP JUMPDEST DUP5 DUP2 MSTORE DUP6 DUP2 ADD DUP5 DUP2 MSTORE PUSH1 0x40 DUP3 ADD SWAP1 PUSH1 0x1 DUP3 MSTORE DUP7 DUP5 MSTORE PUSH1 0x7 DUP9 MSTORE DUP5 PUSH1 0x40 DUP6 KECCAK256 SWAP4 MLOAD AND PUSH12 0xFFFFFFFFFFFFFFFFFFFFFFFF PUSH1 0xA0 SHL DUP5 SLOAD AND OR DUP4 SSTORE MLOAD PUSH1 0x1 DUP4 ADD SSTORE MLOAD SWAP1 PUSH1 0x7 DUP3 LT ISZERO PUSH2 0xFDC JUMPI SWAP1 PUSH1 0x2 PUSH2 0xF30 SWAP3 ADD PUSH2 0x1AE5 JUMP JUMPDEST PUSH1 0x8 SLOAD SWAP1 PUSH1 0x1 PUSH1 0x40 SHL DUP3 LT ISZERO PUSH2 0xFC8 JUMPI POP DUP4 SWAP3 PUSH32 0x695E999BE8100BDB5BEE8612337296508D527EAE78C65B8F170EACB5A3B439D SWAP3 PUSH2 0xF76 DUP4 PUSH1 0x1 DUP10 SWAP6 ADD PUSH1 0x8 SSTORE PUSH2 0x17AC JUMP JUMPDEST DUP2 SWAP3 SWAP2 SLOAD SWAP1 PUSH1 0x3 SHL SWAP2 DUP8 DUP4 SHL SWAP3 SHL NOT AND OR SWAP1 SSTORE PUSH1 0x40 MLOAD SWAP1 DUP2 MSTORE LOG2 DUP1 PUSH32 0x256C90EEEC0565314AFB6BDF67C3A909A88BD142E40D03C91A1F68E2A6BC35DB DUP4 PUSH1 0x40 MLOAD PUSH1 0x1 DUP2 MSTORE LOG2 PUSH1 0x1 PUSH1 0x4 SSTORE PUSH1 0x40 MLOAD SWAP1 DUP2 MSTORE RETURN JUMPDEST PUSH4 0x4E487B71 PUSH1 0xE0 SHL DUP2 MSTORE PUSH1 0x41 PUSH1 0x4 MSTORE PUSH1 0x24 SWAP1 REVERT JUMPDEST PUSH4 0x4E487B71 PUSH1 0xE0 SHL DUP4 MSTORE PUSH1 0x21 PUSH1 0x4 MSTORE PUSH1 0x24 DUP4 REVERT JUMPDEST PUSH1 0x40 MLOAD PUSH3 0x461BCD PUSH1 0xE5 SHL DUP2 MSTORE PUSH1 0x4 DUP2 ADD DUP7 SWAP1 MSTORE PUSH1 0x1C PUSH1 0x24 DUP3 ADD MSTORE PUSH32 0x526563697069656E7420616C7265616479207265676973746572656400000000 PUSH1 0x44 DUP3 ADD MSTORE PUSH1 0x64 SWAP1 REVERT JUMPDEST PUSH1 0x40 MLOAD PUSH3 0x461BCD PUSH1 0xE5 SHL DUP2 MSTORE PUSH1 0x20 PUSH1 0x4 DUP3 ADD MSTORE PUSH1 0x1A PUSH1 0x24 DUP3 ADD MSTORE PUSH32 0x526567697374726174696F6E206973206E6F7420616374697665000000000000 PUSH1 0x44 DUP3 ADD MSTORE PUSH1 0x64 SWAP1 REVERT JUMPDEST PUSH1 0x40 SHR AND TIMESTAMP GT ISZERO SWAP1 POP CODESIZE DUP1 PUSH2 0xE82 JUMP JUMPDEST POP CALLVALUE PUSH2 0x1A4 JUMPI PUSH1 0x80 CALLDATASIZE PUSH1 0x3 NOT ADD SLT PUSH2 0x1A4 JUMPI PUSH1 0x4 CALLDATALOAD PUSH1 0x1 PUSH1 0x1 PUSH1 0x40 SHL SUB DUP1 DUP3 AND DUP3 SUB PUSH2 0xC1A JUMPI PUSH1 0x24 CALLDATALOAD DUP2 DUP2 AND DUP2 SUB PUSH2 0xC1A JUMPI PUSH1 0x44 CALLDATALOAD SWAP1 DUP3 DUP3 AND DUP3 SUB PUSH2 0xC1A JUMPI PUSH1 0x64 CALLDATALOAD SWAP3 DUP4 AND DUP4 SUB PUSH2 0xC1A JUMPI PUSH2 0x6F6 SWAP4 PUSH2 0x10E1 PUSH2 0x18DE JUMP JUMPDEST PUSH2 0x194A JUMP JUMPDEST POP CALLVALUE PUSH2 0x1A4 JUMPI DUP1 PUSH1 0x3 NOT CALLDATASIZE ADD SLT PUSH2 0x1A4 JUMPI PUSH1 0x5 SLOAD PUSH1 0x40 MLOAD PUSH1 0x1 PUSH1 0x1 PUSH1 0xA0 SHL SUB SWAP1 SWAP2 AND DUP2 MSTORE PUSH1 0x20 SWAP1 RETURN JUMPDEST POP CALLVALUE PUSH2 0x1A4 JUMPI DUP1 PUSH1 0x3 NOT CALLDATASIZE ADD SLT PUSH2 0x1A4 JUMPI PUSH1 0x40 MLOAD PUSH32 0x0 PUSH1 0x1 PUSH1 0x1 PUSH1 0xA0 SHL SUB AND DUP2 MSTORE PUSH1 0x20 SWAP1 RETURN JUMPDEST POP CALLVALUE PUSH2 0x1A4 JUMPI PUSH1 0x20 CALLDATASIZE PUSH1 0x3 NOT ADD SLT PUSH2 0x1A4 JUMPI PUSH1 0x4 CALLDATALOAD PUSH1 0x9 SLOAD DUP2 LT ISZERO PUSH2 0x6F9 JUMPI PUSH1 0x9 PUSH1 0x0 MSTORE PUSH1 0x0 DUP1 MLOAD PUSH1 0x20 PUSH2 0x1EC0 DUP4 CODECOPY DUP2 MLOAD SWAP2 MSTORE ADD SLOAD PUSH1 0x40 MLOAD PUSH1 0x1 PUSH1 0x1 PUSH1 0xA0 SHL SUB SWAP1 SWAP2 AND DUP2 MSTORE PUSH1 0x20 SWAP1 RETURN JUMPDEST POP CALLVALUE PUSH2 0x1A4 JUMPI PUSH1 0x60 CALLDATASIZE PUSH1 0x3 NOT ADD SLT PUSH2 0x1A4 JUMPI PUSH1 0x4 CALLDATALOAD PUSH1 0x1 PUSH1 0x1 PUSH1 0x40 SHL SUB DUP2 GT PUSH2 0x6F9 JUMPI PUSH2 0x11CF SWAP1 CALLDATASIZE SWAP1 PUSH1 0x4 ADD PUSH2 0x16DC JUMP JUMPDEST PUSH1 0x24 CALLDATALOAD PUSH1 0x1 PUSH1 0x1 PUSH1 0x40 SHL SUB DUP2 GT PUSH2 0x5DF JUMPI PUSH2 0x11EE SWAP1 CALLDATASIZE SWAP1 PUSH1 0x4 ADD PUSH2 0x1765 JUMP JUMPDEST PUSH1 0x44 CALLDATALOAD PUSH1 0x1 PUSH1 0x1 PUSH1 0xA0 SHL SUB DUP2 AND DUP2 SUB PUSH2 0x5E3 JUMPI PUSH2 0x1209 PUSH2 0x187E JUMP JUMPDEST PUSH2 0x1211 PUSH2 0x18C2 JUMP JUMPDEST PUSH1 0xA SLOAD PUSH1 0xC0 SHR TIMESTAMP GT ISZERO PUSH2 0x14E4 JUMPI PUSH2 0x122F SWAP1 PUSH2 0x122A PUSH2 0x1AFD JUMP JUMPDEST PUSH2 0x1BC6 JUMP JUMPDEST PUSH1 0x20 DUP2 DUP1 MLOAD DUP2 ADD SUB SLT PUSH2 0x5DF JUMPI PUSH1 0x20 ADD MLOAD SWAP1 DUP1 MLOAD PUSH2 0x124C DUP2 PUSH2 0x16AF JUMP JUMPDEST SWAP1 PUSH2 0x125A PUSH1 0x40 MLOAD SWAP3 DUP4 PUSH2 0x168E JUMP JUMPDEST DUP1 DUP3 MSTORE PUSH2 0x1269 PUSH1 0x1F NOT SWAP2 PUSH2 0x16AF JUMP JUMPDEST ADD CALLDATASIZE PUSH1 0x20 DUP4 ADD CALLDATACOPY DUP4 SWAP2 DUP3 JUMPDEST DUP2 MLOAD DUP5 LT ISZERO PUSH2 0x12D0 JUMPI PUSH2 0x12CA SWAP1 PUSH2 0x12C4 SWAP1 PUSH1 0x1 PUSH1 0x1 PUSH1 0xA0 SHL SUB PUSH2 0x1297 DUP8 DUP7 PUSH2 0x186A JUMP JUMPDEST MLOAD AND DUP9 MSTORE PUSH1 0x7 PUSH1 0x20 MSTORE PUSH1 0x1 PUSH1 0x40 DUP10 KECCAK256 ADD SLOAD PUSH2 0x12B2 DUP8 DUP8 PUSH2 0x186A JUMP JUMPDEST MSTORE PUSH2 0x12BD DUP7 DUP7 PUSH2 0x186A JUMP JUMPDEST MLOAD SWAP1 PUSH2 0x1847 JUMP JUMPDEST SWAP4 PUSH2 0x1B53 JUMP JUMPDEST SWAP3 PUSH2 0x1274 JUMP JUMPDEST DUP5 DUP7 SWAP4 DUP3 PUSH1 0x2 SLOAD LT PUSH2 0x149F JUMPI PUSH1 0x6 SLOAD PUSH1 0x5 SLOAD PUSH2 0x12FA SWAP2 DUP6 SWAP2 PUSH1 0x1 PUSH1 0x1 PUSH1 0xA0 SHL SUB SWAP1 DUP2 AND SWAP2 AND PUSH2 0x1CA4 JUMP JUMPDEST PUSH1 0x5 SLOAD PUSH1 0x1 SLOAD PUSH1 0x6 SLOAD SWAP1 SWAP4 PUSH1 0x1 PUSH1 0x1 PUSH1 0xA0 SHL SUB SWAP3 DUP4 AND SWAP4 SWAP3 SWAP1 SWAP2 AND DUP4 EXTCODESIZE ISZERO PUSH2 0x606 JUMPI PUSH1 0x40 MLOAD PUSH3 0x8CD625 PUSH1 0xE6 SHL DUP2 MSTORE PUSH1 0x4 DUP2 ADD SWAP6 SWAP1 SWAP6 MSTORE PUSH1 0x24 DUP6 ADD MSTORE PUSH1 0xC0 PUSH1 0x44 DUP6 ADD MSTORE DUP7 SWAP3 DUP5 SWAP3 SWAP1 SWAP2 PUSH2 0x134F PUSH1 0xC4 DUP6 ADD DUP10 PUSH2 0x1C67 JUMP JUMPDEST PUSH1 0x3 NOT DUP6 DUP3 SUB ADD PUSH1 0x64 DUP7 ADD MSTORE PUSH1 0x20 DUP1 DUP5 MLOAD SWAP3 DUP4 DUP2 MSTORE ADD SWAP4 ADD SWAP1 DUP7 JUMPDEST DUP2 DUP2 LT PUSH2 0x1483 JUMPI POP POP POP PUSH1 0x84 DUP5 ADD MSTORE PUSH1 0x3 NOT DUP4 DUP3 SUB ADD PUSH1 0xA4 DUP5 ADD MSTORE PUSH1 0x20 PUSH1 0x9 SLOAD SWAP2 DUP3 DUP2 MSTORE ADD SWAP1 PUSH1 0x9 DUP6 MSTORE PUSH1 0x0 DUP1 MLOAD PUSH1 0x20 PUSH2 0x1EC0 DUP4 CODECOPY DUP2 MLOAD SWAP2 MSTORE SWAP1 DUP6 JUMPDEST DUP2 DUP2 LT PUSH2 0x145E JUMPI POP POP POP DUP4 DUP4 DUP1 SWAP3 SUB SWAP3 GAS CALL DUP1 ISZERO PUSH2 0xC27 JUMPI PUSH2 0x140F JUMPI JUMPDEST POP PUSH32 0x6215DF0421B8B71FFBC92898B478B5AD9520EC5034D7C686BBDC7AFDFAD068E8 SWAP2 PUSH2 0x13FE SWAP2 PUSH1 0x40 MLOAD SWAP3 DUP4 SWAP3 PUSH1 0x40 DUP5 MSTORE PUSH1 0x40 DUP5 ADD SWAP1 PUSH2 0x1C67 JUMP JUMPDEST SWAP1 PUSH1 0x20 DUP4 ADD MSTORE SUB SWAP1 LOG1 PUSH1 0x1 PUSH1 0x4 SSTORE DUP1 RETURN JUMPDEST PUSH1 0x1 PUSH1 0x1 PUSH1 0x40 SHL SUB DUP2 SWAP5 SWAP3 SWAP5 GT PUSH2 0x144A JUMPI PUSH1 0x40 MSTORE SWAP2 PUSH32 0x6215DF0421B8B71FFBC92898B478B5AD9520EC5034D7C686BBDC7AFDFAD068E8 PUSH2 0x13C3 JUMP JUMPDEST PUSH4 0x4E487B71 PUSH1 0xE0 SHL DUP3 MSTORE PUSH1 0x41 PUSH1 0x4 MSTORE PUSH1 0x24 DUP3 REVERT JUMPDEST DUP3 SLOAD PUSH1 0x1 PUSH1 0x1 PUSH1 0xA0 SHL SUB AND DUP5 MSTORE DUP11 SWAP7 POP DUP8 SWAP6 POP PUSH1 0x20 SWAP1 SWAP4 ADD SWAP3 PUSH1 0x1 SWAP3 DUP4 ADD SWAP3 ADD PUSH2 0x13A6 JUMP JUMPDEST DUP3 MLOAD DUP6 MSTORE DUP12 SWAP8 POP DUP9 SWAP7 POP PUSH1 0x20 SWAP5 DUP6 ADD SWAP5 SWAP1 SWAP3 ADD SWAP2 PUSH1 0x1 ADD PUSH2 0x136A JUMP JUMPDEST PUSH1 0x40 MLOAD PUSH3 0x461BCD PUSH1 0xE5 SHL DUP2 MSTORE PUSH1 0x20 PUSH1 0x4 DUP3 ADD MSTORE PUSH1 0x1D PUSH1 0x24 DUP3 ADD MSTORE PUSH32 0x506F6F6C20616C6C6F636174696F6E2066756E647320746F6F206C6F77000000 PUSH1 0x44 DUP3 ADD MSTORE PUSH1 0x64 SWAP1 REVERT JUMPDEST PUSH1 0x40 MLOAD PUSH3 0x461BCD PUSH1 0xE5 SHL DUP2 MSTORE PUSH1 0x20 PUSH1 0x4 DUP3 ADD MSTORE PUSH1 0x1F PUSH1 0x24 DUP3 ADD MSTORE PUSH32 0x416C6C6F636174696F6E20706572696F6420686173206E6F7420656E64656400 PUSH1 0x44 DUP3 ADD MSTORE PUSH1 0x64 SWAP1 REVERT JUMPDEST POP CALLVALUE PUSH2 0x1A4 JUMPI PUSH1 0x20 SWAP1 DUP2 PUSH1 0x3 NOT CALLDATASIZE ADD SLT PUSH2 0x1A4 JUMPI PUSH1 0x1 PUSH1 0x1 PUSH1 0x40 SHL SUB PUSH1 0x4 CALLDATALOAD DUP2 DUP2 GT PUSH2 0x5DF JUMPI PUSH2 0x155D SWAP1 CALLDATASIZE SWAP1 PUSH1 0x4 ADD PUSH2 0x16DC JUMP JUMPDEST SWAP1 PUSH2 0x1566 PUSH2 0x18DE JUMP JUMPDEST DUP2 MLOAD SWAP1 DUP2 GT PUSH2 0x162E JUMPI PUSH1 0x1 PUSH1 0x40 SHL DUP2 GT PUSH2 0x162E JUMPI PUSH1 0x9 SLOAD DUP2 PUSH1 0x9 SSTORE DUP1 DUP3 LT PUSH2 0x1600 JUMPI JUMPDEST POP DUP4 DUP3 ADD PUSH1 0x9 DUP5 MSTORE DUP4 JUMPDEST DUP3 DUP2 LT PUSH2 0x15D7 JUMPI PUSH1 0x40 MLOAD DUP7 DUP2 MSTORE DUP6 SWAP1 PUSH32 0xBA55FCA14CA25313D8196ABBEE269381AD67BE27729F5073609A3EB9318391A SWAP1 DUP1 PUSH2 0x15D1 DUP2 DUP12 ADD DUP10 PUSH2 0x1C67 JUMP JUMPDEST SUB SWAP1 LOG1 DUP1 RETURN JUMPDEST DUP2 MLOAD PUSH1 0x1 PUSH1 0x1 PUSH1 0xA0 SHL SUB AND PUSH1 0x0 DUP1 MLOAD PUSH1 0x20 PUSH2 0x1EC0 DUP4 CODECOPY DUP2 MLOAD SWAP2 MSTORE DUP3 ADD SSTORE SWAP1 DUP6 ADD SWAP1 PUSH1 0x1 ADD PUSH2 0x1593 JUMP JUMPDEST DUP2 PUSH1 0x0 DUP1 MLOAD PUSH1 0x20 PUSH2 0x1EC0 DUP4 CODECOPY DUP2 MLOAD SWAP2 MSTORE SWAP2 DUP3 ADD SWAP2 ADD JUMPDEST DUP2 DUP2 LT PUSH2 0x1623 JUMPI POP PUSH2 0x1589 JUMP JUMPDEST DUP5 DUP2 SSTORE PUSH1 0x1 ADD PUSH2 0x1616 JUMP JUMPDEST PUSH4 0x4E487B71 PUSH1 0xE0 SHL DUP4 MSTORE PUSH1 0x41 PUSH1 0x4 MSTORE PUSH1 0x24 DUP4 REVERT JUMPDEST PUSH1 0x60 DUP2 ADD SWAP1 DUP2 LT PUSH1 0x1 PUSH1 0x1 PUSH1 0x40 SHL SUB DUP3 GT OR PUSH2 0x165D JUMPI PUSH1 0x40 MSTORE JUMP JUMPDEST PUSH4 0x4E487B71 PUSH1 0xE0 SHL PUSH1 0x0 MSTORE PUSH1 0x41 PUSH1 0x4 MSTORE PUSH1 0x24 PUSH1 0x0 REVERT JUMPDEST PUSH1 0x40 DUP2 ADD SWAP1 DUP2 LT PUSH1 0x1 PUSH1 0x1 PUSH1 0x40 SHL SUB DUP3 GT OR PUSH2 0x165D JUMPI PUSH1 0x40 MSTORE JUMP JUMPDEST SWAP1 PUSH1 0x1F DUP1 NOT SWAP2 ADD AND DUP2 ADD SWAP1 DUP2 LT PUSH1 0x1 PUSH1 0x1 PUSH1 0x40 SHL SUB DUP3 GT OR PUSH2 0x165D JUMPI PUSH1 0x40 MSTORE JUMP JUMPDEST PUSH1 0x1 PUSH1 0x1 PUSH1 0x40 SHL SUB DUP2 GT PUSH2 0x165D JUMPI PUSH1 0x5 SHL PUSH1 0x20 ADD SWAP1 JUMP JUMPDEST PUSH1 0x4 CALLDATALOAD SWAP1 PUSH1 0x1 PUSH1 0x1 PUSH1 0xA0 SHL SUB DUP3 AND DUP3 SUB PUSH2 0xC1A JUMPI JUMP JUMPDEST DUP2 PUSH1 0x1F DUP3 ADD SLT ISZERO PUSH2 0xC1A JUMPI DUP1 CALLDATALOAD SWAP2 PUSH2 0x16F3 DUP4 PUSH2 0x16AF JUMP JUMPDEST SWAP3 PUSH2 0x1701 PUSH1 0x40 MLOAD SWAP5 DUP6 PUSH2 0x168E JUMP JUMPDEST DUP1 DUP5 MSTORE PUSH1 0x20 SWAP3 DUP4 DUP1 DUP7 ADD SWAP3 PUSH1 0x5 SHL DUP3 ADD ADD SWAP3 DUP4 GT PUSH2 0xC1A JUMPI DUP4 ADD SWAP1 JUMPDEST DUP3 DUP3 LT PUSH2 0x172B JUMPI POP POP POP POP SWAP1 JUMP JUMPDEST DUP2 CALLDATALOAD PUSH1 0x1 PUSH1 0x1 PUSH1 0xA0 SHL SUB DUP2 AND DUP2 SUB PUSH2 0xC1A JUMPI DUP2 MSTORE SWAP1 DUP4 ADD SWAP1 DUP4 ADD PUSH2 0x171D JUMP JUMPDEST PUSH1 0x1 PUSH1 0x1 PUSH1 0x40 SHL SUB DUP2 GT PUSH2 0x165D JUMPI PUSH1 0x1F ADD PUSH1 0x1F NOT AND PUSH1 0x20 ADD SWAP1 JUMP JUMPDEST DUP2 PUSH1 0x1F DUP3 ADD SLT ISZERO PUSH2 0xC1A JUMPI DUP1 CALLDATALOAD SWAP1 PUSH2 0x177C DUP3 PUSH2 0x174A JUMP JUMPDEST SWAP3 PUSH2 0x178A PUSH1 0x40 MLOAD SWAP5 DUP6 PUSH2 0x168E JUMP JUMPDEST DUP3 DUP5 MSTORE PUSH1 0x20 DUP4 DUP4 ADD ADD GT PUSH2 0xC1A JUMPI DUP2 PUSH1 0x0 SWAP3 PUSH1 0x20 DUP1 SWAP4 ADD DUP4 DUP7 ADD CALLDATACOPY DUP4 ADD ADD MSTORE SWAP1 JUMP JUMPDEST PUSH1 0x8 SLOAD DUP2 LT ISZERO PUSH2 0x17E3 JUMPI PUSH1 0x8 PUSH1 0x0 MSTORE PUSH32 0xF3F7A9FE364FAAB93B216DA50A3214154F22A0A2B415B23A84C8169E8B636EE3 ADD SWAP1 PUSH1 0x0 SWAP1 JUMP JUMPDEST PUSH4 0x4E487B71 PUSH1 0xE0 SHL PUSH1 0x0 MSTORE PUSH1 0x32 PUSH1 0x4 MSTORE PUSH1 0x24 PUSH1 0x0 REVERT JUMPDEST PUSH1 0x40 PUSH1 0x3 NOT DUP3 ADD SLT PUSH2 0xC1A JUMPI PUSH1 0x4 CALLDATALOAD SWAP1 PUSH1 0x1 PUSH1 0x1 PUSH1 0x40 SHL SUB DUP3 GT PUSH2 0xC1A JUMPI PUSH2 0x1823 SWAP2 PUSH1 0x4 ADD PUSH2 0x1765 JUMP JUMPDEST SWAP1 PUSH1 0x24 CALLDATALOAD PUSH1 0x1 PUSH1 0x1 PUSH1 0xA0 SHL SUB DUP2 AND DUP2 SUB PUSH2 0xC1A JUMPI SWAP1 JUMP JUMPDEST SWAP1 PUSH1 0x7 DUP3 LT ISZERO PUSH2 0x8DD JUMPI MSTORE JUMP JUMPDEST SWAP2 SWAP1 DUP3 ADD DUP1 SWAP3 GT PUSH2 0x1854 JUMPI JUMP JUMPDEST PUSH4 0x4E487B71 PUSH1 0xE0 SHL PUSH1 0x0 MSTORE PUSH1 0x11 PUSH1 0x4 MSTORE PUSH1 0x24 PUSH1 0x0 REVERT JUMPDEST DUP1 MLOAD DUP3 LT ISZERO PUSH2 0x17E3 JUMPI PUSH1 0x20 SWAP2 PUSH1 0x5 SHL ADD ADD SWAP1 JUMP JUMPDEST PUSH32 0x0 PUSH1 0x1 PUSH1 0x1 PUSH1 0xA0 SHL SUB AND CALLER SUB PUSH2 0x18B0 JUMPI JUMP JUMPDEST PUSH1 0x40 MLOAD PUSH4 0x75FD2B1 PUSH1 0xE0 SHL DUP2 MSTORE PUSH1 0x4 SWAP1 REVERT JUMPDEST PUSH1 0x1 SLOAD ISZERO PUSH2 0x18CC JUMPI JUMP JUMPDEST PUSH1 0x40 MLOAD PUSH4 0xF68FE63 PUSH1 0xE2 SHL DUP2 MSTORE PUSH1 0x4 SWAP1 REVERT JUMPDEST PUSH1 0x3 SLOAD PUSH1 0x1 PUSH1 0x1 PUSH1 0xA0 SHL SUB AND CALLER SUB PUSH2 0x18F2 JUMPI JUMP JUMPDEST PUSH1 0x64 PUSH1 0x40 MLOAD PUSH3 0x461BCD PUSH1 0xE5 SHL DUP2 MSTORE PUSH1 0x20 PUSH1 0x4 DUP3 ADD MSTORE PUSH1 0x20 PUSH1 0x24 DUP3 ADD MSTORE PUSH32 0x4F776E61626C653A2063616C6C6572206973206E6F7420746865206F776E6572 PUSH1 0x44 DUP3 ADD MSTORE REVERT JUMPDEST MLOAD SWAP1 PUSH1 0x1 PUSH1 0x1 PUSH1 0x40 SHL SUB DUP3 AND DUP3 SUB PUSH2 0xC1A JUMPI JUMP JUMPDEST SWAP2 SWAP3 SWAP2 PUSH1 0x1 PUSH1 0x1 PUSH1 0x40 SHL SUB SWAP1 DUP2 AND SWAP2 DUP2 DUP2 AND DUP1 DUP5 LT ISZERO PUSH2 0x1AA0 JUMPI DUP3 DUP7 AND SWAP1 DUP4 DUP7 AND DUP3 LT ISZERO PUSH2 0x1A5B JUMPI GT PUSH2 0x19FF JUMPI PUSH32 0x5BE4D64080F489B6FEF34A2D8AC3084C5735E83B3789AABC4E6AEAB193E7967F SWAP5 DUP4 PUSH16 0xFFFFFFFFFFFFFFFF0000000000000000 PUSH1 0x80 SWAP7 PUSH1 0x1 PUSH1 0x1 PUSH1 0x40 SHL SUB PUSH1 0xC0 SHL SWAP1 PUSH1 0xC0 SHL AND SWAP4 PUSH1 0x40 SHL AND OR SWAP1 PUSH1 0x1 PUSH1 0x1 PUSH1 0x40 SHL SUB DUP7 SHL SWAP1 DUP7 SHL AND OR OR SWAP1 DUP2 PUSH1 0xA SSTORE PUSH1 0x40 MLOAD SWAP3 DUP4 MSTORE DUP1 DUP3 PUSH1 0x40 SHR AND PUSH1 0x20 DUP5 ADD MSTORE DUP2 DUP5 SHR AND PUSH1 0x40 DUP4 ADD MSTORE PUSH1 0xC0 SHR PUSH1 0x60 DUP3 ADD MSTORE LOG1 JUMP JUMPDEST PUSH1 0x40 MLOAD PUSH3 0x461BCD PUSH1 0xE5 SHL DUP2 MSTORE PUSH1 0x20 PUSH1 0x4 DUP3 ADD MSTORE PUSH1 0x2E PUSH1 0x24 DUP3 ADD MSTORE PUSH32 0x526567697374726174696F6E206D75737420656E64206265666F726520616C6C PUSH1 0x44 DUP3 ADD MSTORE PUSH14 0x6F636174696F6E20737461727473 PUSH1 0x90 SHL PUSH1 0x64 DUP3 ADD MSTORE PUSH1 0x84 SWAP1 REVERT JUMPDEST PUSH1 0x40 MLOAD PUSH3 0x461BCD PUSH1 0xE5 SHL DUP2 MSTORE PUSH1 0x20 PUSH1 0x4 DUP3 ADD MSTORE PUSH1 0x18 PUSH1 0x24 DUP3 ADD MSTORE PUSH32 0x496E76616C696420616C6C6F636174696F6E2074696D65730000000000000000 PUSH1 0x44 DUP3 ADD MSTORE PUSH1 0x64 SWAP1 REVERT JUMPDEST PUSH1 0x40 MLOAD PUSH3 0x461BCD PUSH1 0xE5 SHL DUP2 MSTORE PUSH1 0x20 PUSH1 0x4 DUP3 ADD MSTORE PUSH1 0x1A PUSH1 0x24 DUP3 ADD MSTORE PUSH32 0x496E76616C696420726567697374726174696F6E2074696D6573000000000000 PUSH1 0x44 DUP3 ADD MSTORE PUSH1 0x64 SWAP1 REVERT JUMPDEST SWAP1 PUSH1 0x7 DUP2 LT ISZERO PUSH2 0x8DD JUMPI PUSH1 0xFF DUP1 NOT DUP4 SLOAD AND SWAP2 AND OR SWAP1 SSTORE JUMP JUMPDEST PUSH1 0x2 PUSH1 0x4 SLOAD EQ PUSH2 0x1B0E JUMPI PUSH1 0x2 PUSH1 0x4 SSTORE JUMP JUMPDEST PUSH1 0x40 MLOAD PUSH3 0x461BCD PUSH1 0xE5 SHL DUP2 MSTORE PUSH1 0x20 PUSH1 0x4 DUP3 ADD MSTORE PUSH1 0x1F PUSH1 0x24 DUP3 ADD MSTORE PUSH32 0x5265656E7472616E637947756172643A207265656E7472616E742063616C6C00 PUSH1 0x44 DUP3 ADD MSTORE PUSH1 0x64 SWAP1 REVERT JUMPDEST PUSH1 0x0 NOT DUP2 EQ PUSH2 0x1854 JUMPI PUSH1 0x1 ADD SWAP1 JUMP JUMPDEST ISZERO PUSH2 0x1B69 JUMPI JUMP JUMPDEST PUSH1 0x40 MLOAD PUSH3 0x461BCD PUSH1 0xE5 SHL DUP2 MSTORE PUSH1 0x20 PUSH1 0x4 DUP3 ADD MSTORE PUSH1 0x18 PUSH1 0x24 DUP3 ADD MSTORE PUSH32 0x526563697069656E74206E6F7420726567697374657265640000000000000000 PUSH1 0x44 DUP3 ADD MSTORE PUSH1 0x64 SWAP1 REVERT JUMPDEST SWAP1 DUP2 PUSH1 0x20 SWAP2 SUB SLT PUSH2 0xC1A JUMPI MLOAD DUP1 ISZERO ISZERO DUP2 SUB PUSH2 0xC1A JUMPI SWAP1 JUMP JUMPDEST PUSH1 0x20 PUSH1 0x1 SLOAD PUSH1 0x44 PUSH1 0x40 MLOAD DUP1 SWAP5 DUP2 SWAP4 PUSH4 0x29E40D4B PUSH1 0xE0 SHL DUP4 MSTORE PUSH1 0x4 DUP4 ADD MSTORE PUSH1 0x1 DUP1 PUSH1 0xA0 SHL SUB DUP1 SWAP2 AND PUSH1 0x24 DUP4 ADD MSTORE PUSH32 0x0 AND GAS STATICCALL SWAP1 DUP2 ISZERO PUSH2 0x1C5B JUMPI PUSH1 0x0 SWAP2 PUSH2 0x1C2D JUMPI JUMPDEST POP ISZERO PUSH2 0x18B0 JUMPI JUMP JUMPDEST PUSH2 0x1C4E SWAP2 POP PUSH1 0x20 RETURNDATASIZE DUP2 GT PUSH2 0x1C54 JUMPI JUMPDEST PUSH2 0x1C46 DUP2 DUP4 PUSH2 0x168E JUMP JUMPDEST DUP2 ADD SWAP1 PUSH2 0x1BAE JUMP JUMPDEST CODESIZE PUSH2 0x1C25 JUMP JUMPDEST POP RETURNDATASIZE PUSH2 0x1C3C JUMP JUMPDEST PUSH1 0x40 MLOAD RETURNDATASIZE PUSH1 0x0 DUP3 RETURNDATACOPY RETURNDATASIZE SWAP1 REVERT JUMPDEST SWAP1 DUP2 MLOAD DUP1 DUP3 MSTORE PUSH1 0x20 DUP1 DUP1 SWAP4 ADD SWAP4 ADD SWAP2 PUSH1 0x0 JUMPDEST DUP3 DUP2 LT PUSH2 0x1C87 JUMPI POP POP POP POP SWAP1 JUMP JUMPDEST DUP4 MLOAD PUSH1 0x1 PUSH1 0x1 PUSH1 0xA0 SHL SUB AND DUP6 MSTORE SWAP4 DUP2 ADD SWAP4 SWAP3 DUP2 ADD SWAP3 PUSH1 0x1 ADD PUSH2 0x1C79 JUMP JUMPDEST PUSH1 0x40 MLOAD PUSH4 0xA9059CBB PUSH1 0xE0 SHL PUSH1 0x20 DUP1 DUP4 ADD SWAP2 DUP3 MSTORE PUSH1 0x1 PUSH1 0x1 PUSH1 0xA0 SHL SUB SWAP5 DUP6 AND PUSH1 0x24 DUP5 ADD MSTORE PUSH1 0x44 DUP1 DUP5 ADD SWAP7 SWAP1 SWAP7 MSTORE SWAP5 DUP3 MSTORE SWAP3 PUSH1 0x80 DUP3 ADD SWAP3 PUSH1 0x1 PUSH1 0x1 PUSH1 0x40 SHL SUB DUP5 GT DUP4 DUP6 LT OR PUSH2 0x165D JUMPI PUSH2 0x1D5F SWAP5 PUSH1 0x0 SWAP3 DUP4 SWAP3 DUP7 PUSH1 0x40 MSTORE AND SWAP4 PUSH2 0x1D03 DUP7 PUSH2 0x1673 JUMP JUMPDEST DUP8 DUP7 MSTORE PUSH32 0x5361666545524332303A206C6F772D6C6576656C2063616C6C206661696C6564 PUSH1 0xA0 DUP3 ADD MSTORE MLOAD SWAP1 DUP3 DUP6 GAS CALL RETURNDATASIZE ISZERO PUSH2 0x1DE7 JUMPI RETURNDATASIZE SWAP2 PUSH2 0x1D43 DUP4 PUSH2 0x174A JUMP JUMPDEST SWAP3 PUSH2 0x1D51 PUSH1 0x40 MLOAD SWAP5 DUP6 PUSH2 0x168E JUMP JUMPDEST DUP4 MSTORE RETURNDATASIZE PUSH1 0x0 DUP8 DUP6 ADD RETURNDATACOPY PUSH2 0x1DEB JUMP JUMPDEST DUP1 MLOAD SWAP1 DUP3 DUP3 ISZERO SWAP3 DUP4 ISZERO PUSH2 0x1DCF JUMPI JUMPDEST POP POP POP ISZERO PUSH2 0x1D78 JUMPI POP JUMP JUMPDEST PUSH1 0x84 SWAP1 PUSH1 0x40 MLOAD SWAP1 PUSH3 0x461BCD PUSH1 0xE5 SHL DUP3 MSTORE PUSH1 0x4 DUP3 ADD MSTORE PUSH1 0x2A PUSH1 0x24 DUP3 ADD MSTORE PUSH32 0x5361666545524332303A204552433230206F7065726174696F6E20646964206E PUSH1 0x44 DUP3 ADD MSTORE PUSH10 0x1BDD081CDD58D8D95959 PUSH1 0xB2 SHL PUSH1 0x64 DUP3 ADD MSTORE REVERT JUMPDEST PUSH2 0x1DDF SWAP4 POP DUP3 ADD DUP2 ADD SWAP2 ADD PUSH2 0x1BAE JUMP JUMPDEST CODESIZE DUP3 DUP2 PUSH2 0x1D6D JUMP JUMPDEST PUSH1 0x60 SWAP2 JUMPDEST SWAP2 SWAP3 SWAP1 ISZERO PUSH2 0x1E4D JUMPI POP DUP2 MLOAD ISZERO PUSH2 0x1DFF JUMPI POP SWAP1 JUMP JUMPDEST EXTCODESIZE ISZERO PUSH2 0x1E08 JUMPI SWAP1 JUMP JUMPDEST PUSH1 0x40 MLOAD PUSH3 0x461BCD PUSH1 0xE5 SHL DUP2 MSTORE PUSH1 0x20 PUSH1 0x4 DUP3 ADD MSTORE PUSH1 0x1D PUSH1 0x24 DUP3 ADD MSTORE PUSH32 0x416464726573733A2063616C6C20746F206E6F6E2D636F6E7472616374000000 PUSH1 0x44 DUP3 ADD MSTORE PUSH1 0x64 SWAP1 REVERT JUMPDEST DUP3 MLOAD SWAP1 SWAP2 POP ISZERO PUSH2 0x1E60 JUMPI POP DUP1 MLOAD SWAP1 PUSH1 0x20 ADD REVERT JUMPDEST PUSH1 0x40 MLOAD SWAP1 PUSH3 0x461BCD PUSH1 0xE5 SHL DUP3 MSTORE DUP2 PUSH1 0x20 DUP1 PUSH1 0x4 DUP4 ADD MSTORE DUP3 MLOAD SWAP1 DUP2 PUSH1 0x24 DUP5 ADD MSTORE PUSH1 0x0 SWAP4 JUMPDEST DUP3 DUP6 LT PUSH2 0x1EA6 JUMPI POP POP PUSH1 0x44 SWAP3 POP PUSH1 0x0 DUP4 DUP3 DUP5 ADD ADD MSTORE PUSH1 0x1F DUP1 NOT SWAP2 ADD AND DUP2 ADD SUB ADD SWAP1 REVERT JUMPDEST DUP5 DUP2 ADD DUP3 ADD MLOAD DUP7 DUP7 ADD PUSH1 0x44 ADD MSTORE SWAP4 DUP2 ADD SWAP4 DUP6 SWAP4 POP PUSH2 0x1E83 JUMP INVALID PUSH15 0x1540171B6C0C960B71A7020D9F6007 PUSH32 0x6AF931A8BBF590DA0223DACF75C7AFA264697066735822122090D57829FE2272 SIGNEXTEND PUSH6 0x9EBC0FF14EC3 SWAP16 0xBE PUSH2 0x326E 0xB2 PC MSTORE MSTORE8 MSTORE8 CREATE2 DUP5 0x4A EXTCODECOPY CALL DUP13 DUP12 PUSH5 0x736F6C6343 STOP ADDMOD SGT STOP CALLER "
				},
				"gasEstimates": {
					"creation": {
						"codeDepositCost": "1591400",
						"executionCost": "infinite",
						"totalCost": "infinite"
					},
					"external": {
						"NATIVE()": "570",
						"allocate(bytes,address)": "infinite",
						"allocationEndTime()": "2503",
						"allocationStartTime()": "2763",
						"distribute(address[],bytes,address)": "infinite",
						"getAllo()": "infinite",
						"getPayouts(address[],bytes[])": "infinite",
						"getPoolAmount()": "2519",
						"getPoolId()": "2453",
						"getRecipientDetails(address)": "infinite",
						"getRecipientStatus(address)": "3042",
						"getStrategyId()": "infinite",
						"getTotalRecipients()": "2431",
						"increasePoolAmount(uint256)": "infinite",
						"initialize(uint256,bytes)": "infinite",
						"isPoolActive()": "2773",
						"isValidAllocator(address)": "513",
						"owner()": "2653",
						"recipientList(uint256)": "6906",
						"recipients(address)": "7330",
						"registerRecipient(bytes,address)": "infinite",
						"registrationEndTime()": "2807",
						"registrationStartTime()": "2669",
						"renounceOwnership()": "28393",
						"sndrCore()": "2367",
						"token()": "2956",
						"transferOwnership(address)": "28790",
						"updatePoolTimestamps(uint64,uint64,uint64,uint64)": "26804",
						"updateRecipientStatus(address,uint8)": "30617",
						"updateWhitelistedCollectors(address[])": "infinite",
						"whitelistedCollectors(uint256)": "infinite",
						"withdrawRemainingTokens()": "infinite"
					},
					"internal": {
						"_allocate(bytes memory,address)": "infinite",
						"_distribute(address[] memory,bytes memory,address)": "infinite",
						"_getPayout(address,bytes memory)": "infinite",
						"_getRecipientStatus(address)": "infinite",
						"_isValidAllocator(address)": "infinite",
						"_registerRecipient(bytes memory,address)": "infinite",
						"_updatePoolTimestamps(uint64,uint64,uint64,uint64)": "infinite"
					}
				},
				"methodIdentifiers": {
					"NATIVE()": "a0cf0aea",
					"allocate(bytes,address)": "ef2920fc",
					"allocationEndTime()": "4533d678",
					"allocationStartTime()": "d2e17f59",
					"distribute(address[],bytes,address)": "0a6f0ee9",
					"getAllo()": "15cc481e",
					"getPayouts(address[],bytes[])": "b2b878d0",
					"getPoolAmount()": "4ab4ba42",
					"getPoolId()": "38fff2d0",
					"getRecipientDetails(address)": "b9bd12e4",
					"getRecipientStatus(address)": "eb11af93",
					"getStrategyId()": "42fda9c7",
					"getTotalRecipients()": "2d30e6bf",
					"increasePoolAmount(uint256)": "f5b0dfb7",
					"initialize(uint256,bytes)": "edd146cc",
					"isPoolActive()": "df868ed3",
					"isValidAllocator(address)": "4d31d087",
					"owner()": "8da5cb5b",
					"recipientList(uint256)": "6d40f85b",
					"recipients(address)": "eb820312",
					"registerRecipient(bytes,address)": "2bbe0cae",
					"registrationEndTime()": "dff7d2c7",
					"registrationStartTime()": "9af5c09d",
					"renounceOwnership()": "715018a6",
					"sndrCore()": "19220dbc",
					"token()": "fc0c546a",
					"transferOwnership(address)": "f2fde38b",
					"updatePoolTimestamps(uint64,uint64,uint64,uint64)": "2143e92f",
					"updateRecipientStatus(address,uint8)": "2cb5b5ed",
					"updateWhitelistedCollectors(address[])": "00912917",
					"whitelistedCollectors(uint256)": "14f20ef9",
					"withdrawRemainingTokens()": "8afbf669"
				}
			},
			"storageLayout": {
				"storage": [
					{
						"astId": 1030,
						"contract": "src/SNDRStrategy.sol:SNDRStrategy",
						"label": "poolActive",
						"offset": 0,
						"slot": "0",
						"type": "t_bool"
					},
					{
						"astId": 1032,
						"contract": "src/SNDRStrategy.sol:SNDRStrategy",
						"label": "poolId",
						"offset": 0,
						"slot": "1",
						"type": "t_uint256"
					},
					{
						"astId": 1034,
						"contract": "src/SNDRStrategy.sol:SNDRStrategy",
						"label": "poolAmount",
						"offset": 0,
						"slot": "2",
						"type": "t_uint256"
					},
					{
						"astId": 1622,
						"contract": "src/SNDRStrategy.sol:SNDRStrategy",
						"label": "_owner",
						"offset": 0,
						"slot": "3",
						"type": "t_address"
					},
					{
						"astId": 1738,
						"contract": "src/SNDRStrategy.sol:SNDRStrategy",
						"label": "_status",
						"offset": 0,
						"slot": "4",
						"type": "t_uint256"
					},
					{
						"astId": 2834,
						"contract": "src/SNDRStrategy.sol:SNDRStrategy",
						"label": "sndrCore",
						"offset": 0,
						"slot": "5",
						"type": "t_contract(ISNDRCore)2820"
					},
					{
						"astId": 2837,
						"contract": "src/SNDRStrategy.sol:SNDRStrategy",
						"label": "token",
						"offset": 0,
						"slot": "6",
						"type": "t_contract(IERC20)1870"
					},
					{
						"astId": 2850,
						"contract": "src/SNDRStrategy.sol:SNDRStrategy",
						"label": "recipients",
						"offset": 0,
						"slot": "7",
						"type": "t_mapping(t_address,t_struct(Recipient)2845_storage)"
					},
					{
						"astId": 2853,
						"contract": "src/SNDRStrategy.sol:SNDRStrategy",
						"label": "recipientList",
						"offset": 0,
						"slot": "8",
						"type": "t_array(t_address)dyn_storage"
					},
					{
						"astId": 2856,
						"contract": "src/SNDRStrategy.sol:SNDRStrategy",
						"label": "whitelistedCollectors",
						"offset": 0,
						"slot": "9",
						"type": "t_array(t_address)dyn_storage"
					},
					{
						"astId": 2858,
						"contract": "src/SNDRStrategy.sol:SNDRStrategy",
						"label": "registrationStartTime",
						"offset": 0,
						"slot": "10",
						"type": "t_uint64"
					},
					{
						"astId": 2860,
						"contract": "src/SNDRStrategy.sol:SNDRStrategy",
						"label": "registrationEndTime",
						"offset": 8,
						"slot": "10",
						"type": "t_uint64"
					},
					{
						"astId": 2862,
						"contract": "src/SNDRStrategy.sol:SNDRStrategy",
						"label": "allocationStartTime",
						"offset": 16,
						"slot": "10",
						"type": "t_uint64"
					},
					{
						"astId": 2864,
						"contract": "src/SNDRStrategy.sol:SNDRStrategy",
						"label": "allocationEndTime",
						"offset": 24,
						"slot": "10",
						"type": "t_uint64"
					}
				],
				"types": {
					"t_address": {
						"encoding": "inplace",
						"label": "address",
						"numberOfBytes": "20"
					},
					"t_array(t_address)dyn_storage": {
						"base": "t_address",
						"encoding": "dynamic_array",
						"label": "address[]",
						"numberOfBytes": "32"
					},
					"t_bool": {
						"encoding": "inplace",
						"label": "bool",
						"numberOfBytes": "1"
					},
					"t_contract(IERC20)1870": {
						"encoding": "inplace",
						"label": "contract IERC20",
						"numberOfBytes": "20"
					},
					"t_contract(ISNDRCore)2820": {
						"encoding": "inplace",
						"label": "contract ISNDRCore",
						"numberOfBytes": "20"
					},
					"t_enum(Status)533": {
						"encoding": "inplace",
						"label": "enum IStrategy.Status",
						"numberOfBytes": "1"
					},
					"t_mapping(t_address,t_struct(Recipient)2845_storage)": {
						"encoding": "mapping",
						"key": "t_address",
						"label": "mapping(address => struct SNDRStrategy.Recipient)",
						"numberOfBytes": "32",
						"value": "t_struct(Recipient)2845_storage"
					},
					"t_struct(Recipient)2845_storage": {
						"encoding": "inplace",
						"label": "struct SNDRStrategy.Recipient",
						"members": [
							{
								"astId": 2839,
								"contract": "src/SNDRStrategy.sol:SNDRStrategy",
								"label": "recipientAddress",
								"offset": 0,
								"slot": "0",
								"type": "t_address"
							},
							{
								"astId": 2841,
								"contract": "src/SNDRStrategy.sol:SNDRStrategy",
								"label": "totalAllocation",
								"offset": 0,
								"slot": "1",
								"type": "t_uint256"
							},
							{
								"astId": 2844,
								"contract": "src/SNDRStrategy.sol:SNDRStrategy",
								"label": "status",
								"offset": 0,
								"slot": "2",
								"type": "t_enum(Status)533"
							}
						],
						"numberOfBytes": "96"
					},
					"t_uint256": {
						"encoding": "inplace",
						"label": "uint256",
						"numberOfBytes": "32"
					},
					"t_uint64": {
						"encoding": "inplace",
						"label": "uint64",
						"numberOfBytes": "8"
					}
				}
			},
			"userdoc": {
				"errors": {
					"ALLOCATION_ACTIVE()": [
						{
							"notice": "Thrown when the allocation is active."
						}
					],
					"ALLOCATION_NOT_ACTIVE()": [
						{
							"notice": "Thrown when the allocation is not active."
						}
					],
					"ALLOCATION_NOT_ENDED()": [
						{
							"notice": "Thrown when the allocation is not ended."
						}
					],
					"ALREADY_INITIALIZED()": [
						{
							"notice": "Thrown when data is already intialized"
						}
					],
					"AMOUNT_MISMATCH()": [
						{
							"notice": "Thrown when the amount of tokens sent does not match the amount of tokens expected"
						}
					],
					"ARRAY_MISMATCH()": [
						{
							"notice": "Thrown when two arrays length are not equal"
						}
					],
					"INVALID()": [
						{
							"notice": "Thrown as a general error when input / data is invalid"
						}
					],
					"INVALID_ADDRESS()": [
						{
							"notice": "Thrown when an invalid address is used"
						}
					],
					"INVALID_FEE()": [
						{
							"notice": "Thrown when the fee is below 1e18 which is the fee percentage denominator"
						}
					],
					"INVALID_METADATA()": [
						{
							"notice": "Thrown when the metadata is invalid."
						}
					],
					"INVALID_REGISTRATION()": [
						{
							"notice": "Thrown when the registration is invalid."
						}
					],
					"IS_APPROVED_STRATEGY()": [
						{
							"notice": "Thrown when the strategy is approved and should be cloned"
						}
					],
					"MISMATCH()": [
						{
							"notice": "Thrown when mismatch in decoding data"
						}
					],
					"NON_ZERO_VALUE()": [
						{
							"notice": "Thrown when the value is non-zero"
						}
					],
					"NOT_APPROVED_STRATEGY()": [
						{
							"notice": "Thrown when the strategy is not approved"
						}
					],
					"NOT_ENOUGH_FUNDS()": [
						{
							"notice": "Thrown when not enough funds are available"
						}
					],
					"NOT_IMPLEMENTED()": [
						{
							"notice": "Thrown when the function is not implemented"
						}
					],
					"NOT_INITIALIZED()": [
						{
							"notice": "Thrown when data is yet to be initialized"
						}
					],
					"POOL_ACTIVE()": [
						{
							"notice": "Thrown when a pool is already active"
						}
					],
					"POOL_INACTIVE()": [
						{
							"notice": "Thrown when a pool is inactive"
						}
					],
					"RECIPIENT_ALREADY_ACCEPTED()": [
						{
							"notice": "Thrown when recipient is already accepted."
						}
					],
					"RECIPIENT_ERROR(address)": [
						{
							"notice": "Thrown when there is an error in recipient."
						}
					],
					"RECIPIENT_NOT_ACCEPTED()": [
						{
							"notice": "Thrown when the recipient is not accepted."
						}
					],
					"REGISTRATION_ACTIVE()": [
						{
							"notice": "Thrown when registration is active."
						}
					],
					"REGISTRATION_NOT_ACTIVE()": [
						{
							"notice": "Thrown when registration is not active."
						}
					],
					"UNAUTHORIZED()": [
						{
							"notice": "Thrown when user is not authorized"
						}
					],
					"ZERO_ADDRESS()": [
						{
							"notice": "Thrown when address is the zero address"
						}
					]
				},
				"events": {
					"Allocated(address,uint256,address,address)": {
						"notice": "Emitted when a recipient is allocated to."
					},
					"Distributed(address,address,uint256,address)": {
						"notice": "Emitted when tokens are distributed."
					},
					"Initialized(uint256,bytes)": {
						"notice": "Emitted when strategy is initialized."
					},
					"PoolActive(bool)": {
						"notice": "Emitted when pool is set to active status."
					},
					"Registered(address,bytes,address)": {
						"notice": "Emitted when a recipient is registered."
					}
				},
				"kind": "user",
				"methods": {
					"NATIVE()": {
						"notice": "Address of the native token"
					},
					"allocate(bytes,address)": {
						"notice": "Allocates to a recipient."
					},
					"constructor": {
						"notice": "Constructor to set the Allo contract, SNDR core, and token addresses"
					},
					"distribute(address[],bytes,address)": {
						"notice": "Distributes funds (tokens) to recipients."
					},
					"getAllo()": {
						"notice": "Getter for the 'Allo' contract."
					},
					"getPayouts(address[],bytes[])": {
						"notice": "Gets the payout summary for recipients."
					},
					"getPoolAmount()": {
						"notice": "Getter for the 'poolAmount'."
					},
					"getPoolId()": {
						"notice": "Getter for the 'poolId'."
					},
					"getRecipientDetails(address)": {
						"notice": "Returns the details of a recipient"
					},
					"getRecipientStatus(address)": {
						"notice": "Getter for the status of a recipient."
					},
					"getStrategyId()": {
						"notice": "Getter for the 'strategyId'."
					},
					"getTotalRecipients()": {
						"notice": "Returns the total number of registered recipients"
					},
					"increasePoolAmount(uint256)": {
						"notice": "Increases the pool amount."
					},
					"initialize(uint256,bytes)": {
						"notice": "Initializes the strategy with pool-specific parameters"
					},
					"isPoolActive()": {
						"notice": "Getter for whether or not the pool is active."
					},
					"isValidAllocator(address)": {
						"notice": "Checks if the '_allocator' is a valid allocator."
					},
					"registerRecipient(bytes,address)": {
						"notice": "Registers a recipient."
					},
					"updatePoolTimestamps(uint64,uint64,uint64,uint64)": {
						"notice": "Updates the pool timestamps"
					},
					"updateRecipientStatus(address,uint8)": {
						"notice": "Updates the status of a recipient"
					},
					"updateWhitelistedCollectors(address[])": {
						"notice": "Updates whitelisted collectors"
					},
					"withdrawRemainingTokens()": {
						"notice": "Withdraws any remaining tokens from the contract"
					}
				},
				"notice": "This contract implements a custom strategy for distributing funds to recipients",
				"version": 1
			}
		}
	}
}